{
  "contractName": "Reports",
  "abi": [
    {
      "constant": true,
      "inputs": [],
      "name": "nextStreamId",
      "outputs": [
        {
          "internalType": "uint256",
          "name": "",
          "type": "uint256"
        }
      ],
      "payable": false,
      "stateMutability": "view",
      "type": "function"
    },
    {
      "constant": true,
      "inputs": [],
      "name": "fee",
      "outputs": [
        {
          "internalType": "uint256",
          "name": "mantissa",
          "type": "uint256"
        }
      ],
      "payable": false,
      "stateMutability": "view",
      "type": "function"
    },
    {
      "inputs": [],
      "payable": false,
      "stateMutability": "nonpayable",
      "type": "constructor"
    },
    {
      "anonymous": false,
      "inputs": [
        {
          "indexed": false,
          "internalType": "address",
          "name": "by",
          "type": "address"
        },
        {
          "indexed": false,
          "internalType": "uint256",
          "name": "id",
          "type": "uint256"
        }
      ],
      "name": "Reported",
      "type": "event"
    },
    {
      "anonymous": false,
      "inputs": [
        {
          "indexed": true,
          "internalType": "uint256",
          "name": "streamId",
          "type": "uint256"
        },
        {
          "indexed": true,
          "internalType": "address",
          "name": "sender",
          "type": "address"
        },
        {
          "indexed": true,
          "internalType": "address",
          "name": "recipient",
          "type": "address"
        },
        {
          "indexed": false,
          "internalType": "uint256",
          "name": "deposit",
          "type": "uint256"
        },
        {
          "indexed": false,
          "internalType": "address",
          "name": "tokenAddress",
          "type": "address"
        },
        {
          "indexed": false,
          "internalType": "uint256",
          "name": "startTime",
          "type": "uint256"
        },
        {
          "indexed": false,
          "internalType": "uint256",
          "name": "stopTime",
          "type": "uint256"
        }
      ],
      "name": "CreateStream",
      "type": "event"
    },
    {
      "anonymous": false,
      "inputs": [
        {
          "indexed": true,
          "internalType": "uint256",
          "name": "streamId",
          "type": "uint256"
        },
        {
          "indexed": true,
          "internalType": "address",
          "name": "recipient",
          "type": "address"
        },
        {
          "indexed": false,
          "internalType": "uint256",
          "name": "amount",
          "type": "uint256"
        }
      ],
      "name": "WithdrawFromStream",
      "type": "event"
    },
    {
      "anonymous": false,
      "inputs": [
        {
          "indexed": true,
          "internalType": "uint256",
          "name": "streamId",
          "type": "uint256"
        },
        {
          "indexed": true,
          "internalType": "address",
          "name": "sender",
          "type": "address"
        },
        {
          "indexed": true,
          "internalType": "address",
          "name": "recipient",
          "type": "address"
        },
        {
          "indexed": false,
          "internalType": "uint256",
          "name": "senderBalance",
          "type": "uint256"
        },
        {
          "indexed": false,
          "internalType": "uint256",
          "name": "recipientBalance",
          "type": "uint256"
        }
      ],
      "name": "CancelStream",
      "type": "event"
    },
    {
      "constant": true,
      "inputs": [
        {
          "internalType": "uint256",
          "name": "streamId",
          "type": "uint256"
        }
      ],
      "name": "getStream",
      "outputs": [
        {
          "internalType": "address",
          "name": "sender",
          "type": "address"
        },
        {
          "internalType": "address",
          "name": "recipient",
          "type": "address"
        },
        {
          "internalType": "uint256",
          "name": "deposit",
          "type": "uint256"
        },
        {
          "internalType": "address",
          "name": "tokenAddress",
          "type": "address"
        },
        {
          "internalType": "uint256",
          "name": "startTime",
          "type": "uint256"
        },
        {
          "internalType": "uint256",
          "name": "stopTime",
          "type": "uint256"
        },
        {
          "internalType": "uint256",
          "name": "remainingBalance",
          "type": "uint256"
        },
        {
          "internalType": "uint256",
          "name": "ratePerSecond",
          "type": "uint256"
        }
      ],
      "payable": false,
      "stateMutability": "view",
      "type": "function"
    },
    {
      "constant": true,
      "inputs": [
        {
          "internalType": "uint256",
          "name": "streamId",
          "type": "uint256"
        }
      ],
      "name": "deltaOf",
      "outputs": [
        {
          "internalType": "uint256",
          "name": "delta",
          "type": "uint256"
        }
      ],
      "payable": false,
      "stateMutability": "view",
      "type": "function"
    },
    {
      "constant": true,
      "inputs": [
        {
          "internalType": "uint256",
          "name": "streamId",
          "type": "uint256"
        }
      ],
      "name": "deltaOfReverseStream",
      "outputs": [
        {
          "internalType": "uint256",
          "name": "delta",
          "type": "uint256"
        }
      ],
      "payable": false,
      "stateMutability": "view",
      "type": "function"
    },
    {
      "constant": true,
      "inputs": [
        {
          "internalType": "uint256",
          "name": "streamId",
          "type": "uint256"
        }
      ],
      "name": "balanceOfReverseStream",
      "outputs": [
        {
          "internalType": "uint256",
          "name": "balance",
          "type": "uint256"
        }
      ],
      "payable": false,
      "stateMutability": "view",
      "type": "function"
    },
    {
      "constant": true,
      "inputs": [
        {
          "internalType": "uint256",
          "name": "streamId",
          "type": "uint256"
        },
        {
          "internalType": "address",
          "name": "who",
          "type": "address"
        }
      ],
      "name": "balanceOf",
      "outputs": [
        {
          "internalType": "uint256",
          "name": "balance",
          "type": "uint256"
        }
      ],
      "payable": false,
      "stateMutability": "view",
      "type": "function"
    },
    {
      "constant": false,
      "inputs": [
        {
          "internalType": "string",
          "name": "content",
          "type": "string"
        },
        {
          "internalType": "uint256",
          "name": "deposit",
          "type": "uint256"
        },
        {
          "internalType": "address",
          "name": "tokenAddress",
          "type": "address"
        },
        {
          "internalType": "uint256",
          "name": "stopTime",
          "type": "uint256"
        }
      ],
      "name": "createReverseStream",
      "outputs": [
        {
          "internalType": "uint256",
          "name": "",
          "type": "uint256"
        }
      ],
      "payable": false,
      "stateMutability": "nonpayable",
      "type": "function"
    },
    {
      "constant": false,
      "inputs": [
        {
          "internalType": "address",
          "name": "recipient",
          "type": "address"
        },
        {
          "internalType": "uint256",
          "name": "deposit",
          "type": "uint256"
        },
        {
          "internalType": "address",
          "name": "tokenAddress",
          "type": "address"
        },
        {
          "internalType": "uint256",
          "name": "startTime",
          "type": "uint256"
        },
        {
          "internalType": "uint256",
          "name": "stopTime",
          "type": "uint256"
        }
      ],
      "name": "createStream",
      "outputs": [
        {
          "internalType": "uint256",
          "name": "",
          "type": "uint256"
        }
      ],
      "payable": false,
      "stateMutability": "nonpayable",
      "type": "function"
    },
    {
      "constant": false,
      "inputs": [
        {
          "internalType": "uint256",
          "name": "streamId",
          "type": "uint256"
        },
        {
          "internalType": "uint256",
          "name": "amount",
          "type": "uint256"
        }
      ],
      "name": "withdrawFromStream",
      "outputs": [
        {
          "internalType": "bool",
          "name": "",
          "type": "bool"
        }
      ],
      "payable": false,
      "stateMutability": "nonpayable",
      "type": "function"
    },
    {
      "constant": false,
      "inputs": [
        {
          "internalType": "uint256",
          "name": "streamId",
          "type": "uint256"
        }
      ],
      "name": "cancelStream",
      "outputs": [
        {
          "internalType": "bool",
          "name": "",
          "type": "bool"
        }
      ],
      "payable": false,
      "stateMutability": "nonpayable",
      "type": "function"
    },
    {
      "constant": false,
      "inputs": [
        {
          "internalType": "uint256",
          "name": "streamId",
          "type": "uint256"
        }
      ],
      "name": "Close",
      "outputs": [],
      "payable": false,
      "stateMutability": "nonpayable",
      "type": "function"
    },
    {
      "constant": false,
      "inputs": [
        {
          "internalType": "string",
          "name": "_content",
          "type": "string"
        }
      ],
      "name": "reportEvent",
      "outputs": [],
      "payable": false,
      "stateMutability": "nonpayable",
      "type": "function"
    },
    {
      "constant": true,
      "inputs": [
        {
          "internalType": "address",
          "name": "user",
          "type": "address"
        }
      ],
      "name": "getUserReports",
      "outputs": [
        {
          "components": [
            {
              "internalType": "uint256",
              "name": "streamId",
              "type": "uint256"
            },
            {
              "internalType": "uint256",
              "name": "Id",
              "type": "uint256"
            },
            {
              "internalType": "string",
              "name": "content",
              "type": "string"
            }
          ],
          "internalType": "struct Reports.Report[]",
          "name": "",
          "type": "tuple[]"
        }
      ],
      "payable": false,
      "stateMutability": "view",
      "type": "function"
    },
    {
      "constant": true,
      "inputs": [],
      "name": "getAllReports",
      "outputs": [
        {
          "components": [
            {
              "internalType": "uint256",
              "name": "streamId",
              "type": "uint256"
            },
            {
              "internalType": "uint256",
              "name": "Id",
              "type": "uint256"
            },
            {
              "internalType": "string",
              "name": "content",
              "type": "string"
            }
          ],
          "internalType": "struct Reports.Report[]",
          "name": "",
          "type": "tuple[]"
        }
      ],
      "payable": false,
      "stateMutability": "view",
      "type": "function"
    }
  ],
  "bytecode": "0x608060405234801561001057600080fd5b5060016000806101000a81548160ff0219169083151502179055506000600181905550600160068190555033600860006101000a81548173ffffffffffffffffffffffffffffffffffffffff021916908373ffffffffffffffffffffffffffffffffffffffff1602179055506139f88061008b6000396000f3fe608060405234801561001057600080fd5b50600436106100f55760003560e01c80637a9b2c6c11610097578063bf67515a11610066578063bf67515a146102eb578063cc1b4bf614610307578063ddca3f4314610337578063f3d3ddfa14610355576100f5565b80637a9b2c6c14610224578063894e9a0d14610254578063a5d24f111461028b578063a82ccd4d146102bb576100f5565b80636db9241b116100d35780636db9241b146101645780636edf70c11461019457806370a05afc146101c457806378f0f8fd146101f4576100f5565b80631e99d569146100fa5780632a2238ff146101185780633656eec214610134575b600080fd5b610102610373565b60405161010f9190613757565b60405180910390f35b610132600480360361012d9190810190612e67565b610379565b005b61014e60048036036101499190810190612f4c565b6104f4565b60405161015b9190613757565b60405180910390f35b61017e60048036036101799190810190612f23565b610942565b60405161018b91906135bc565b60405180910390f35b6101ae60048036036101a99190810190612f23565b610f54565b6040516101bb9190613757565b60405180910390f35b6101de60048036036101d99190810190612d9e565b6112b7565b6040516101eb919061359a565b60405180910390f35b61020e60048036036102099190810190612ea8565b61140b565b60405161021b9190613757565b60405180910390f35b61023e60048036036102399190810190612f88565b61142c565b60405161024b91906135bc565b60405180910390f35b61026e60048036036102699190810190612f23565b611ac5565b6040516102829897969594939291906134f3565b60405180910390f35b6102a560048036036102a09190810190612f23565b611c69565b6040516102b29190613757565b60405180910390f35b6102d560048036036102d09190810190612f23565b611e77565b6040516102e29190613757565b60405180910390f35b61030560048036036103009190810190612f23565b61209a565b005b610321600480360361031c9190810190612dc7565b612447565b60405161032e9190613757565b60405180910390f35b61033f612933565b60405161034c9190613757565b60405180910390f35b61035d61293f565b60405161036a919061359a565b60405180910390f35b60065481565b600160008154809291906001019190505550610393612b38565b604051806060016040528060065481526020016001548152602001838152509050600260003373ffffffffffffffffffffffffffffffffffffffff1673ffffffffffffffffffffffffffffffffffffffff16815260200190815260200160002081908060018154018082558091505090600182039060005260206000209060030201600090919290919091506000820151816000015560208201518160010155604082015181600201908051906020019061044f929190612b59565b5050505060038190806001815401808255809150509060018203906000526020600020906003020160009091929091909150600082015181600001556020820151816001015560408201518160020190805190602001906104b1929190612b59565b505050507f13ae4ea8eb28cf5104b119acecdbc7bfcab76402a5caca38c9a5810629876aac336001546040516104e89291906134ca565b60405180910390a15050565b6000826007600082815260200190815260200160002060070160149054906101000a900460ff1661055a576040517f08c379a000000000000000000000000000000000000000000000000000000000815260040161055190613617565b60405180910390fd5b610562612bd9565b600760008681526020019081526020016000206040518061012001604052908160008201548152602001600182015481526020016002820154815260200160038201548152602001600482015481526020016005820160009054906101000a900473ffffffffffffffffffffffffffffffffffffffff1673ffffffffffffffffffffffffffffffffffffffff1673ffffffffffffffffffffffffffffffffffffffff1681526020016006820160009054906101000a900473ffffffffffffffffffffffffffffffffffffffff1673ffffffffffffffffffffffffffffffffffffffff1673ffffffffffffffffffffffffffffffffffffffff1681526020016007820160009054906101000a900473ffffffffffffffffffffffffffffffffffffffff1673ffffffffffffffffffffffffffffffffffffffff1673ffffffffffffffffffffffffffffffffffffffff1681526020016007820160149054906101000a900460ff16151515158152505090506106da612c69565b60006106e587611e77565b90506106f5818460200151612a54565b83600001846020018281525082600381111561070d57fe5b600381111561071857fe5b81525050506000600381111561072a57fe5b8260000151600381111561073a57fe5b1461077a576040517f08c379a0000000000000000000000000000000000000000000000000000000008152600401610771906136b7565b60405180910390fd5b8260400151836000015111156108475761079c83600001518460400151612aa7565b8360000184604001828152508260038111156107b457fe5b60038111156107bf57fe5b8152505050600060038111156107d157fe5b826000015160038111156107e157fe5b146107e857fe5b6107fa82602001518360400151612aa7565b83600001846020018281525082600381111561081257fe5b600381111561081d57fe5b81525050506000600381111561082f57fe5b8260000151600381111561083f57fe5b1461084657fe5b5b8260a0015173ffffffffffffffffffffffffffffffffffffffff168673ffffffffffffffffffffffffffffffffffffffff16141561088e578160200151945050505061093b565b8260c0015173ffffffffffffffffffffffffffffffffffffffff168673ffffffffffffffffffffffffffffffffffffffff161415610933576108d883604001518360200151612aa7565b8360000184606001828152508260038111156108f057fe5b60038111156108fb57fe5b81525050506000600381111561090d57fe5b8260000151600381111561091d57fe5b1461092457fe5b8160600151945050505061093b565b600094505050505b5092915050565b60008060009054906101000a900460ff16610992576040517f08c379a000000000000000000000000000000000000000000000000000000000815260040161098990613717565b60405180910390fd5b60008060006101000a81548160ff021916908315150217905550816007600082815260200190815260200160002060070160149054906101000a900460ff16610a10576040517f08c379a0000000000000000000000000000000000000000000000000000000008152600401610a0790613617565b60405180910390fd5b3373ffffffffffffffffffffffffffffffffffffffff16600860009054906101000a900473ffffffffffffffffffffffffffffffffffffffff1673ffffffffffffffffffffffffffffffffffffffff1614610aa0576040517f08c379a0000000000000000000000000000000000000000000000000000000008152600401610a9790613617565b60405180910390fd5b610aa8612bd9565b600760008581526020019081526020016000206040518061012001604052908160008201548152602001600182015481526020016002820154815260200160038201548152602001600482015481526020016005820160009054906101000a900473ffffffffffffffffffffffffffffffffffffffff1673ffffffffffffffffffffffffffffffffffffffff1673ffffffffffffffffffffffffffffffffffffffff1681526020016006820160009054906101000a900473ffffffffffffffffffffffffffffffffffffffff1673ffffffffffffffffffffffffffffffffffffffff1673ffffffffffffffffffffffffffffffffffffffff1681526020016007820160009054906101000a900473ffffffffffffffffffffffffffffffffffffffff1673ffffffffffffffffffffffffffffffffffffffff1673ffffffffffffffffffffffffffffffffffffffff1681526020016007820160149054906101000a900460ff16151515158152505090506000610c28858360c001516104f4565b90506000610c3a868460a001516104f4565b90506007600087815260200190815260200160002060008082016000905560018201600090556002820160009055600382016000905560048201600090556005820160006101000a81549073ffffffffffffffffffffffffffffffffffffffff02191690556006820160006101000a81549073ffffffffffffffffffffffffffffffffffffffff02191690556007820160006101000a81549073ffffffffffffffffffffffffffffffffffffffff02191690556007820160146101000a81549060ff0219169055505060008360e0015190506000821115610de6578073ffffffffffffffffffffffffffffffffffffffff1663a9059cbb8560a00151846040518363ffffffff1660e01b8152600401610d54929190613571565b602060405180830381600087803b158015610d6e57600080fd5b505af1158015610d82573d6000803e3d6000fd5b505050506040513d601f19601f82011682018060405250610da69190810190612e3e565b610de5576040517f08c379a0000000000000000000000000000000000000000000000000000000008152600401610ddc90613737565b60405180910390fd5b5b6000831115610ec0578073ffffffffffffffffffffffffffffffffffffffff1663a9059cbb8560c00151856040518363ffffffff1660e01b8152600401610e2e929190613571565b602060405180830381600087803b158015610e4857600080fd5b505af1158015610e5c573d6000803e3d6000fd5b505050506040513d601f19601f82011682018060405250610e809190810190612e3e565b610ebf576040517f08c379a0000000000000000000000000000000000000000000000000000000008152600401610eb690613637565b60405180910390fd5b5b8360a0015173ffffffffffffffffffffffffffffffffffffffff168460c0015173ffffffffffffffffffffffffffffffffffffffff16887fca3e6079b726e7728802a0537949e2d1c7762304fa641fb06eb56daf2ba8c6b98686604051610f289291906137b7565b60405180910390a4505050505060016000806101000a81548160ff021916908315150217905550919050565b6000816007600082815260200190815260200160002060070160149054906101000a900460ff16610fba576040517f08c379a0000000000000000000000000000000000000000000000000000000008152600401610fb190613617565b60405180910390fd5b610fc2612bd9565b600760008581526020019081526020016000206040518061012001604052908160008201548152602001600182015481526020016002820154815260200160038201548152602001600482015481526020016005820160009054906101000a900473ffffffffffffffffffffffffffffffffffffffff1673ffffffffffffffffffffffffffffffffffffffff1673ffffffffffffffffffffffffffffffffffffffff1681526020016006820160009054906101000a900473ffffffffffffffffffffffffffffffffffffffff1673ffffffffffffffffffffffffffffffffffffffff1673ffffffffffffffffffffffffffffffffffffffff1681526020016007820160009054906101000a900473ffffffffffffffffffffffffffffffffffffffff1673ffffffffffffffffffffffffffffffffffffffff1673ffffffffffffffffffffffffffffffffffffffff1681526020016007820160149054906101000a900460ff161515151581525050905061113a612c69565b600061114586611c69565b9050611155818460200151612a54565b83600001846020018281525082600381111561116d57fe5b600381111561117857fe5b81525050506000600381111561118a57fe5b8260000151600381111561119a57fe5b146111da576040517f08c379a00000000000000000000000000000000000000000000000000000000081526004016111d1906136b7565b60405180910390fd5b8260400151836000015111156112a7576111fc83600001518460400151612aa7565b83600001846040018281525082600381111561121457fe5b600381111561121f57fe5b81525050506000600381111561123157fe5b8260000151600381111561124157fe5b1461124857fe5b61125a82602001518360400151612aa7565b83600001846020018281525082600381111561127257fe5b600381111561127d57fe5b81525050506000600381111561128f57fe5b8260000151600381111561129f57fe5b146112a657fe5b5b8160200151945050505050919050565b6060600260008373ffffffffffffffffffffffffffffffffffffffff1673ffffffffffffffffffffffffffffffffffffffff168152602001908152602001600020805480602002602001604051908101604052809291908181526020016000905b8282101561140057838290600052602060002090600302016040518060600160405290816000820154815260200160018201548152602001600282018054600181600116156101000203166002900480601f0160208091040260200160405190810160405280929190818152602001828054600181600116156101000203166002900480156113e85780601f106113bd576101008083540402835291602001916113e8565b820191906000526020600020905b8154815290600101906020018083116113cb57829003601f168201915b50505050508152505081526020019060010190611318565b505050509050919050565b600061141685610379565b6114233385854286612447565b50949350505050565b60008060009054906101000a900460ff1661147c576040517f08c379a000000000000000000000000000000000000000000000000000000000815260040161147390613717565b60405180910390fd5b60008060006101000a81548160ff021916908315150217905550826007600082815260200190815260200160002060070160149054906101000a900460ff166114fa576040517f08c379a00000000000000000000000000000000000000000000000000000000081526004016114f190613617565b60405180910390fd5b836007600082815260200190815260200160002060060160009054906101000a900473ffffffffffffffffffffffffffffffffffffffff1673ffffffffffffffffffffffffffffffffffffffff163373ffffffffffffffffffffffffffffffffffffffff1614806115cc57506007600082815260200190815260200160002060050160009054906101000a900473ffffffffffffffffffffffffffffffffffffffff1673ffffffffffffffffffffffffffffffffffffffff163373ffffffffffffffffffffffffffffffffffffffff16145b61160b576040517f08c379a0000000000000000000000000000000000000000000000000000000008152600401611602906136d7565b60405180910390fd5b6000841161164e576040517f08c379a0000000000000000000000000000000000000000000000000000000008152600401611645906135d7565b60405180910390fd5b611656612bd9565b600760008781526020019081526020016000206040518061012001604052908160008201548152602001600182015481526020016002820154815260200160038201548152602001600482015481526020016005820160009054906101000a900473ffffffffffffffffffffffffffffffffffffffff1673ffffffffffffffffffffffffffffffffffffffff1673ffffffffffffffffffffffffffffffffffffffff1681526020016006820160009054906101000a900473ffffffffffffffffffffffffffffffffffffffff1673ffffffffffffffffffffffffffffffffffffffff1673ffffffffffffffffffffffffffffffffffffffff1681526020016007820160009054906101000a900473ffffffffffffffffffffffffffffffffffffffff1673ffffffffffffffffffffffffffffffffffffffff1673ffffffffffffffffffffffffffffffffffffffff1681526020016007820160149054906101000a900460ff16151515158152505090506117ce612c9c565b60006117de888460a001516104f4565b905086811015611823576040517f08c379a000000000000000000000000000000000000000000000000000000000815260040161181a906135f7565b60405180910390fd5b611831836040015188612aa7565b83600001600760008c81526020019081526020016000206002016000839190505582600381111561185e57fe5b600381111561186957fe5b81525050506000600381111561187b57fe5b8260000151600381111561188b57fe5b1461189257fe5b6000600760008a8152602001908152602001600020600201541415611979576007600089815260200190815260200160002060008082016000905560018201600090556002820160009055600382016000905560048201600090556005820160006101000a81549073ffffffffffffffffffffffffffffffffffffffff02191690556006820160006101000a81549073ffffffffffffffffffffffffffffffffffffffff02191690556007820160006101000a81549073ffffffffffffffffffffffffffffffffffffffff02191690556007820160146101000a81549060ff021916905550505b8260e0015173ffffffffffffffffffffffffffffffffffffffff1663a9059cbb8460a00151896040518363ffffffff1660e01b81526004016119bc929190613571565b602060405180830381600087803b1580156119d657600080fd5b505af11580156119ea573d6000803e3d6000fd5b505050506040513d601f19601f82011682018060405250611a0e9190810190612e3e565b611a4d576040517f08c379a0000000000000000000000000000000000000000000000000000000008152600401611a4490613677565b60405180910390fd5b8260a0015173ffffffffffffffffffffffffffffffffffffffff16887f36c3ab437e6a424ed25dc4bfdeb62706aa06558660fab2dab229d2555adaf89c89604051611a989190613757565b60405180910390a3505050505060016000806101000a81548160ff02191690831515021790555092915050565b600080600080600080600080886007600082815260200190815260200160002060070160149054906101000a900460ff16611b35576040517f08c379a0000000000000000000000000000000000000000000000000000000008152600401611b2c90613617565b60405180910390fd5b600760008b815260200190815260200160002060060160009054906101000a900473ffffffffffffffffffffffffffffffffffffffff169850600760008b815260200190815260200160002060050160009054906101000a900473ffffffffffffffffffffffffffffffffffffffff169750600760008b8152602001908152602001600020600001549650600760008b815260200190815260200160002060070160009054906101000a900473ffffffffffffffffffffffffffffffffffffffff169550600760008b8152602001908152602001600020600301549450600760008b8152602001908152602001600020600401549350600760008b8152602001908152602001600020600201549250600760008b815260200190815260200160002060010154915050919395975091939597565b6000816007600082815260200190815260200160002060070160149054906101000a900460ff16611ccf576040517f08c379a0000000000000000000000000000000000000000000000000000000008152600401611cc690613617565b60405180910390fd5b611cd7612bd9565b600760008581526020019081526020016000206040518061012001604052908160008201548152602001600182015481526020016002820154815260200160038201548152602001600482015481526020016005820160009054906101000a900473ffffffffffffffffffffffffffffffffffffffff1673ffffffffffffffffffffffffffffffffffffffff1673ffffffffffffffffffffffffffffffffffffffff1681526020016006820160009054906101000a900473ffffffffffffffffffffffffffffffffffffffff1673ffffffffffffffffffffffffffffffffffffffff1673ffffffffffffffffffffffffffffffffffffffff1681526020016007820160009054906101000a900473ffffffffffffffffffffffffffffffffffffffff1673ffffffffffffffffffffffffffffffffffffffff1673ffffffffffffffffffffffffffffffffffffffff1681526020016007820160149054906101000a900460ff16151515158152505090508060800151421015611e625780606001514203925050611e71565b80606001518160800151039250505b50919050565b6000816007600082815260200190815260200160002060070160149054906101000a900460ff16611edd576040517f08c379a0000000000000000000000000000000000000000000000000000000008152600401611ed490613617565b60405180910390fd5b611ee5612bd9565b600760008581526020019081526020016000206040518061012001604052908160008201548152602001600182015481526020016002820154815260200160038201548152602001600482015481526020016005820160009054906101000a900473ffffffffffffffffffffffffffffffffffffffff1673ffffffffffffffffffffffffffffffffffffffff1673ffffffffffffffffffffffffffffffffffffffff1681526020016006820160009054906101000a900473ffffffffffffffffffffffffffffffffffffffff1673ffffffffffffffffffffffffffffffffffffffff1673ffffffffffffffffffffffffffffffffffffffff1681526020016007820160009054906101000a900473ffffffffffffffffffffffffffffffffffffffff1673ffffffffffffffffffffffffffffffffffffffff1673ffffffffffffffffffffffffffffffffffffffff1681526020016007820160149054906101000a900460ff16151515158152505090508060600151421161206a576000925050612094565b80608001514210156120855780606001514203925050612094565b80606001518160800151039250505b50919050565b6000809054906101000a900460ff166120e8576040517f08c379a00000000000000000000000000000000000000000000000000000000081526004016120df90613717565b60405180910390fd5b60008060006101000a81548160ff021916908315150217905550806007600082815260200190815260200160002060070160149054906101000a900460ff16612166576040517f08c379a000000000000000000000000000000000000000000000000000000000815260040161215d90613617565b60405180910390fd5b600061217183610f54565b905061217b612bd9565b600760008581526020019081526020016000206040518061012001604052908160008201548152602001600182015481526020016002820154815260200160038201548152602001600482015481526020016005820160009054906101000a900473ffffffffffffffffffffffffffffffffffffffff1673ffffffffffffffffffffffffffffffffffffffff1673ffffffffffffffffffffffffffffffffffffffff1681526020016006820160009054906101000a900473ffffffffffffffffffffffffffffffffffffffff1673ffffffffffffffffffffffffffffffffffffffff1673ffffffffffffffffffffffffffffffffffffffff1681526020016007820160009054906101000a900473ffffffffffffffffffffffffffffffffffffffff1673ffffffffffffffffffffffffffffffffffffffff1673ffffffffffffffffffffffffffffffffffffffff1681526020016007820160149054906101000a900460ff16151515158152505090506007600085815260200190815260200160002060008082016000905560018201600090556002820160009055600382016000905560048201600090556005820160006101000a81549073ffffffffffffffffffffffffffffffffffffffff02191690556006820160006101000a81549073ffffffffffffffffffffffffffffffffffffffff02191690556007820160006101000a81549073ffffffffffffffffffffffffffffffffffffffff02191690556007820160146101000a81549060ff0219169055505060008160e0015190508073ffffffffffffffffffffffffffffffffffffffff166342966c68846040518263ffffffff1660e01b81526004016123f49190613757565b600060405180830381600087803b15801561240e57600080fd5b505af1158015612422573d6000803e3d6000fd5b505050505050505060016000806101000a81548160ff02191690831515021790555050565b600080851161248b576040517f08c379a000000000000000000000000000000000000000000000000000000000815260040161248290613657565b60405180910390fd5b612493612cba565b61249d8385612aa7565b8260000183602001828152508260038111156124b557fe5b60038111156124c057fe5b8152505050600060038111156124d257fe5b816000015160038111156124e257fe5b146124e957fe5b8060200151861015612530576040517f08c379a0000000000000000000000000000000000000000000000000000000008152600401612527906136f7565b60405180910390fd5b61253e868260200151612ad2565b82600001836040018281525082600381111561255657fe5b600381111561256157fe5b81525050506000600381111561257357fe5b8160000151600381111561258357fe5b1461258a57fe5b60006006549050604051806101200160405280888152602001836040015181526020018881526020018681526020018581526020018973ffffffffffffffffffffffffffffffffffffffff1681526020013373ffffffffffffffffffffffffffffffffffffffff1681526020018773ffffffffffffffffffffffffffffffffffffffff1681526020016001151581525060076000838152602001908152602001600020600082015181600001556020820151816001015560408201518160020155606082015181600301556080820151816004015560a08201518160050160006101000a81548173ffffffffffffffffffffffffffffffffffffffff021916908373ffffffffffffffffffffffffffffffffffffffff16021790555060c08201518160060160006101000a81548173ffffffffffffffffffffffffffffffffffffffff021916908373ffffffffffffffffffffffffffffffffffffffff16021790555060e08201518160070160006101000a81548173ffffffffffffffffffffffffffffffffffffffff021916908373ffffffffffffffffffffffffffffffffffffffff1602179055506101008201518160070160146101000a81548160ff0219169083151502179055509050506127656006546001612b06565b8360000160066000839190505582600381111561277e57fe5b600381111561278957fe5b81525050506000600381111561279b57fe5b826000015160038111156127ab57fe5b146127eb576040517f08c379a00000000000000000000000000000000000000000000000000000000081526004016127e290613697565b60405180910390fd5b8573ffffffffffffffffffffffffffffffffffffffff166323b872dd33308a6040518463ffffffff1660e01b815260040161282893929190613493565b602060405180830381600087803b15801561284257600080fd5b505af1158015612856573d6000803e3d6000fd5b505050506040513d601f19601f8201168201806040525061287a9190810190612e3e565b6128b9576040517f08c379a00000000000000000000000000000000000000000000000000000000081526004016128b090613677565b60405180910390fd5b8773ffffffffffffffffffffffffffffffffffffffff163373ffffffffffffffffffffffffffffffffffffffff16827f7b01d409597969366dc268d7f957a990d1ca3d3449baf8fb45db67351aecfe788a8a8a8a60405161291d9493929190613772565b60405180910390a4809250505095945050505050565b60058060000154905081565b60606003805480602002602001604051908101604052809291908181526020016000905b82821015612a4b57838290600052602060002090600302016040518060600160405290816000820154815260200160018201548152602001600282018054600181600116156101000203166002900480601f016020809104026020016040519081016040528092919081815260200182805460018160011615610100020316600290048015612a335780601f10612a0857610100808354040283529160200191612a33565b820191906000526020600020905b815481529060010190602001808311612a1657829003601f168201915b50505050508152505081526020019060010190612963565b50505050905090565b6000806000841415612a6f5760008080905091509150612aa0565b6000838502905083858281612a8057fe5b0414612a9757600260008090509250925050612aa0565b60008192509250505b9250929050565b600080838311612abf57600083850391509150612acb565b60036000809050915091505b9250929050565b6000806000831415612aee576001600080905091509150612aff565b6000838581612af957fe5b04915091505b9250929050565b60008060008385019050848110612b24576000819250925050612b31565b6002600080905092509250505b9250929050565b60405180606001604052806000815260200160008152602001606081525090565b828054600181600116156101000203166002900490600052602060002090601f016020900481019282601f10612b9a57805160ff1916838001178555612bc8565b82800160010185558215612bc8579182015b82811115612bc7578251825591602001919060010190612bac565b5b509050612bd59190612ce6565b5090565b6040518061012001604052806000815260200160008152602001600081526020016000815260200160008152602001600073ffffffffffffffffffffffffffffffffffffffff168152602001600073ffffffffffffffffffffffffffffffffffffffff168152602001600073ffffffffffffffffffffffffffffffffffffffff1681526020016000151581525090565b604051806080016040528060006003811115612c8157fe5b81526020016000815260200160008152602001600081525090565b604051806020016040528060006003811115612cb457fe5b81525090565b604051806060016040528060006003811115612cd257fe5b815260200160008152602001600081525090565b612d0891905b80821115612d04576000816000905550600101612cec565b5090565b90565b600081359050612d1a81613970565b92915050565b600081519050612d2f81613987565b92915050565b600082601f830112612d4657600080fd5b8135612d59612d548261380d565b6137e0565b91508082526020830160208301858383011115612d7557600080fd5b612d8083828461391d565b50505092915050565b600081359050612d988161399e565b92915050565b600060208284031215612db057600080fd5b6000612dbe84828501612d0b565b91505092915050565b600080600080600060a08688031215612ddf57600080fd5b6000612ded88828901612d0b565b9550506020612dfe88828901612d89565b9450506040612e0f88828901612d0b565b9350506060612e2088828901612d89565b9250506080612e3188828901612d89565b9150509295509295909350565b600060208284031215612e5057600080fd5b6000612e5e84828501612d20565b91505092915050565b600060208284031215612e7957600080fd5b600082013567ffffffffffffffff811115612e9357600080fd5b612e9f84828501612d35565b91505092915050565b60008060008060808587031215612ebe57600080fd5b600085013567ffffffffffffffff811115612ed857600080fd5b612ee487828801612d35565b9450506020612ef587828801612d89565b9350506040612f0687828801612d0b565b9250506060612f1787828801612d89565b91505092959194509250565b600060208284031215612f3557600080fd5b6000612f4384828501612d89565b91505092915050565b60008060408385031215612f5f57600080fd5b6000612f6d85828601612d89565b9250506020612f7e85828601612d0b565b9150509250929050565b60008060408385031215612f9b57600080fd5b6000612fa985828601612d89565b9250506020612fba85828601612d89565b9150509250929050565b6000612fd08383613425565b905092915050565b612fe1816138e7565b82525050565b612ff08161389f565b82525050565b600061300182613849565b61300b818561386c565b93508360208202850161301d85613839565b8060005b85811015613059578484038952815161303a8582612fc4565b94506130458361385f565b925060208a01995050600181019050613021565b50829750879550505050505092915050565b613074816138b1565b82525050565b600061308582613854565b61308f818561387d565b935061309f81856020860161392c565b6130a88161395f565b840191505092915050565b60006130c0600e8361388e565b91507f616d6f756e74206973207a65726f0000000000000000000000000000000000006000830152602082019050919050565b600061310060248361388e565b91507f616d6f756e7420657863656564732074686520617661696c61626c652062616c60008301527f616e6365000000000000000000000000000000000000000000000000000000006020830152604082019050919050565b600061316660158361388e565b91507f73747265616d20646f6573206e6f7420657869737400000000000000000000006000830152602082019050919050565b60006131a6601d8361388e565b91507f73656e64657220746f6b656e207472616e73666572206661696c7572650000006000830152602082019050919050565b60006131e6600f8361388e565b91507f6465706f736974206973207a65726f00000000000000000000000000000000006000830152602082019050919050565b600061322660168361388e565b91507f746f6b656e207472616e73666572206661696c757265000000000000000000006000830152602082019050919050565b600061326660208361388e565b91507f6e6578742073747265616d2069642063616c63756c6174696f6e206572726f726000830152602082019050919050565b60006132a660238361388e565b91507f726563697069656e742062616c616e63652063616c63756c6174696f6e20657260008301527f726f7200000000000000000000000000000000000000000000000000000000006020830152604082019050919050565b600061330c60378361388e565b91507f63616c6c6572206973206e6f74207468652073656e646572206f72207468652060008301527f726563697069656e74206f66207468652073747265616d0000000000000000006020830152604082019050919050565b6000613372601f8361388e565b91507f6465706f73697420736d616c6c6572207468616e2074696d652064656c7461006000830152602082019050919050565b60006133b2601f8361388e565b91507f5265656e7472616e637947756172643a207265656e7472616e742063616c6c006000830152602082019050919050565b60006133f260208361388e565b91507f726563697069656e7420746f6b656e207472616e73666572206661696c7572656000830152602082019050919050565b600060608301600083015161343d6000860182613475565b5060208301516134506020860182613475565b5060408301518482036040860152613468828261307a565b9150508091505092915050565b61347e816138dd565b82525050565b61348d816138dd565b82525050565b60006060820190506134a86000830186612fd8565b6134b56020830185612fe7565b6134c26040830184613484565b949350505050565b60006040820190506134df6000830185612fd8565b6134ec6020830184613484565b9392505050565b600061010082019050613509600083018b612fe7565b613516602083018a612fe7565b6135236040830189613484565b6135306060830188612fe7565b61353d6080830187613484565b61354a60a0830186613484565b61355760c0830185613484565b61356460e0830184613484565b9998505050505050505050565b60006040820190506135866000830185612fe7565b6135936020830184613484565b9392505050565b600060208201905081810360008301526135b48184612ff6565b905092915050565b60006020820190506135d1600083018461306b565b92915050565b600060208201905081810360008301526135f0816130b3565b9050919050565b60006020820190508181036000830152613610816130f3565b9050919050565b6000602082019050818103600083015261363081613159565b9050919050565b6000602082019050818103600083015261365081613199565b9050919050565b60006020820190508181036000830152613670816131d9565b9050919050565b6000602082019050818103600083015261369081613219565b9050919050565b600060208201905081810360008301526136b081613259565b9050919050565b600060208201905081810360008301526136d081613299565b9050919050565b600060208201905081810360008301526136f0816132ff565b9050919050565b6000602082019050818103600083015261371081613365565b9050919050565b60006020820190508181036000830152613730816133a5565b9050919050565b60006020820190508181036000830152613750816133e5565b9050919050565b600060208201905061376c6000830184613484565b92915050565b60006080820190506137876000830187613484565b6137946020830186612fe7565b6137a16040830185613484565b6137ae6060830184613484565b95945050505050565b60006040820190506137cc6000830185613484565b6137d96020830184613484565b9392505050565b6000604051905081810181811067ffffffffffffffff8211171561380357600080fd5b8060405250919050565b600067ffffffffffffffff82111561382457600080fd5b601f19601f8301169050602081019050919050565b6000819050602082019050919050565b600081519050919050565b600081519050919050565b6000602082019050919050565b600082825260208201905092915050565b600082825260208201905092915050565b600082825260208201905092915050565b60006138aa826138bd565b9050919050565b60008115159050919050565b600073ffffffffffffffffffffffffffffffffffffffff82169050919050565b6000819050919050565b60006138f2826138f9565b9050919050565b60006139048261390b565b9050919050565b6000613916826138bd565b9050919050565b82818337600083830152505050565b60005b8381101561394a57808201518184015260208101905061392f565b83811115613959576000848401525b50505050565b6000601f19601f8301169050919050565b6139798161389f565b811461398457600080fd5b50565b613990816138b1565b811461399b57600080fd5b50565b6139a7816138dd565b81146139b257600080fd5b5056fea365627a7a72315820c9232247222a28e995f9e2005540d9e2cf89731175de2dbaf57d9fc8bf0c7efa6c6578706572696d656e74616cf564736f6c634300050b0040",
  "source": "pragma solidity 0.5.11;\r\npragma experimental ABIEncoderV2;\r\n\r\nimport \"@openzeppelin/contracts/lifecycle/Pausable.sol\";\r\nimport \"@openzeppelin/contracts/ownership/Ownable.sol\";\r\nimport \"@openzeppelin/contracts/token/ERC20/ERC20Burnable.sol\";\r\nimport \"@openzeppelin/contracts/utils/ReentrancyGuard.sol\";\r\nimport \"./compound/Exponential.sol\";\r\nimport \"./interfaces/IERC1620.sol\";\r\nimport \"./Types.sol\";\r\n\r\ncontract Reports is IERC1620, Exponential, ReentrancyGuard  {\r\n\r\n    uint256 reportCount;\r\n\r\n    struct Report {\r\n        uint256 streamId;\r\n        uint256 Id;\r\n        string content;\r\n    }\r\n\r\n    /**\r\n     * @notice Reports made per address.\r\n     */\r\n    mapping(address => Report[]) private reports;\r\n\r\n    Report[] private allReports;\r\n    \r\n    event Reported(address by, uint256 id);\r\n\r\n       /**\r\n     * @notice The amount of interest has been accrued per token address.\r\n     */\r\n    mapping(address => uint256) private earnings;\r\n\r\n    /**\r\n     * @notice The percentage fee charged by the contract on the accrued interest.\r\n     */\r\n    Exp public fee;\r\n\r\n    /**\r\n     * @notice Counter for new stream ids.\r\n     */\r\n    uint256 public nextStreamId;\r\n\r\n    /**\r\n     * @notice The stream objects identifiable by their unsigned integer ids.\r\n     */\r\n    mapping(uint256 => Types.Stream) private streams;\r\n\r\n    address owner;\r\n\r\n    /*** Modifiers ***/\r\n    /**\r\n     * @dev Throws if the caller is not the sender of the recipient of the stream.\r\n     */\r\n    modifier onlySenderOrRecipient(uint256 streamId) {\r\n        require(\r\n            msg.sender == streams[streamId].sender ||\r\n                msg.sender == streams[streamId].recipient,\r\n            \"caller is not the sender or the recipient of the stream\"\r\n        );\r\n        _;\r\n    }\r\n\r\n    /**\r\n     * @dev Throws if the provided id does not point to a valid stream.\r\n     */\r\n    modifier streamExists(uint256 streamId) {\r\n        require(streams[streamId].isEntity, \"stream does not exist\");\r\n        _;\r\n    }\r\n\r\n    /**\r\n     * @dev Throws if the provided id does not point to a valid stream.\r\n     */\r\n    modifier onlyOwner() {\r\n        require(owner == msg.sender, \"stream does not exist\");\r\n        _;\r\n    }\r\n\r\n    /*** Contract Logic Starts Here */\r\n\r\n    constructor() public {\r\n        reportCount = 0;\r\n        nextStreamId = 1;\r\n        owner = msg.sender;\r\n    }\r\n\r\n    /*** View Functions ***/\r\n\r\n    /**\r\n     * @notice Returns the compounding stream with all its properties.\r\n     * @dev Throws if the id does not point to a valid stream.\r\n     * @param streamId The id of the stream to query.\r\n     * @return The stream object.\r\n     */\r\n    function getStream(uint256 streamId)\r\n        external\r\n        view\r\n        streamExists(streamId)\r\n        returns (\r\n            address sender,\r\n            address recipient,\r\n            uint256 deposit,\r\n            address tokenAddress,\r\n            uint256 startTime,\r\n            uint256 stopTime,\r\n            uint256 remainingBalance,\r\n            uint256 ratePerSecond\r\n        )\r\n    {\r\n        sender = streams[streamId].sender;\r\n        recipient = streams[streamId].recipient;\r\n        deposit = streams[streamId].deposit;\r\n        tokenAddress = streams[streamId].tokenAddress;\r\n        startTime = streams[streamId].startTime;\r\n        stopTime = streams[streamId].stopTime;\r\n        remainingBalance = streams[streamId].remainingBalance;\r\n        ratePerSecond = streams[streamId].ratePerSecond;\r\n    }\r\n\r\n    /**\r\n     * @notice Returns either the delta in seconds between `block.timestamp` and `startTime` or\r\n     *  between `stopTime` and `startTime, whichever is smaller. If `block.timestamp` is before\r\n     *  `startTime`, it returns 0.\r\n     * @dev Throws if the id does not point to a valid stream.\r\n     * @param streamId The id of the stream for which to query the delta.\r\n     * @return The time delta in seconds.\r\n     */\r\n    function deltaOf(uint256 streamId)\r\n        public\r\n        view\r\n        streamExists(streamId)\r\n        returns (uint256 delta)\r\n    {\r\n        Types.Stream memory stream = streams[streamId];\r\n        if (block.timestamp <= stream.startTime) return 0;\r\n        if (block.timestamp < stream.stopTime)\r\n            return block.timestamp - stream.startTime;\r\n        return stream.stopTime - stream.startTime;\r\n    }\r\n\r\n    function deltaOfReverseStream(uint256 streamId)\r\n        public\r\n        view\r\n        streamExists(streamId)\r\n        returns (uint256 delta)\r\n    {\r\n        Types.Stream memory stream = streams[streamId];\r\n        if (block.timestamp < stream.stopTime)\r\n            return block.timestamp - stream.startTime;\r\n        return stream.stopTime - stream.startTime;\r\n    }\r\n\r\n    struct BalanceOfLocalVars {\r\n        MathError mathErr;\r\n        uint256 recipientBalance;\r\n        uint256 withdrawalAmount;\r\n        uint256 senderBalance;\r\n    }\r\n\r\n    /**\r\n     * @notice Returns the available funds for the given stream id and address.\r\n     * @dev Throws if the id does not point to a valid stream.\r\n     * @param streamId The id of the stream for which to query the balance.\r\n     * @return The total funds allocated to `receiver` as uint256.\r\n     */\r\n    function balanceOfReverseStream(uint256 streamId)\r\n        public\r\n        view\r\n        streamExists(streamId)\r\n        returns (uint256 balance)\r\n    {\r\n        Types.Stream memory stream = streams[streamId];\r\n        BalanceOfLocalVars memory vars;\r\n\r\n        uint256 delta = deltaOfReverseStream(streamId);\r\n        (vars.mathErr, vars.recipientBalance) = mulUInt(\r\n            delta,\r\n            stream.ratePerSecond\r\n        );\r\n        require(\r\n            vars.mathErr == MathError.NO_ERROR,\r\n            \"recipient balance calculation error\"\r\n        );\r\n\r\n        /*\r\n         * If the stream `balance` does not equal `deposit`, it means there have been withdrawals.\r\n         * We have to subtract the total amount withdrawn from the amount of money that has been\r\n         * streamed until now.\r\n         */\r\n        if (stream.deposit > stream.remainingBalance) {\r\n            (vars.mathErr, vars.withdrawalAmount) = subUInt(\r\n                stream.deposit,\r\n                stream.remainingBalance\r\n            );\r\n\r\n            assert(vars.mathErr == MathError.NO_ERROR);\r\n            (vars.mathErr, vars.recipientBalance) = subUInt(\r\n                vars.recipientBalance,\r\n                vars.withdrawalAmount\r\n            );\r\n            /* `withdrawalAmount` cannot and should not be bigger than `recipientBalance`. */\r\n            assert(vars.mathErr == MathError.NO_ERROR);\r\n        }\r\n\r\n        return vars.recipientBalance;\r\n    }\r\n\r\n    /**\r\n     * @notice Returns the available funds for the given stream id and address.\r\n     * @dev Throws if the id does not point to a valid stream.\r\n     * @param streamId The id of the stream for which to query the balance.\r\n     * @param who The address for which to query the balance.\r\n     * @return The total funds allocated to `who` as uint256.\r\n     */\r\n    function balanceOf(uint256 streamId, address who)\r\n        public\r\n        view\r\n        streamExists(streamId)\r\n        returns (uint256 balance)\r\n    {\r\n        Types.Stream memory stream = streams[streamId];\r\n        BalanceOfLocalVars memory vars;\r\n\r\n        uint256 delta = deltaOf(streamId);\r\n        (vars.mathErr, vars.recipientBalance) = mulUInt(\r\n            delta,\r\n            stream.ratePerSecond\r\n        );\r\n        require(\r\n            vars.mathErr == MathError.NO_ERROR,\r\n            \"recipient balance calculation error\"\r\n        );\r\n\r\n        /*\r\n         * If the stream `balance` does not equal `deposit`, it means there have been withdrawals.\r\n         * We have to subtract the total amount withdrawn from the amount of money that has been\r\n         * streamed until now.\r\n         */\r\n        if (stream.deposit > stream.remainingBalance) {\r\n            (vars.mathErr, vars.withdrawalAmount) = subUInt(\r\n                stream.deposit,\r\n                stream.remainingBalance\r\n            );\r\n            assert(vars.mathErr == MathError.NO_ERROR);\r\n            (vars.mathErr, vars.recipientBalance) = subUInt(\r\n                vars.recipientBalance,\r\n                vars.withdrawalAmount\r\n            );\r\n            /* `withdrawalAmount` cannot and should not be bigger than `recipientBalance`. */\r\n            assert(vars.mathErr == MathError.NO_ERROR);\r\n        }\r\n\r\n        if (who == stream.recipient) return vars.recipientBalance;\r\n        if (who == stream.sender) {\r\n            (vars.mathErr, vars.senderBalance) = subUInt(\r\n                stream.remainingBalance,\r\n                vars.recipientBalance\r\n            );\r\n            /* `recipientBalance` cannot and should not be bigger than `remainingBalance`. */\r\n            assert(vars.mathErr == MathError.NO_ERROR);\r\n            return vars.senderBalance;\r\n        }\r\n        return 0;\r\n    }\r\n\r\n    /*** Public Effects & Interactions Functions ***/\r\n\r\n    struct CreateStreamLocalVars {\r\n        MathError mathErr;\r\n        uint256 duration;\r\n        uint256 ratePerSecond;\r\n    }\r\n\r\n    /**\r\n     * @notice Creates a new reverse stream stream funded by `msg.sender` and paid towards `msg.sender`.\r\n     * @dev Throws if paused.\r\n     *  Throws if the deposit is 0.\r\n     *  Throws if the start time is before `block.timestamp`.\r\n     *  Throws if the stop time is before the start time.\r\n     *  Throws if the duration calculation has a math error.\r\n     *  Throws if the deposit is smaller than the duration.\r\n     *  Throws if the deposit is not a multiple of the duration.\r\n     *  Throws if the rate calculation has a math error.\r\n     *  Throws if the next stream id calculation has a math error.\r\n     *  Throws if the contract is not allowed to transfer enough tokens.\r\n     *  Throws if there is a token transfer failure.\r\n     * @param deposit The amount of money to be streamed.\r\n     * @param tokenAddress The ERC20 token to use as streaming currency.\r\n     * @param stopTime The unix timestamp for when the stream stops.\r\n     * @return The uint256 id of the newly created stream.\r\n     */\r\n    function createReverseStream(\r\n        string memory content,\r\n        uint256 deposit,\r\n        address tokenAddress,\r\n        uint256 stopTime\r\n    ) public returns (uint256) {\r\n        reportEvent(content);\r\n\r\n        createStream(\r\n            msg.sender,\r\n            deposit,\r\n            tokenAddress,\r\n            block.timestamp,\r\n            stopTime\r\n        );\r\n    }\r\n\r\n    /**\r\n     * @notice Creates a new  stream stream funded by `msg.sender` and paid towards `msg.sender`.\r\n     * @dev Throws if paused.\r\n     *  Throws if the deposit is 0.\r\n     *  Throws if the start time is before `block.timestamp`.\r\n     *  Throws if the stop time is before the start time.\r\n     *  Throws if the duration calculation has a math error.\r\n     *  Throws if the deposit is smaller than the duration.\r\n     *  Throws if the deposit is not a multiple of the duration.\r\n     *  Throws if the rate calculation has a math error.\r\n     *  Throws if the next stream id calculation has a math error.\r\n     *  Throws if the contract is not allowed to transfer enough tokens.\r\n     *  Throws if there is a token transfer failure.\r\n     * @param recipient The address towards which the money is streamed.\r\n     * @param deposit The amount of money to be streamed.\r\n     * @param tokenAddress The ERC20 token to use as streaming currency.\r\n     * @param startTime The unix timestamp for when the stream starts.\r\n     * @param stopTime The unix timestamp for when the stream stops.\r\n     * @return The uint256 id of the newly created stream.\r\n     */\r\n    function createStream(\r\n        address recipient,\r\n        uint256 deposit,\r\n        address tokenAddress,\r\n        uint256 startTime,\r\n        uint256 stopTime\r\n    ) public returns (uint256) {\r\n        // require(recipient != address(0x00), \"stream to the zero address\");\r\n        // require(recipient != address(this), \"stream to the contract itself\");\r\n        // require(recipient != msg.sender, \"stream to the caller\");\r\n        require(deposit > 0, \"deposit is zero\");\r\n        // require(\r\n        //     startTime >= block.timestamp,\r\n        //     \"start time before block.timestamp\"\r\n        // );\r\n\r\n        // require(stopTime > startTime, \"stop time before the start time\");\r\n\r\n        CreateStreamLocalVars memory vars;\r\n        (vars.mathErr, vars.duration) = subUInt(stopTime, startTime);\r\n        /* `subUInt` can only return MathError.INTEGER_UNDERFLOW but we know `stopTime` is higher than `startTime`. */\r\n        assert(vars.mathErr == MathError.NO_ERROR);\r\n\r\n        /* Without this, the rate per second would be zero. */\r\n        require(deposit >= vars.duration, \"deposit smaller than time delta\");\r\n\r\n        /* This condition avoids dealing with remainders */\r\n        // require(\r\n        //     deposit % vars.duration == 0,\r\n        //     \"deposit not multiple of time delta\"\r\n        // );\r\n\r\n        (vars.mathErr, vars.ratePerSecond) = divUInt(deposit, vars.duration);\r\n        /* `divUInt` can only return MathError.DIVISION_BY_ZERO but we know `duration` is not zero. */\r\n        assert(vars.mathErr == MathError.NO_ERROR);\r\n\r\n        /* Create and store the stream object. */\r\n        uint256 streamId = nextStreamId;\r\n        streams[streamId] = Types.Stream({\r\n            remainingBalance: deposit,\r\n            deposit: deposit,\r\n            isEntity: true,\r\n            ratePerSecond: vars.ratePerSecond,\r\n            recipient: recipient,\r\n            sender: msg.sender,\r\n            startTime: startTime,\r\n            stopTime: stopTime,\r\n            tokenAddress: tokenAddress\r\n        });\r\n\r\n        /* Increment the next stream id. */\r\n        (vars.mathErr, nextStreamId) = addUInt(nextStreamId, uint256(1));\r\n        require(\r\n            vars.mathErr == MathError.NO_ERROR,\r\n            \"next stream id calculation error\"\r\n        );\r\n\r\n        require(\r\n            ERC20Burnable(tokenAddress).transferFrom(\r\n                msg.sender,\r\n                address(this),\r\n                deposit\r\n            ),\r\n            \"token transfer failure\"\r\n        );\r\n        emit CreateStream(\r\n            streamId,\r\n            msg.sender,\r\n            recipient,\r\n            deposit,\r\n            tokenAddress,\r\n            startTime,\r\n            stopTime\r\n        );\r\n        return streamId;\r\n    }\r\n\r\n    struct WithdrawFromStreamLocalVars {\r\n        MathError mathErr;\r\n    }\r\n\r\n    /**\r\n     * @notice Withdraws from the contract to the recipient's account.\r\n     * @dev Throws if the id does not point to a valid stream.\r\n     *  Throws if the caller is not the sender or the recipient of the stream.\r\n     *  Throws if the amount exceeds the available balance.\r\n     *  Throws if there is a token transfer failure.\r\n     * @param streamId The id of the stream to withdraw tokens from.\r\n     * @param amount The amount of tokens to withdraw.\r\n     * @return bool true=success, otherwise false.\r\n     */\r\n    function withdrawFromStream(uint256 streamId, uint256 amount)\r\n        external\r\n        nonReentrant\r\n        streamExists(streamId)\r\n        onlySenderOrRecipient(streamId)\r\n        returns (bool)\r\n    {\r\n        require(amount > 0, \"amount is zero\");\r\n        Types.Stream memory stream = streams[streamId];\r\n        WithdrawFromStreamLocalVars memory vars;\r\n\r\n        uint256 balance = balanceOf(streamId, stream.recipient);\r\n        require(balance >= amount, \"amount exceeds the available balance\");\r\n\r\n        (vars.mathErr, streams[streamId].remainingBalance) = subUInt(\r\n            stream.remainingBalance,\r\n            amount\r\n        );\r\n        /**\r\n         * `subUInt` can only return MathError.INTEGER_UNDERFLOW but we know that `remainingBalance` is at least\r\n         * as big as `amount`.\r\n         */\r\n        assert(vars.mathErr == MathError.NO_ERROR);\r\n\r\n        if (streams[streamId].remainingBalance == 0) delete streams[streamId];\r\n\r\n        require(\r\n            ERC20Burnable(stream.tokenAddress).transfer(\r\n                stream.recipient,\r\n                amount\r\n            ),\r\n            \"token transfer failure\"\r\n        );\r\n        emit WithdrawFromStream(streamId, stream.recipient, amount);\r\n    }\r\n\r\n    /**\r\n     * @notice Cancels the stream and transfers the tokens back on a pro rata basis.\r\n     * @dev Throws if the id does not point to a valid stream.\r\n     *  Throws if the caller is not the sender or the recipient of the stream.\r\n     *  Throws if there is a token transfer failure.\r\n     * @param streamId The id of the stream to cancel.\r\n     * @return bool true=success, otherwise false.\r\n     */\r\n    function cancelStream(uint256 streamId)\r\n        external\r\n        nonReentrant\r\n        streamExists(streamId)\r\n        onlyOwner()\r\n        returns (bool)\r\n    {\r\n        Types.Stream memory stream = streams[streamId];\r\n        uint256 senderBalance = balanceOf(streamId, stream.sender);\r\n        uint256 recipientBalance = balanceOf(streamId, stream.recipient);\r\n\r\n        delete streams[streamId];\r\n\r\n        ERC20Burnable token = ERC20Burnable(stream.tokenAddress);\r\n        if (recipientBalance > 0)\r\n            require(\r\n                token.transfer(stream.recipient, recipientBalance),\r\n                \"recipient token transfer failure\"\r\n            );\r\n        if (senderBalance > 0)\r\n            require(\r\n                token.transfer(stream.sender, senderBalance),\r\n                \"sender token transfer failure\"\r\n            );\r\n\r\n        emit CancelStream(\r\n            streamId,\r\n            stream.sender,\r\n            stream.recipient,\r\n            senderBalance,\r\n            recipientBalance\r\n        );\r\n    }\r\n\r\n    // TODO make it permissioned to only the receiver address\r\n    function Close(uint256 streamId)\r\n        external\r\n        nonReentrant\r\n        streamExists(streamId)\r\n    {\r\n        uint256 remainingBalance = balanceOfReverseStream(streamId);\r\n        Types.Stream memory stream = streams[streamId];\r\n        delete streams[streamId];\r\n        ERC20Burnable token = ERC20Burnable(stream.tokenAddress);\r\n\r\n        token.burn(remainingBalance);\r\n    }\r\n    \r\n    function reportEvent(string memory _content) public {\r\n        reportCount++;\r\n        Report memory report = Report(nextStreamId, reportCount, _content);\r\n        reports[msg.sender].push(\r\n            report\r\n        );\r\n\r\n        allReports.push(\r\n            report\r\n        );\r\n\r\n        emit Reported(msg.sender, reportCount);\r\n    }\r\n\r\n    function getUserReports(address user) public view returns (Report[] memory){\r\n        return reports[user];\r\n    }\r\n\r\n    function getAllReports() public view returns (Report[] memory){\r\n        return allReports;\r\n    }\r\n}",
  "sourcePath": "D:/Documents/hac/blockchain/contracts/Reports.sol",
  "compiler": {
    "name": "solc",
    "version": "0.5.11+commit.c082d0b4.Emscripten.clang"
  },
  "schemaVersion": "3.2.5",
  "updatedAt": "2020-11-19T23:16:58.769Z",
  "networkType": "ethereum",
  "devdoc": {
    "methods": {
      "balanceOf(uint256,address)": {
        "details": "Throws if the id does not point to a valid stream.\r",
        "params": {
          "streamId": "The id of the stream for which to query the balance.\r",
          "who": "The address for which to query the balance.\r"
        },
        "return": "The total funds allocated to `who` as uint256.\r"
      },
      "balanceOfReverseStream(uint256)": {
        "details": "Throws if the id does not point to a valid stream.\r",
        "params": {
          "streamId": "The id of the stream for which to query the balance.\r"
        },
        "return": "The total funds allocated to `receiver` as uint256.\r"
      },
      "cancelStream(uint256)": {
        "details": "Throws if the id does not point to a valid stream.\r Throws if the caller is not the sender or the recipient of the stream.\r Throws if there is a token transfer failure.\r",
        "params": {
          "streamId": "The id of the stream to cancel.\r"
        },
        "return": "bool true=success, otherwise false.\r"
      },
      "createReverseStream(string,uint256,address,uint256)": {
        "details": "Throws if paused.\r Throws if the deposit is 0.\r Throws if the start time is before `block.timestamp`.\r Throws if the stop time is before the start time.\r Throws if the duration calculation has a math error.\r Throws if the deposit is smaller than the duration.\r Throws if the deposit is not a multiple of the duration.\r Throws if the rate calculation has a math error.\r Throws if the next stream id calculation has a math error.\r Throws if the contract is not allowed to transfer enough tokens.\r Throws if there is a token transfer failure.\r",
        "params": {
          "deposit": "The amount of money to be streamed.\r",
          "stopTime": "The unix timestamp for when the stream stops.\r",
          "tokenAddress": "The ERC20 token to use as streaming currency.\r"
        },
        "return": "The uint256 id of the newly created stream.\r"
      },
      "createStream(address,uint256,address,uint256,uint256)": {
        "details": "Throws if paused.\r Throws if the deposit is 0.\r Throws if the start time is before `block.timestamp`.\r Throws if the stop time is before the start time.\r Throws if the duration calculation has a math error.\r Throws if the deposit is smaller than the duration.\r Throws if the deposit is not a multiple of the duration.\r Throws if the rate calculation has a math error.\r Throws if the next stream id calculation has a math error.\r Throws if the contract is not allowed to transfer enough tokens.\r Throws if there is a token transfer failure.\r",
        "params": {
          "deposit": "The amount of money to be streamed.\r",
          "recipient": "The address towards which the money is streamed.\r",
          "startTime": "The unix timestamp for when the stream starts.\r",
          "stopTime": "The unix timestamp for when the stream stops.\r",
          "tokenAddress": "The ERC20 token to use as streaming currency.\r"
        },
        "return": "The uint256 id of the newly created stream.\r"
      },
      "deltaOf(uint256)": {
        "details": "Throws if the id does not point to a valid stream.\r",
        "params": {
          "streamId": "The id of the stream for which to query the delta.\r"
        },
        "return": "The time delta in seconds.\r"
      },
      "getStream(uint256)": {
        "details": "Throws if the id does not point to a valid stream.\r",
        "params": {
          "streamId": "The id of the stream to query.\r"
        },
        "return": "The stream object.\r"
      },
      "withdrawFromStream(uint256,uint256)": {
        "details": "Throws if the id does not point to a valid stream.\r Throws if the caller is not the sender or the recipient of the stream.\r Throws if the amount exceeds the available balance.\r Throws if there is a token transfer failure.\r",
        "params": {
          "amount": "The amount of tokens to withdraw.\r",
          "streamId": "The id of the stream to withdraw tokens from.\r"
        },
        "return": "bool true=success, otherwise false.\r"
      }
    }
  },
  "userdoc": {
    "methods": {
      "balanceOf(uint256,address)": {
        "notice": "Returns the available funds for the given stream id and address.\r"
      },
      "balanceOfReverseStream(uint256)": {
        "notice": "Returns the available funds for the given stream id and address.\r"
      },
      "cancelStream(uint256)": {
        "notice": "Cancels the stream and transfers the tokens back on a pro rata basis.\r"
      },
      "constructor": "* Contract Logic Starts Here ",
      "createReverseStream(string,uint256,address,uint256)": {
        "notice": "Creates a new reverse stream stream funded by `msg.sender` and paid towards `msg.sender`.\r"
      },
      "createStream(address,uint256,address,uint256,uint256)": {
        "notice": "Creates a new  stream stream funded by `msg.sender` and paid towards `msg.sender`.\r"
      },
      "deltaOf(uint256)": {
        "notice": "Returns either the delta in seconds between `block.timestamp` and `startTime` or\r between `stopTime` and `startTime, whichever is smaller. If `block.timestamp` is before\r `startTime`, it returns 0.\r"
      },
      "getStream(uint256)": {
        "notice": "Returns the compounding stream with all its properties.\r"
      },
      "withdrawFromStream(uint256,uint256)": {
        "notice": "Withdraws from the contract to the recipient's account.\r"
      }
    }
  }
}