{
  "contractName": "Reports",
  "abi": [
    {
      "constant": true,
      "inputs": [],
      "name": "nextStreamId",
      "outputs": [
        {
          "internalType": "uint256",
          "name": "",
          "type": "uint256"
        }
      ],
      "payable": false,
      "stateMutability": "view",
      "type": "function"
    },
    {
      "constant": true,
      "inputs": [
        {
          "internalType": "address",
          "name": "",
          "type": "address"
        },
        {
          "internalType": "uint256",
          "name": "",
          "type": "uint256"
        }
      ],
      "name": "reports",
      "outputs": [
        {
          "internalType": "uint256",
          "name": "id",
          "type": "uint256"
        },
        {
          "internalType": "string",
          "name": "content",
          "type": "string"
        }
      ],
      "payable": false,
      "stateMutability": "view",
      "type": "function"
    },
    {
      "constant": true,
      "inputs": [],
      "name": "fee",
      "outputs": [
        {
          "internalType": "uint256",
          "name": "mantissa",
          "type": "uint256"
        }
      ],
      "payable": false,
      "stateMutability": "view",
      "type": "function"
    },
    {
      "inputs": [],
      "payable": false,
      "stateMutability": "nonpayable",
      "type": "constructor"
    },
    {
      "anonymous": false,
      "inputs": [
        {
          "indexed": false,
          "internalType": "address",
          "name": "by",
          "type": "address"
        },
        {
          "indexed": false,
          "internalType": "uint256",
          "name": "id",
          "type": "uint256"
        }
      ],
      "name": "Reported",
      "type": "event"
    },
    {
      "anonymous": false,
      "inputs": [
        {
          "indexed": true,
          "internalType": "uint256",
          "name": "streamId",
          "type": "uint256"
        },
        {
          "indexed": true,
          "internalType": "address",
          "name": "sender",
          "type": "address"
        },
        {
          "indexed": true,
          "internalType": "address",
          "name": "recipient",
          "type": "address"
        },
        {
          "indexed": false,
          "internalType": "uint256",
          "name": "deposit",
          "type": "uint256"
        },
        {
          "indexed": false,
          "internalType": "address",
          "name": "tokenAddress",
          "type": "address"
        },
        {
          "indexed": false,
          "internalType": "uint256",
          "name": "startTime",
          "type": "uint256"
        },
        {
          "indexed": false,
          "internalType": "uint256",
          "name": "stopTime",
          "type": "uint256"
        }
      ],
      "name": "CreateStream",
      "type": "event"
    },
    {
      "anonymous": false,
      "inputs": [
        {
          "indexed": true,
          "internalType": "uint256",
          "name": "streamId",
          "type": "uint256"
        },
        {
          "indexed": true,
          "internalType": "address",
          "name": "recipient",
          "type": "address"
        },
        {
          "indexed": false,
          "internalType": "uint256",
          "name": "amount",
          "type": "uint256"
        }
      ],
      "name": "WithdrawFromStream",
      "type": "event"
    },
    {
      "anonymous": false,
      "inputs": [
        {
          "indexed": true,
          "internalType": "uint256",
          "name": "streamId",
          "type": "uint256"
        },
        {
          "indexed": true,
          "internalType": "address",
          "name": "sender",
          "type": "address"
        },
        {
          "indexed": true,
          "internalType": "address",
          "name": "recipient",
          "type": "address"
        },
        {
          "indexed": false,
          "internalType": "uint256",
          "name": "senderBalance",
          "type": "uint256"
        },
        {
          "indexed": false,
          "internalType": "uint256",
          "name": "recipientBalance",
          "type": "uint256"
        }
      ],
      "name": "CancelStream",
      "type": "event"
    },
    {
      "constant": true,
      "inputs": [
        {
          "internalType": "uint256",
          "name": "streamId",
          "type": "uint256"
        }
      ],
      "name": "getStream",
      "outputs": [
        {
          "internalType": "address",
          "name": "sender",
          "type": "address"
        },
        {
          "internalType": "address",
          "name": "recipient",
          "type": "address"
        },
        {
          "internalType": "uint256",
          "name": "deposit",
          "type": "uint256"
        },
        {
          "internalType": "address",
          "name": "tokenAddress",
          "type": "address"
        },
        {
          "internalType": "uint256",
          "name": "startTime",
          "type": "uint256"
        },
        {
          "internalType": "uint256",
          "name": "stopTime",
          "type": "uint256"
        },
        {
          "internalType": "uint256",
          "name": "remainingBalance",
          "type": "uint256"
        },
        {
          "internalType": "uint256",
          "name": "ratePerSecond",
          "type": "uint256"
        }
      ],
      "payable": false,
      "stateMutability": "view",
      "type": "function"
    },
    {
      "constant": true,
      "inputs": [
        {
          "internalType": "uint256",
          "name": "streamId",
          "type": "uint256"
        }
      ],
      "name": "deltaOf",
      "outputs": [
        {
          "internalType": "uint256",
          "name": "delta",
          "type": "uint256"
        }
      ],
      "payable": false,
      "stateMutability": "view",
      "type": "function"
    },
    {
      "constant": true,
      "inputs": [
        {
          "internalType": "uint256",
          "name": "streamId",
          "type": "uint256"
        }
      ],
      "name": "deltaOfReverseStream",
      "outputs": [
        {
          "internalType": "uint256",
          "name": "delta",
          "type": "uint256"
        }
      ],
      "payable": false,
      "stateMutability": "view",
      "type": "function"
    },
    {
      "constant": true,
      "inputs": [
        {
          "internalType": "uint256",
          "name": "streamId",
          "type": "uint256"
        }
      ],
      "name": "balanceOfReverseStream",
      "outputs": [
        {
          "internalType": "uint256",
          "name": "balance",
          "type": "uint256"
        }
      ],
      "payable": false,
      "stateMutability": "view",
      "type": "function"
    },
    {
      "constant": true,
      "inputs": [
        {
          "internalType": "uint256",
          "name": "streamId",
          "type": "uint256"
        },
        {
          "internalType": "address",
          "name": "who",
          "type": "address"
        }
      ],
      "name": "balanceOf",
      "outputs": [
        {
          "internalType": "uint256",
          "name": "balance",
          "type": "uint256"
        }
      ],
      "payable": false,
      "stateMutability": "view",
      "type": "function"
    },
    {
      "constant": false,
      "inputs": [
        {
          "internalType": "uint256",
          "name": "deposit",
          "type": "uint256"
        },
        {
          "internalType": "address",
          "name": "tokenAddress",
          "type": "address"
        },
        {
          "internalType": "uint256",
          "name": "stopTime",
          "type": "uint256"
        }
      ],
      "name": "createReverseStream",
      "outputs": [
        {
          "internalType": "uint256",
          "name": "",
          "type": "uint256"
        }
      ],
      "payable": false,
      "stateMutability": "nonpayable",
      "type": "function"
    },
    {
      "constant": false,
      "inputs": [
        {
          "internalType": "address",
          "name": "recipient",
          "type": "address"
        },
        {
          "internalType": "uint256",
          "name": "deposit",
          "type": "uint256"
        },
        {
          "internalType": "address",
          "name": "tokenAddress",
          "type": "address"
        },
        {
          "internalType": "uint256",
          "name": "startTime",
          "type": "uint256"
        },
        {
          "internalType": "uint256",
          "name": "stopTime",
          "type": "uint256"
        }
      ],
      "name": "createStream",
      "outputs": [
        {
          "internalType": "uint256",
          "name": "",
          "type": "uint256"
        }
      ],
      "payable": false,
      "stateMutability": "nonpayable",
      "type": "function"
    },
    {
      "constant": false,
      "inputs": [
        {
          "internalType": "uint256",
          "name": "streamId",
          "type": "uint256"
        },
        {
          "internalType": "uint256",
          "name": "amount",
          "type": "uint256"
        }
      ],
      "name": "withdrawFromStream",
      "outputs": [
        {
          "internalType": "bool",
          "name": "",
          "type": "bool"
        }
      ],
      "payable": false,
      "stateMutability": "nonpayable",
      "type": "function"
    },
    {
      "constant": false,
      "inputs": [
        {
          "internalType": "uint256",
          "name": "streamId",
          "type": "uint256"
        }
      ],
      "name": "cancelStream",
      "outputs": [
        {
          "internalType": "bool",
          "name": "",
          "type": "bool"
        }
      ],
      "payable": false,
      "stateMutability": "nonpayable",
      "type": "function"
    },
    {
      "constant": false,
      "inputs": [
        {
          "internalType": "uint256",
          "name": "streamId",
          "type": "uint256"
        }
      ],
      "name": "Close",
      "outputs": [],
      "payable": false,
      "stateMutability": "nonpayable",
      "type": "function"
    },
    {
      "constant": false,
      "inputs": [
        {
          "internalType": "string",
          "name": "_content",
          "type": "string"
        }
      ],
      "name": "reportEvent",
      "outputs": [],
      "payable": false,
      "stateMutability": "nonpayable",
      "type": "function"
    },
    {
      "constant": true,
      "inputs": [],
      "name": "getReports",
      "outputs": [
        {
          "components": [
            {
              "internalType": "uint256",
              "name": "id",
              "type": "uint256"
            },
            {
              "internalType": "string",
              "name": "content",
              "type": "string"
            }
          ],
          "internalType": "struct Reports.Report[]",
          "name": "",
          "type": "tuple[]"
        }
      ],
      "payable": false,
      "stateMutability": "view",
      "type": "function"
    }
  ],
  "bytecode": "0x608060405234801561001057600080fd5b5060016000806101000a81548160ff02191690831515021790555060018081905550600160058190555033600760006101000a81548173ffffffffffffffffffffffffffffffffffffffff021916908373ffffffffffffffffffffffffffffffffffffffff1602179055506139408061008a6000396000f3fe608060405234801561001057600080fd5b50600436106100f55760003560e01c8063894e9a0d11610097578063bad02c7e11610066578063bad02c7e146102d9578063bf67515a1461030a578063cc1b4bf614610326578063ddca3f4314610356576100f5565b8063894e9a0d14610224578063a3c86daf1461025b578063a5d24f1114610279578063a82ccd4d146102a9576100f5565b80633656eec2116100d35780633656eec2146101645780636db9241b146101945780636edf70c1146101c45780637a9b2c6c146101f4576100f5565b8063103aa23c146100fa5780631e99d5691461012a5780632a2238ff14610148575b600080fd5b610114600480360361010f9190810190612e2b565b610374565b604051610121919061366f565b60405180910390f35b61013261038b565b60405161013f919061366f565b60405180910390f35b610162600480360361015d9190810190612d85565b610391565b005b61017e60048036036101799190810190612def565b61048c565b60405161018b919061366f565b60405180910390f35b6101ae60048036036101a99190810190612dc6565b6108da565b6040516101bb91906134d4565b60405180910390f35b6101de60048036036101d99190810190612dc6565b610eec565b6040516101eb919061366f565b60405180910390f35b61020e60048036036102099190810190612e7a565b61124f565b60405161021b91906134d4565b60405180910390f35b61023e60048036036102399190810190612dc6565b6118e8565b60405161025298979695949392919061340b565b60405180910390f35b610263611a8c565b60405161027091906134b2565b60405180910390f35b610293600480360361028e9190810190612dc6565b611bd4565b6040516102a0919061366f565b60405180910390f35b6102c360048036036102be9190810190612dc6565b611de2565b6040516102d0919061366f565b60405180910390f35b6102f360048036036102ee9190810190612ca9565b612005565b6040516103019291906136cf565b60405180910390f35b610324600480360361031f9190810190612dc6565b6120db565b005b610340600480360361033b9190810190612ce5565b612488565b60405161034d919061366f565b60405180910390f35b61035e612974565b60405161036b919061366f565b60405180910390f35b60006103833385854286612488565b509392505050565b60055481565b600160008154809291906001019190505550600260003373ffffffffffffffffffffffffffffffffffffffff1673ffffffffffffffffffffffffffffffffffffffff16815260200190815260200160002060405180604001604052806001548152602001838152509080600181540180825580915050906001820390600052602060002090600202016000909192909190915060008201518160000155602082015181600101908051906020019061044a929190612a64565b505050507f13ae4ea8eb28cf5104b119acecdbc7bfcab76402a5caca38c9a5810629876aac336001546040516104819291906133e2565b60405180910390a150565b6000826006600082815260200190815260200160002060070160149054906101000a900460ff166104f2576040517f08c379a00000000000000000000000000000000000000000000000000000000081526004016104e99061352f565b60405180910390fd5b6104fa612ae4565b600660008681526020019081526020016000206040518061012001604052908160008201548152602001600182015481526020016002820154815260200160038201548152602001600482015481526020016005820160009054906101000a900473ffffffffffffffffffffffffffffffffffffffff1673ffffffffffffffffffffffffffffffffffffffff1673ffffffffffffffffffffffffffffffffffffffff1681526020016006820160009054906101000a900473ffffffffffffffffffffffffffffffffffffffff1673ffffffffffffffffffffffffffffffffffffffff1673ffffffffffffffffffffffffffffffffffffffff1681526020016007820160009054906101000a900473ffffffffffffffffffffffffffffffffffffffff1673ffffffffffffffffffffffffffffffffffffffff1673ffffffffffffffffffffffffffffffffffffffff1681526020016007820160149054906101000a900460ff1615151515815250509050610672612b74565b600061067d87611de2565b905061068d818460200151612980565b8360000184602001828152508260038111156106a557fe5b60038111156106b057fe5b8152505050600060038111156106c257fe5b826000015160038111156106d257fe5b14610712576040517f08c379a0000000000000000000000000000000000000000000000000000000008152600401610709906135cf565b60405180910390fd5b8260400151836000015111156107df57610734836000015184604001516129d3565b83600001846040018281525082600381111561074c57fe5b600381111561075757fe5b81525050506000600381111561076957fe5b8260000151600381111561077957fe5b1461078057fe5b610792826020015183604001516129d3565b8360000184602001828152508260038111156107aa57fe5b60038111156107b557fe5b8152505050600060038111156107c757fe5b826000015160038111156107d757fe5b146107de57fe5b5b8260a0015173ffffffffffffffffffffffffffffffffffffffff168673ffffffffffffffffffffffffffffffffffffffff16141561082657816020015194505050506108d3565b8260c0015173ffffffffffffffffffffffffffffffffffffffff168673ffffffffffffffffffffffffffffffffffffffff1614156108cb57610870836040015183602001516129d3565b83600001846060018281525082600381111561088857fe5b600381111561089357fe5b8152505050600060038111156108a557fe5b826000015160038111156108b557fe5b146108bc57fe5b816060015194505050506108d3565b600094505050505b5092915050565b60008060009054906101000a900460ff1661092a576040517f08c379a00000000000000000000000000000000000000000000000000000000081526004016109219061362f565b60405180910390fd5b60008060006101000a81548160ff021916908315150217905550816006600082815260200190815260200160002060070160149054906101000a900460ff166109a8576040517f08c379a000000000000000000000000000000000000000000000000000000000815260040161099f9061352f565b60405180910390fd5b3373ffffffffffffffffffffffffffffffffffffffff16600760009054906101000a900473ffffffffffffffffffffffffffffffffffffffff1673ffffffffffffffffffffffffffffffffffffffff1614610a38576040517f08c379a0000000000000000000000000000000000000000000000000000000008152600401610a2f9061352f565b60405180910390fd5b610a40612ae4565b600660008581526020019081526020016000206040518061012001604052908160008201548152602001600182015481526020016002820154815260200160038201548152602001600482015481526020016005820160009054906101000a900473ffffffffffffffffffffffffffffffffffffffff1673ffffffffffffffffffffffffffffffffffffffff1673ffffffffffffffffffffffffffffffffffffffff1681526020016006820160009054906101000a900473ffffffffffffffffffffffffffffffffffffffff1673ffffffffffffffffffffffffffffffffffffffff1673ffffffffffffffffffffffffffffffffffffffff1681526020016007820160009054906101000a900473ffffffffffffffffffffffffffffffffffffffff1673ffffffffffffffffffffffffffffffffffffffff1673ffffffffffffffffffffffffffffffffffffffff1681526020016007820160149054906101000a900460ff16151515158152505090506000610bc0858360c0015161048c565b90506000610bd2868460a0015161048c565b90506006600087815260200190815260200160002060008082016000905560018201600090556002820160009055600382016000905560048201600090556005820160006101000a81549073ffffffffffffffffffffffffffffffffffffffff02191690556006820160006101000a81549073ffffffffffffffffffffffffffffffffffffffff02191690556007820160006101000a81549073ffffffffffffffffffffffffffffffffffffffff02191690556007820160146101000a81549060ff0219169055505060008360e0015190506000821115610d7e578073ffffffffffffffffffffffffffffffffffffffff1663a9059cbb8560a00151846040518363ffffffff1660e01b8152600401610cec929190613489565b602060405180830381600087803b158015610d0657600080fd5b505af1158015610d1a573d6000803e3d6000fd5b505050506040513d601f19601f82011682018060405250610d3e9190810190612d5c565b610d7d576040517f08c379a0000000000000000000000000000000000000000000000000000000008152600401610d749061364f565b60405180910390fd5b5b6000831115610e58578073ffffffffffffffffffffffffffffffffffffffff1663a9059cbb8560c00151856040518363ffffffff1660e01b8152600401610dc6929190613489565b602060405180830381600087803b158015610de057600080fd5b505af1158015610df4573d6000803e3d6000fd5b505050506040513d601f19601f82011682018060405250610e189190810190612d5c565b610e57576040517f08c379a0000000000000000000000000000000000000000000000000000000008152600401610e4e9061354f565b60405180910390fd5b5b8360a0015173ffffffffffffffffffffffffffffffffffffffff168460c0015173ffffffffffffffffffffffffffffffffffffffff16887fca3e6079b726e7728802a0537949e2d1c7762304fa641fb06eb56daf2ba8c6b98686604051610ec09291906136ff565b60405180910390a4505050505060016000806101000a81548160ff021916908315150217905550919050565b6000816006600082815260200190815260200160002060070160149054906101000a900460ff16610f52576040517f08c379a0000000000000000000000000000000000000000000000000000000008152600401610f499061352f565b60405180910390fd5b610f5a612ae4565b600660008581526020019081526020016000206040518061012001604052908160008201548152602001600182015481526020016002820154815260200160038201548152602001600482015481526020016005820160009054906101000a900473ffffffffffffffffffffffffffffffffffffffff1673ffffffffffffffffffffffffffffffffffffffff1673ffffffffffffffffffffffffffffffffffffffff1681526020016006820160009054906101000a900473ffffffffffffffffffffffffffffffffffffffff1673ffffffffffffffffffffffffffffffffffffffff1673ffffffffffffffffffffffffffffffffffffffff1681526020016007820160009054906101000a900473ffffffffffffffffffffffffffffffffffffffff1673ffffffffffffffffffffffffffffffffffffffff1673ffffffffffffffffffffffffffffffffffffffff1681526020016007820160149054906101000a900460ff16151515158152505090506110d2612b74565b60006110dd86611bd4565b90506110ed818460200151612980565b83600001846020018281525082600381111561110557fe5b600381111561111057fe5b81525050506000600381111561112257fe5b8260000151600381111561113257fe5b14611172576040517f08c379a0000000000000000000000000000000000000000000000000000000008152600401611169906135cf565b60405180910390fd5b82604001518360000151111561123f57611194836000015184604001516129d3565b8360000184604001828152508260038111156111ac57fe5b60038111156111b757fe5b8152505050600060038111156111c957fe5b826000015160038111156111d957fe5b146111e057fe5b6111f2826020015183604001516129d3565b83600001846020018281525082600381111561120a57fe5b600381111561121557fe5b81525050506000600381111561122757fe5b8260000151600381111561123757fe5b1461123e57fe5b5b8160200151945050505050919050565b60008060009054906101000a900460ff1661129f576040517f08c379a00000000000000000000000000000000000000000000000000000000081526004016112969061362f565b60405180910390fd5b60008060006101000a81548160ff021916908315150217905550826006600082815260200190815260200160002060070160149054906101000a900460ff1661131d576040517f08c379a00000000000000000000000000000000000000000000000000000000081526004016113149061352f565b60405180910390fd5b836006600082815260200190815260200160002060060160009054906101000a900473ffffffffffffffffffffffffffffffffffffffff1673ffffffffffffffffffffffffffffffffffffffff163373ffffffffffffffffffffffffffffffffffffffff1614806113ef57506006600082815260200190815260200160002060050160009054906101000a900473ffffffffffffffffffffffffffffffffffffffff1673ffffffffffffffffffffffffffffffffffffffff163373ffffffffffffffffffffffffffffffffffffffff16145b61142e576040517f08c379a0000000000000000000000000000000000000000000000000000000008152600401611425906135ef565b60405180910390fd5b60008411611471576040517f08c379a0000000000000000000000000000000000000000000000000000000008152600401611468906134ef565b60405180910390fd5b611479612ae4565b600660008781526020019081526020016000206040518061012001604052908160008201548152602001600182015481526020016002820154815260200160038201548152602001600482015481526020016005820160009054906101000a900473ffffffffffffffffffffffffffffffffffffffff1673ffffffffffffffffffffffffffffffffffffffff1673ffffffffffffffffffffffffffffffffffffffff1681526020016006820160009054906101000a900473ffffffffffffffffffffffffffffffffffffffff1673ffffffffffffffffffffffffffffffffffffffff1673ffffffffffffffffffffffffffffffffffffffff1681526020016007820160009054906101000a900473ffffffffffffffffffffffffffffffffffffffff1673ffffffffffffffffffffffffffffffffffffffff1673ffffffffffffffffffffffffffffffffffffffff1681526020016007820160149054906101000a900460ff16151515158152505090506115f1612ba7565b6000611601888460a0015161048c565b905086811015611646576040517f08c379a000000000000000000000000000000000000000000000000000000000815260040161163d9061350f565b60405180910390fd5b6116548360400151886129d3565b83600001600660008c81526020019081526020016000206002016000839190505582600381111561168157fe5b600381111561168c57fe5b81525050506000600381111561169e57fe5b826000015160038111156116ae57fe5b146116b557fe5b6000600660008a815260200190815260200160002060020154141561179c576006600089815260200190815260200160002060008082016000905560018201600090556002820160009055600382016000905560048201600090556005820160006101000a81549073ffffffffffffffffffffffffffffffffffffffff02191690556006820160006101000a81549073ffffffffffffffffffffffffffffffffffffffff02191690556007820160006101000a81549073ffffffffffffffffffffffffffffffffffffffff02191690556007820160146101000a81549060ff021916905550505b8260e0015173ffffffffffffffffffffffffffffffffffffffff1663a9059cbb8460a00151896040518363ffffffff1660e01b81526004016117df929190613489565b602060405180830381600087803b1580156117f957600080fd5b505af115801561180d573d6000803e3d6000fd5b505050506040513d601f19601f820116820180604052506118319190810190612d5c565b611870576040517f08c379a00000000000000000000000000000000000000000000000000000000081526004016118679061358f565b60405180910390fd5b8260a0015173ffffffffffffffffffffffffffffffffffffffff16887f36c3ab437e6a424ed25dc4bfdeb62706aa06558660fab2dab229d2555adaf89c896040516118bb919061366f565b60405180910390a3505050505060016000806101000a81548160ff02191690831515021790555092915050565b600080600080600080600080886006600082815260200190815260200160002060070160149054906101000a900460ff16611958576040517f08c379a000000000000000000000000000000000000000000000000000000000815260040161194f9061352f565b60405180910390fd5b600660008b815260200190815260200160002060060160009054906101000a900473ffffffffffffffffffffffffffffffffffffffff169850600660008b815260200190815260200160002060050160009054906101000a900473ffffffffffffffffffffffffffffffffffffffff169750600660008b8152602001908152602001600020600001549650600660008b815260200190815260200160002060070160009054906101000a900473ffffffffffffffffffffffffffffffffffffffff169550600660008b8152602001908152602001600020600301549450600660008b8152602001908152602001600020600401549350600660008b8152602001908152602001600020600201549250600660008b815260200190815260200160002060010154915050919395975091939597565b6060600260003373ffffffffffffffffffffffffffffffffffffffff1673ffffffffffffffffffffffffffffffffffffffff168152602001908152602001600020805480602002602001604051908101604052809291908181526020016000905b82821015611bcb578382906000526020600020906002020160405180604001604052908160008201548152602001600182018054600181600116156101000203166002900480601f016020809104026020016040519081016040528092919081815260200182805460018160011615610100020316600290048015611bb35780601f10611b8857610100808354040283529160200191611bb3565b820191906000526020600020905b815481529060010190602001808311611b9657829003601f168201915b50505050508152505081526020019060010190611aed565b50505050905090565b6000816006600082815260200190815260200160002060070160149054906101000a900460ff16611c3a576040517f08c379a0000000000000000000000000000000000000000000000000000000008152600401611c319061352f565b60405180910390fd5b611c42612ae4565b600660008581526020019081526020016000206040518061012001604052908160008201548152602001600182015481526020016002820154815260200160038201548152602001600482015481526020016005820160009054906101000a900473ffffffffffffffffffffffffffffffffffffffff1673ffffffffffffffffffffffffffffffffffffffff1673ffffffffffffffffffffffffffffffffffffffff1681526020016006820160009054906101000a900473ffffffffffffffffffffffffffffffffffffffff1673ffffffffffffffffffffffffffffffffffffffff1673ffffffffffffffffffffffffffffffffffffffff1681526020016007820160009054906101000a900473ffffffffffffffffffffffffffffffffffffffff1673ffffffffffffffffffffffffffffffffffffffff1673ffffffffffffffffffffffffffffffffffffffff1681526020016007820160149054906101000a900460ff16151515158152505090508060800151421015611dcd5780606001514203925050611ddc565b80606001518160800151039250505b50919050565b6000816006600082815260200190815260200160002060070160149054906101000a900460ff16611e48576040517f08c379a0000000000000000000000000000000000000000000000000000000008152600401611e3f9061352f565b60405180910390fd5b611e50612ae4565b600660008581526020019081526020016000206040518061012001604052908160008201548152602001600182015481526020016002820154815260200160038201548152602001600482015481526020016005820160009054906101000a900473ffffffffffffffffffffffffffffffffffffffff1673ffffffffffffffffffffffffffffffffffffffff1673ffffffffffffffffffffffffffffffffffffffff1681526020016006820160009054906101000a900473ffffffffffffffffffffffffffffffffffffffff1673ffffffffffffffffffffffffffffffffffffffff1673ffffffffffffffffffffffffffffffffffffffff1681526020016007820160009054906101000a900473ffffffffffffffffffffffffffffffffffffffff1673ffffffffffffffffffffffffffffffffffffffff1673ffffffffffffffffffffffffffffffffffffffff1681526020016007820160149054906101000a900460ff161515151581525050905080606001514211611fd5576000925050611fff565b8060800151421015611ff05780606001514203925050611fff565b80606001518160800151039250505b50919050565b6002602052816000526040600020818154811061201e57fe5b906000526020600020906002020160009150915050806000015490806001018054600181600116156101000203166002900480601f0160208091040260200160405190810160405280929190818152602001828054600181600116156101000203166002900480156120d15780601f106120a6576101008083540402835291602001916120d1565b820191906000526020600020905b8154815290600101906020018083116120b457829003601f168201915b5050505050905082565b6000809054906101000a900460ff16612129576040517f08c379a00000000000000000000000000000000000000000000000000000000081526004016121209061362f565b60405180910390fd5b60008060006101000a81548160ff021916908315150217905550806006600082815260200190815260200160002060070160149054906101000a900460ff166121a7576040517f08c379a000000000000000000000000000000000000000000000000000000000815260040161219e9061352f565b60405180910390fd5b60006121b283610eec565b90506121bc612ae4565b600660008581526020019081526020016000206040518061012001604052908160008201548152602001600182015481526020016002820154815260200160038201548152602001600482015481526020016005820160009054906101000a900473ffffffffffffffffffffffffffffffffffffffff1673ffffffffffffffffffffffffffffffffffffffff1673ffffffffffffffffffffffffffffffffffffffff1681526020016006820160009054906101000a900473ffffffffffffffffffffffffffffffffffffffff1673ffffffffffffffffffffffffffffffffffffffff1673ffffffffffffffffffffffffffffffffffffffff1681526020016007820160009054906101000a900473ffffffffffffffffffffffffffffffffffffffff1673ffffffffffffffffffffffffffffffffffffffff1673ffffffffffffffffffffffffffffffffffffffff1681526020016007820160149054906101000a900460ff16151515158152505090506006600085815260200190815260200160002060008082016000905560018201600090556002820160009055600382016000905560048201600090556005820160006101000a81549073ffffffffffffffffffffffffffffffffffffffff02191690556006820160006101000a81549073ffffffffffffffffffffffffffffffffffffffff02191690556007820160006101000a81549073ffffffffffffffffffffffffffffffffffffffff02191690556007820160146101000a81549060ff0219169055505060008160e0015190508073ffffffffffffffffffffffffffffffffffffffff166342966c68846040518263ffffffff1660e01b8152600401612435919061366f565b600060405180830381600087803b15801561244f57600080fd5b505af1158015612463573d6000803e3d6000fd5b505050505050505060016000806101000a81548160ff02191690831515021790555050565b60008085116124cc576040517f08c379a00000000000000000000000000000000000000000000000000000000081526004016124c39061356f565b60405180910390fd5b6124d4612bc5565b6124de83856129d3565b8260000183602001828152508260038111156124f657fe5b600381111561250157fe5b81525050506000600381111561251357fe5b8160000151600381111561252357fe5b1461252a57fe5b8060200151861015612571576040517f08c379a00000000000000000000000000000000000000000000000000000000081526004016125689061360f565b60405180910390fd5b61257f8682602001516129fe565b82600001836040018281525082600381111561259757fe5b60038111156125a257fe5b8152505050600060038111156125b457fe5b816000015160038111156125c457fe5b146125cb57fe5b60006005549050604051806101200160405280888152602001836040015181526020018881526020018681526020018581526020018973ffffffffffffffffffffffffffffffffffffffff1681526020013373ffffffffffffffffffffffffffffffffffffffff1681526020018773ffffffffffffffffffffffffffffffffffffffff1681526020016001151581525060066000838152602001908152602001600020600082015181600001556020820151816001015560408201518160020155606082015181600301556080820151816004015560a08201518160050160006101000a81548173ffffffffffffffffffffffffffffffffffffffff021916908373ffffffffffffffffffffffffffffffffffffffff16021790555060c08201518160060160006101000a81548173ffffffffffffffffffffffffffffffffffffffff021916908373ffffffffffffffffffffffffffffffffffffffff16021790555060e08201518160070160006101000a81548173ffffffffffffffffffffffffffffffffffffffff021916908373ffffffffffffffffffffffffffffffffffffffff1602179055506101008201518160070160146101000a81548160ff0219169083151502179055509050506127a66005546001612a32565b836000016005600083919050558260038111156127bf57fe5b60038111156127ca57fe5b8152505050600060038111156127dc57fe5b826000015160038111156127ec57fe5b1461282c576040517f08c379a0000000000000000000000000000000000000000000000000000000008152600401612823906135af565b60405180910390fd5b8573ffffffffffffffffffffffffffffffffffffffff166323b872dd33308a6040518463ffffffff1660e01b8152600401612869939291906133ab565b602060405180830381600087803b15801561288357600080fd5b505af1158015612897573d6000803e3d6000fd5b505050506040513d601f19601f820116820180604052506128bb9190810190612d5c565b6128fa576040517f08c379a00000000000000000000000000000000000000000000000000000000081526004016128f19061358f565b60405180910390fd5b8773ffffffffffffffffffffffffffffffffffffffff163373ffffffffffffffffffffffffffffffffffffffff16827f7b01d409597969366dc268d7f957a990d1ca3d3449baf8fb45db67351aecfe788a8a8a8a60405161295e949392919061368a565b60405180910390a4809250505095945050505050565b60048060000154905081565b600080600084141561299b57600080809050915091506129cc565b60008385029050838582816129ac57fe5b04146129c3576002600080905092509250506129cc565b60008192509250505b9250929050565b6000808383116129eb576000838503915091506129f7565b60036000809050915091505b9250929050565b6000806000831415612a1a576001600080905091509150612a2b565b6000838581612a2557fe5b04915091505b9250929050565b60008060008385019050848110612a50576000819250925050612a5d565b6002600080905092509250505b9250929050565b828054600181600116156101000203166002900490600052602060002090601f016020900481019282601f10612aa557805160ff1916838001178555612ad3565b82800160010185558215612ad3579182015b82811115612ad2578251825591602001919060010190612ab7565b5b509050612ae09190612bf1565b5090565b6040518061012001604052806000815260200160008152602001600081526020016000815260200160008152602001600073ffffffffffffffffffffffffffffffffffffffff168152602001600073ffffffffffffffffffffffffffffffffffffffff168152602001600073ffffffffffffffffffffffffffffffffffffffff1681526020016000151581525090565b604051806080016040528060006003811115612b8c57fe5b81526020016000815260200160008152602001600081525090565b604051806020016040528060006003811115612bbf57fe5b81525090565b604051806060016040528060006003811115612bdd57fe5b815260200160008152602001600081525090565b612c1391905b80821115612c0f576000816000905550600101612bf7565b5090565b90565b600081359050612c25816138b8565b92915050565b600081519050612c3a816138cf565b92915050565b600082601f830112612c5157600080fd5b8135612c64612c5f82613755565b613728565b91508082526020830160208301858383011115612c8057600080fd5b612c8b838284613865565b50505092915050565b600081359050612ca3816138e6565b92915050565b60008060408385031215612cbc57600080fd5b6000612cca85828601612c16565b9250506020612cdb85828601612c94565b9150509250929050565b600080600080600060a08688031215612cfd57600080fd5b6000612d0b88828901612c16565b9550506020612d1c88828901612c94565b9450506040612d2d88828901612c16565b9350506060612d3e88828901612c94565b9250506080612d4f88828901612c94565b9150509295509295909350565b600060208284031215612d6e57600080fd5b6000612d7c84828501612c2b565b91505092915050565b600060208284031215612d9757600080fd5b600082013567ffffffffffffffff811115612db157600080fd5b612dbd84828501612c40565b91505092915050565b600060208284031215612dd857600080fd5b6000612de684828501612c94565b91505092915050565b60008060408385031215612e0257600080fd5b6000612e1085828601612c94565b9250506020612e2185828601612c16565b9150509250929050565b600080600060608486031215612e4057600080fd5b6000612e4e86828701612c94565b9350506020612e5f86828701612c16565b9250506040612e7086828701612c94565b9150509250925092565b60008060408385031215612e8d57600080fd5b6000612e9b85828601612c94565b9250506020612eac85828601612c94565b9150509250929050565b6000612ec28383613350565b905092915050565b612ed38161382f565b82525050565b612ee2816137e7565b82525050565b6000612ef382613791565b612efd81856137b4565b935083602082028501612f0f85613781565b8060005b85811015612f4b5784840389528151612f2c8582612eb6565b9450612f37836137a7565b925060208a01995050600181019050612f13565b50829750879550505050505092915050565b612f66816137f9565b82525050565b6000612f778261379c565b612f8181856137c5565b9350612f91818560208601613874565b612f9a816138a7565b840191505092915050565b6000612fb08261379c565b612fba81856137d6565b9350612fca818560208601613874565b612fd3816138a7565b840191505092915050565b6000612feb600e836137d6565b91507f616d6f756e74206973207a65726f0000000000000000000000000000000000006000830152602082019050919050565b600061302b6024836137d6565b91507f616d6f756e7420657863656564732074686520617661696c61626c652062616c60008301527f616e6365000000000000000000000000000000000000000000000000000000006020830152604082019050919050565b60006130916015836137d6565b91507f73747265616d20646f6573206e6f7420657869737400000000000000000000006000830152602082019050919050565b60006130d1601d836137d6565b91507f73656e64657220746f6b656e207472616e73666572206661696c7572650000006000830152602082019050919050565b6000613111600f836137d6565b91507f6465706f736974206973207a65726f00000000000000000000000000000000006000830152602082019050919050565b60006131516016836137d6565b91507f746f6b656e207472616e73666572206661696c757265000000000000000000006000830152602082019050919050565b60006131916020836137d6565b91507f6e6578742073747265616d2069642063616c63756c6174696f6e206572726f726000830152602082019050919050565b60006131d16023836137d6565b91507f726563697069656e742062616c616e63652063616c63756c6174696f6e20657260008301527f726f7200000000000000000000000000000000000000000000000000000000006020830152604082019050919050565b60006132376037836137d6565b91507f63616c6c6572206973206e6f74207468652073656e646572206f72207468652060008301527f726563697069656e74206f66207468652073747265616d0000000000000000006020830152604082019050919050565b600061329d601f836137d6565b91507f6465706f73697420736d616c6c6572207468616e2074696d652064656c7461006000830152602082019050919050565b60006132dd601f836137d6565b91507f5265656e7472616e637947756172643a207265656e7472616e742063616c6c006000830152602082019050919050565b600061331d6020836137d6565b91507f726563697069656e7420746f6b656e207472616e73666572206661696c7572656000830152602082019050919050565b6000604083016000830151613368600086018261338d565b50602083015184820360208601526133808282612f6c565b9150508091505092915050565b61339681613825565b82525050565b6133a581613825565b82525050565b60006060820190506133c06000830186612eca565b6133cd6020830185612ed9565b6133da604083018461339c565b949350505050565b60006040820190506133f76000830185612eca565b613404602083018461339c565b9392505050565b600061010082019050613421600083018b612ed9565b61342e602083018a612ed9565b61343b604083018961339c565b6134486060830188612ed9565b613455608083018761339c565b61346260a083018661339c565b61346f60c083018561339c565b61347c60e083018461339c565b9998505050505050505050565b600060408201905061349e6000830185612ed9565b6134ab602083018461339c565b9392505050565b600060208201905081810360008301526134cc8184612ee8565b905092915050565b60006020820190506134e96000830184612f5d565b92915050565b6000602082019050818103600083015261350881612fde565b9050919050565b600060208201905081810360008301526135288161301e565b9050919050565b6000602082019050818103600083015261354881613084565b9050919050565b60006020820190508181036000830152613568816130c4565b9050919050565b6000602082019050818103600083015261358881613104565b9050919050565b600060208201905081810360008301526135a881613144565b9050919050565b600060208201905081810360008301526135c881613184565b9050919050565b600060208201905081810360008301526135e8816131c4565b9050919050565b600060208201905081810360008301526136088161322a565b9050919050565b6000602082019050818103600083015261362881613290565b9050919050565b60006020820190508181036000830152613648816132d0565b9050919050565b6000602082019050818103600083015261366881613310565b9050919050565b6000602082019050613684600083018461339c565b92915050565b600060808201905061369f600083018761339c565b6136ac6020830186612ed9565b6136b9604083018561339c565b6136c6606083018461339c565b95945050505050565b60006040820190506136e4600083018561339c565b81810360208301526136f68184612fa5565b90509392505050565b6000604082019050613714600083018561339c565b613721602083018461339c565b9392505050565b6000604051905081810181811067ffffffffffffffff8211171561374b57600080fd5b8060405250919050565b600067ffffffffffffffff82111561376c57600080fd5b601f19601f8301169050602081019050919050565b6000819050602082019050919050565b600081519050919050565b600081519050919050565b6000602082019050919050565b600082825260208201905092915050565b600082825260208201905092915050565b600082825260208201905092915050565b60006137f282613805565b9050919050565b60008115159050919050565b600073ffffffffffffffffffffffffffffffffffffffff82169050919050565b6000819050919050565b600061383a82613841565b9050919050565b600061384c82613853565b9050919050565b600061385e82613805565b9050919050565b82818337600083830152505050565b60005b83811015613892578082015181840152602081019050613877565b838111156138a1576000848401525b50505050565b6000601f19601f8301169050919050565b6138c1816137e7565b81146138cc57600080fd5b50565b6138d8816137f9565b81146138e357600080fd5b50565b6138ef81613825565b81146138fa57600080fd5b5056fea365627a7a7231582068a3ca87c5fdd44a2bbd5c324b8ea90393dc45d3fdfdd369efdf972cb9723c956c6578706572696d656e74616cf564736f6c634300050b0040",
  "source": "pragma solidity 0.5.11;\r\npragma experimental ABIEncoderV2;\r\n\r\nimport \"@openzeppelin/contracts/lifecycle/Pausable.sol\";\r\nimport \"@openzeppelin/contracts/ownership/Ownable.sol\";\r\nimport \"@openzeppelin/contracts/token/ERC20/ERC20Burnable.sol\";\r\nimport \"@openzeppelin/contracts/utils/ReentrancyGuard.sol\";\r\nimport \"./compound/Exponential.sol\";\r\nimport \"./interfaces/IERC1620.sol\";\r\nimport \"./Types.sol\";\r\n\r\ncontract Reports is IERC1620, Exponential, ReentrancyGuard  {\r\n\r\n    uint256 reportCount;\r\n\r\n    struct Report {\r\n        uint256 id;\r\n        string content;\r\n    }\r\n\r\n    /**\r\n     * @notice Reports made per address.\r\n     */\r\n    mapping(address => Report[]) public reports;\r\n    \r\n    event Reported(address by, uint256 id);\r\n\r\n       /**\r\n     * @notice The amount of interest has been accrued per token address.\r\n     */\r\n    mapping(address => uint256) private earnings;\r\n\r\n    /**\r\n     * @notice The percentage fee charged by the contract on the accrued interest.\r\n     */\r\n    Exp public fee;\r\n\r\n    /**\r\n     * @notice Counter for new stream ids.\r\n     */\r\n    uint256 public nextStreamId;\r\n\r\n    /**\r\n     * @notice The stream objects identifiable by their unsigned integer ids.\r\n     */\r\n    mapping(uint256 => Types.Stream) private streams;\r\n\r\n    address owner;\r\n\r\n    /*** Modifiers ***/\r\n    /**\r\n     * @dev Throws if the caller is not the sender of the recipient of the stream.\r\n     */\r\n    modifier onlySenderOrRecipient(uint256 streamId) {\r\n        require(\r\n            msg.sender == streams[streamId].sender ||\r\n                msg.sender == streams[streamId].recipient,\r\n            \"caller is not the sender or the recipient of the stream\"\r\n        );\r\n        _;\r\n    }\r\n\r\n    /**\r\n     * @dev Throws if the provided id does not point to a valid stream.\r\n     */\r\n    modifier streamExists(uint256 streamId) {\r\n        require(streams[streamId].isEntity, \"stream does not exist\");\r\n        _;\r\n    }\r\n\r\n    /**\r\n     * @dev Throws if the provided id does not point to a valid stream.\r\n     */\r\n    modifier onlyOwner() {\r\n        require(owner == msg.sender, \"stream does not exist\");\r\n        _;\r\n    }\r\n\r\n    /*** Contract Logic Starts Here */\r\n\r\n    constructor() public {\r\n        reportCount = 1;\r\n        nextStreamId = 1;\r\n        owner = msg.sender;\r\n    }\r\n\r\n    /*** View Functions ***/\r\n\r\n    /**\r\n     * @notice Returns the compounding stream with all its properties.\r\n     * @dev Throws if the id does not point to a valid stream.\r\n     * @param streamId The id of the stream to query.\r\n     * @return The stream object.\r\n     */\r\n    function getStream(uint256 streamId)\r\n        external\r\n        view\r\n        streamExists(streamId)\r\n        returns (\r\n            address sender,\r\n            address recipient,\r\n            uint256 deposit,\r\n            address tokenAddress,\r\n            uint256 startTime,\r\n            uint256 stopTime,\r\n            uint256 remainingBalance,\r\n            uint256 ratePerSecond\r\n        )\r\n    {\r\n        sender = streams[streamId].sender;\r\n        recipient = streams[streamId].recipient;\r\n        deposit = streams[streamId].deposit;\r\n        tokenAddress = streams[streamId].tokenAddress;\r\n        startTime = streams[streamId].startTime;\r\n        stopTime = streams[streamId].stopTime;\r\n        remainingBalance = streams[streamId].remainingBalance;\r\n        ratePerSecond = streams[streamId].ratePerSecond;\r\n    }\r\n\r\n    /**\r\n     * @notice Returns either the delta in seconds between `block.timestamp` and `startTime` or\r\n     *  between `stopTime` and `startTime, whichever is smaller. If `block.timestamp` is before\r\n     *  `startTime`, it returns 0.\r\n     * @dev Throws if the id does not point to a valid stream.\r\n     * @param streamId The id of the stream for which to query the delta.\r\n     * @return The time delta in seconds.\r\n     */\r\n    function deltaOf(uint256 streamId)\r\n        public\r\n        view\r\n        streamExists(streamId)\r\n        returns (uint256 delta)\r\n    {\r\n        Types.Stream memory stream = streams[streamId];\r\n        if (block.timestamp <= stream.startTime) return 0;\r\n        if (block.timestamp < stream.stopTime)\r\n            return block.timestamp - stream.startTime;\r\n        return stream.stopTime - stream.startTime;\r\n    }\r\n\r\n    function deltaOfReverseStream(uint256 streamId)\r\n        public\r\n        view\r\n        streamExists(streamId)\r\n        returns (uint256 delta)\r\n    {\r\n        Types.Stream memory stream = streams[streamId];\r\n        if (block.timestamp < stream.stopTime)\r\n            return block.timestamp - stream.startTime;\r\n        return stream.stopTime - stream.startTime;\r\n    }\r\n\r\n    struct BalanceOfLocalVars {\r\n        MathError mathErr;\r\n        uint256 recipientBalance;\r\n        uint256 withdrawalAmount;\r\n        uint256 senderBalance;\r\n    }\r\n\r\n    /**\r\n     * @notice Returns the available funds for the given stream id and address.\r\n     * @dev Throws if the id does not point to a valid stream.\r\n     * @param streamId The id of the stream for which to query the balance.\r\n     * @return The total funds allocated to `receiver` as uint256.\r\n     */\r\n    function balanceOfReverseStream(uint256 streamId)\r\n        public\r\n        view\r\n        streamExists(streamId)\r\n        returns (uint256 balance)\r\n    {\r\n        Types.Stream memory stream = streams[streamId];\r\n        BalanceOfLocalVars memory vars;\r\n\r\n        uint256 delta = deltaOfReverseStream(streamId);\r\n        (vars.mathErr, vars.recipientBalance) = mulUInt(\r\n            delta,\r\n            stream.ratePerSecond\r\n        );\r\n        require(\r\n            vars.mathErr == MathError.NO_ERROR,\r\n            \"recipient balance calculation error\"\r\n        );\r\n\r\n        /*\r\n         * If the stream `balance` does not equal `deposit`, it means there have been withdrawals.\r\n         * We have to subtract the total amount withdrawn from the amount of money that has been\r\n         * streamed until now.\r\n         */\r\n        if (stream.deposit > stream.remainingBalance) {\r\n            (vars.mathErr, vars.withdrawalAmount) = subUInt(\r\n                stream.deposit,\r\n                stream.remainingBalance\r\n            );\r\n\r\n            assert(vars.mathErr == MathError.NO_ERROR);\r\n            (vars.mathErr, vars.recipientBalance) = subUInt(\r\n                vars.recipientBalance,\r\n                vars.withdrawalAmount\r\n            );\r\n            /* `withdrawalAmount` cannot and should not be bigger than `recipientBalance`. */\r\n            assert(vars.mathErr == MathError.NO_ERROR);\r\n        }\r\n\r\n        return vars.recipientBalance;\r\n    }\r\n\r\n    /**\r\n     * @notice Returns the available funds for the given stream id and address.\r\n     * @dev Throws if the id does not point to a valid stream.\r\n     * @param streamId The id of the stream for which to query the balance.\r\n     * @param who The address for which to query the balance.\r\n     * @return The total funds allocated to `who` as uint256.\r\n     */\r\n    function balanceOf(uint256 streamId, address who)\r\n        public\r\n        view\r\n        streamExists(streamId)\r\n        returns (uint256 balance)\r\n    {\r\n        Types.Stream memory stream = streams[streamId];\r\n        BalanceOfLocalVars memory vars;\r\n\r\n        uint256 delta = deltaOf(streamId);\r\n        (vars.mathErr, vars.recipientBalance) = mulUInt(\r\n            delta,\r\n            stream.ratePerSecond\r\n        );\r\n        require(\r\n            vars.mathErr == MathError.NO_ERROR,\r\n            \"recipient balance calculation error\"\r\n        );\r\n\r\n        /*\r\n         * If the stream `balance` does not equal `deposit`, it means there have been withdrawals.\r\n         * We have to subtract the total amount withdrawn from the amount of money that has been\r\n         * streamed until now.\r\n         */\r\n        if (stream.deposit > stream.remainingBalance) {\r\n            (vars.mathErr, vars.withdrawalAmount) = subUInt(\r\n                stream.deposit,\r\n                stream.remainingBalance\r\n            );\r\n            assert(vars.mathErr == MathError.NO_ERROR);\r\n            (vars.mathErr, vars.recipientBalance) = subUInt(\r\n                vars.recipientBalance,\r\n                vars.withdrawalAmount\r\n            );\r\n            /* `withdrawalAmount` cannot and should not be bigger than `recipientBalance`. */\r\n            assert(vars.mathErr == MathError.NO_ERROR);\r\n        }\r\n\r\n        if (who == stream.recipient) return vars.recipientBalance;\r\n        if (who == stream.sender) {\r\n            (vars.mathErr, vars.senderBalance) = subUInt(\r\n                stream.remainingBalance,\r\n                vars.recipientBalance\r\n            );\r\n            /* `recipientBalance` cannot and should not be bigger than `remainingBalance`. */\r\n            assert(vars.mathErr == MathError.NO_ERROR);\r\n            return vars.senderBalance;\r\n        }\r\n        return 0;\r\n    }\r\n\r\n    /*** Public Effects & Interactions Functions ***/\r\n\r\n    struct CreateStreamLocalVars {\r\n        MathError mathErr;\r\n        uint256 duration;\r\n        uint256 ratePerSecond;\r\n    }\r\n\r\n    /**\r\n     * @notice Creates a new reverse stream stream funded by `msg.sender` and paid towards `msg.sender`.\r\n     * @dev Throws if paused.\r\n     *  Throws if the deposit is 0.\r\n     *  Throws if the start time is before `block.timestamp`.\r\n     *  Throws if the stop time is before the start time.\r\n     *  Throws if the duration calculation has a math error.\r\n     *  Throws if the deposit is smaller than the duration.\r\n     *  Throws if the deposit is not a multiple of the duration.\r\n     *  Throws if the rate calculation has a math error.\r\n     *  Throws if the next stream id calculation has a math error.\r\n     *  Throws if the contract is not allowed to transfer enough tokens.\r\n     *  Throws if there is a token transfer failure.\r\n     * @param deposit The amount of money to be streamed.\r\n     * @param tokenAddress The ERC20 token to use as streaming currency.\r\n     * @param stopTime The unix timestamp for when the stream stops.\r\n     * @return The uint256 id of the newly created stream.\r\n     */\r\n    function createReverseStream(\r\n        uint256 deposit,\r\n        address tokenAddress,\r\n        uint256 stopTime\r\n    ) public returns (uint256) {\r\n        createStream(\r\n            msg.sender,\r\n            deposit,\r\n            tokenAddress,\r\n            block.timestamp,\r\n            stopTime\r\n        );\r\n    }\r\n\r\n    /**\r\n     * @notice Creates a new  stream stream funded by `msg.sender` and paid towards `msg.sender`.\r\n     * @dev Throws if paused.\r\n     *  Throws if the deposit is 0.\r\n     *  Throws if the start time is before `block.timestamp`.\r\n     *  Throws if the stop time is before the start time.\r\n     *  Throws if the duration calculation has a math error.\r\n     *  Throws if the deposit is smaller than the duration.\r\n     *  Throws if the deposit is not a multiple of the duration.\r\n     *  Throws if the rate calculation has a math error.\r\n     *  Throws if the next stream id calculation has a math error.\r\n     *  Throws if the contract is not allowed to transfer enough tokens.\r\n     *  Throws if there is a token transfer failure.\r\n     * @param recipient The address towards which the money is streamed.\r\n     * @param deposit The amount of money to be streamed.\r\n     * @param tokenAddress The ERC20 token to use as streaming currency.\r\n     * @param startTime The unix timestamp for when the stream starts.\r\n     * @param stopTime The unix timestamp for when the stream stops.\r\n     * @return The uint256 id of the newly created stream.\r\n     */\r\n    function createStream(\r\n        address recipient,\r\n        uint256 deposit,\r\n        address tokenAddress,\r\n        uint256 startTime,\r\n        uint256 stopTime\r\n    ) public returns (uint256) {\r\n        // require(recipient != address(0x00), \"stream to the zero address\");\r\n        // require(recipient != address(this), \"stream to the contract itself\");\r\n        // require(recipient != msg.sender, \"stream to the caller\");\r\n        require(deposit > 0, \"deposit is zero\");\r\n        // require(\r\n        //     startTime >= block.timestamp,\r\n        //     \"start time before block.timestamp\"\r\n        // );\r\n\r\n        // require(stopTime > startTime, \"stop time before the start time\");\r\n\r\n        CreateStreamLocalVars memory vars;\r\n        (vars.mathErr, vars.duration) = subUInt(stopTime, startTime);\r\n        /* `subUInt` can only return MathError.INTEGER_UNDERFLOW but we know `stopTime` is higher than `startTime`. */\r\n        assert(vars.mathErr == MathError.NO_ERROR);\r\n\r\n        /* Without this, the rate per second would be zero. */\r\n        require(deposit >= vars.duration, \"deposit smaller than time delta\");\r\n\r\n        /* This condition avoids dealing with remainders */\r\n        // require(\r\n        //     deposit % vars.duration == 0,\r\n        //     \"deposit not multiple of time delta\"\r\n        // );\r\n\r\n        (vars.mathErr, vars.ratePerSecond) = divUInt(deposit, vars.duration);\r\n        /* `divUInt` can only return MathError.DIVISION_BY_ZERO but we know `duration` is not zero. */\r\n        assert(vars.mathErr == MathError.NO_ERROR);\r\n\r\n        /* Create and store the stream object. */\r\n        uint256 streamId = nextStreamId;\r\n        streams[streamId] = Types.Stream({\r\n            remainingBalance: deposit,\r\n            deposit: deposit,\r\n            isEntity: true,\r\n            ratePerSecond: vars.ratePerSecond,\r\n            recipient: recipient,\r\n            sender: msg.sender,\r\n            startTime: startTime,\r\n            stopTime: stopTime,\r\n            tokenAddress: tokenAddress\r\n        });\r\n\r\n        /* Increment the next stream id. */\r\n        (vars.mathErr, nextStreamId) = addUInt(nextStreamId, uint256(1));\r\n        require(\r\n            vars.mathErr == MathError.NO_ERROR,\r\n            \"next stream id calculation error\"\r\n        );\r\n\r\n        require(\r\n            ERC20Burnable(tokenAddress).transferFrom(\r\n                msg.sender,\r\n                address(this),\r\n                deposit\r\n            ),\r\n            \"token transfer failure\"\r\n        );\r\n        emit CreateStream(\r\n            streamId,\r\n            msg.sender,\r\n            recipient,\r\n            deposit,\r\n            tokenAddress,\r\n            startTime,\r\n            stopTime\r\n        );\r\n        return streamId;\r\n    }\r\n\r\n    struct WithdrawFromStreamLocalVars {\r\n        MathError mathErr;\r\n    }\r\n\r\n    /**\r\n     * @notice Withdraws from the contract to the recipient's account.\r\n     * @dev Throws if the id does not point to a valid stream.\r\n     *  Throws if the caller is not the sender or the recipient of the stream.\r\n     *  Throws if the amount exceeds the available balance.\r\n     *  Throws if there is a token transfer failure.\r\n     * @param streamId The id of the stream to withdraw tokens from.\r\n     * @param amount The amount of tokens to withdraw.\r\n     * @return bool true=success, otherwise false.\r\n     */\r\n    function withdrawFromStream(uint256 streamId, uint256 amount)\r\n        external\r\n        nonReentrant\r\n        streamExists(streamId)\r\n        onlySenderOrRecipient(streamId)\r\n        returns (bool)\r\n    {\r\n        require(amount > 0, \"amount is zero\");\r\n        Types.Stream memory stream = streams[streamId];\r\n        WithdrawFromStreamLocalVars memory vars;\r\n\r\n        uint256 balance = balanceOf(streamId, stream.recipient);\r\n        require(balance >= amount, \"amount exceeds the available balance\");\r\n\r\n        (vars.mathErr, streams[streamId].remainingBalance) = subUInt(\r\n            stream.remainingBalance,\r\n            amount\r\n        );\r\n        /**\r\n         * `subUInt` can only return MathError.INTEGER_UNDERFLOW but we know that `remainingBalance` is at least\r\n         * as big as `amount`.\r\n         */\r\n        assert(vars.mathErr == MathError.NO_ERROR);\r\n\r\n        if (streams[streamId].remainingBalance == 0) delete streams[streamId];\r\n\r\n        require(\r\n            ERC20Burnable(stream.tokenAddress).transfer(\r\n                stream.recipient,\r\n                amount\r\n            ),\r\n            \"token transfer failure\"\r\n        );\r\n        emit WithdrawFromStream(streamId, stream.recipient, amount);\r\n    }\r\n\r\n    /**\r\n     * @notice Cancels the stream and transfers the tokens back on a pro rata basis.\r\n     * @dev Throws if the id does not point to a valid stream.\r\n     *  Throws if the caller is not the sender or the recipient of the stream.\r\n     *  Throws if there is a token transfer failure.\r\n     * @param streamId The id of the stream to cancel.\r\n     * @return bool true=success, otherwise false.\r\n     */\r\n    function cancelStream(uint256 streamId)\r\n        external\r\n        nonReentrant\r\n        streamExists(streamId)\r\n        onlyOwner()\r\n        returns (bool)\r\n    {\r\n        Types.Stream memory stream = streams[streamId];\r\n        uint256 senderBalance = balanceOf(streamId, stream.sender);\r\n        uint256 recipientBalance = balanceOf(streamId, stream.recipient);\r\n\r\n        delete streams[streamId];\r\n\r\n        ERC20Burnable token = ERC20Burnable(stream.tokenAddress);\r\n        if (recipientBalance > 0)\r\n            require(\r\n                token.transfer(stream.recipient, recipientBalance),\r\n                \"recipient token transfer failure\"\r\n            );\r\n        if (senderBalance > 0)\r\n            require(\r\n                token.transfer(stream.sender, senderBalance),\r\n                \"sender token transfer failure\"\r\n            );\r\n\r\n        emit CancelStream(\r\n            streamId,\r\n            stream.sender,\r\n            stream.recipient,\r\n            senderBalance,\r\n            recipientBalance\r\n        );\r\n    }\r\n\r\n    // TODO make it permissioned to only the receiver address\r\n    function Close(uint256 streamId)\r\n        external\r\n        nonReentrant\r\n        streamExists(streamId)\r\n    {\r\n        uint256 remainingBalance = balanceOfReverseStream(streamId);\r\n        Types.Stream memory stream = streams[streamId];\r\n        delete streams[streamId];\r\n        ERC20Burnable token = ERC20Burnable(stream.tokenAddress);\r\n\r\n        token.burn(remainingBalance);\r\n    }\r\n    \r\n    function reportEvent(string memory _content) public {\r\n        reportCount++;\r\n        reports[msg.sender].push(\r\n            Report(reportCount, _content)\r\n        );\r\n\r\n        emit Reported(msg.sender, reportCount);\r\n    }\r\n\r\n    function getReports() public view returns (Report[] memory){\r\n        return reports[msg.sender];\r\n    }\r\n}",
  "sourcePath": "D:/Documents/hac/blockchain/contracts/Reports.sol",
  "compiler": {
    "name": "solc",
    "version": "0.5.11+commit.c082d0b4.Emscripten.clang"
  },
  "schemaVersion": "3.2.5",
  "updatedAt": "2020-11-19T15:09:12.505Z",
  "networkType": "ethereum",
  "devdoc": {
    "methods": {
      "balanceOf(uint256,address)": {
        "details": "Throws if the id does not point to a valid stream.\r",
        "params": {
          "streamId": "The id of the stream for which to query the balance.\r",
          "who": "The address for which to query the balance.\r"
        },
        "return": "The total funds allocated to `who` as uint256.\r"
      },
      "balanceOfReverseStream(uint256)": {
        "details": "Throws if the id does not point to a valid stream.\r",
        "params": {
          "streamId": "The id of the stream for which to query the balance.\r"
        },
        "return": "The total funds allocated to `receiver` as uint256.\r"
      },
      "cancelStream(uint256)": {
        "details": "Throws if the id does not point to a valid stream.\r Throws if the caller is not the sender or the recipient of the stream.\r Throws if there is a token transfer failure.\r",
        "params": {
          "streamId": "The id of the stream to cancel.\r"
        },
        "return": "bool true=success, otherwise false.\r"
      },
      "createReverseStream(uint256,address,uint256)": {
        "details": "Throws if paused.\r Throws if the deposit is 0.\r Throws if the start time is before `block.timestamp`.\r Throws if the stop time is before the start time.\r Throws if the duration calculation has a math error.\r Throws if the deposit is smaller than the duration.\r Throws if the deposit is not a multiple of the duration.\r Throws if the rate calculation has a math error.\r Throws if the next stream id calculation has a math error.\r Throws if the contract is not allowed to transfer enough tokens.\r Throws if there is a token transfer failure.\r",
        "params": {
          "deposit": "The amount of money to be streamed.\r",
          "stopTime": "The unix timestamp for when the stream stops.\r",
          "tokenAddress": "The ERC20 token to use as streaming currency.\r"
        },
        "return": "The uint256 id of the newly created stream.\r"
      },
      "createStream(address,uint256,address,uint256,uint256)": {
        "details": "Throws if paused.\r Throws if the deposit is 0.\r Throws if the start time is before `block.timestamp`.\r Throws if the stop time is before the start time.\r Throws if the duration calculation has a math error.\r Throws if the deposit is smaller than the duration.\r Throws if the deposit is not a multiple of the duration.\r Throws if the rate calculation has a math error.\r Throws if the next stream id calculation has a math error.\r Throws if the contract is not allowed to transfer enough tokens.\r Throws if there is a token transfer failure.\r",
        "params": {
          "deposit": "The amount of money to be streamed.\r",
          "recipient": "The address towards which the money is streamed.\r",
          "startTime": "The unix timestamp for when the stream starts.\r",
          "stopTime": "The unix timestamp for when the stream stops.\r",
          "tokenAddress": "The ERC20 token to use as streaming currency.\r"
        },
        "return": "The uint256 id of the newly created stream.\r"
      },
      "deltaOf(uint256)": {
        "details": "Throws if the id does not point to a valid stream.\r",
        "params": {
          "streamId": "The id of the stream for which to query the delta.\r"
        },
        "return": "The time delta in seconds.\r"
      },
      "getStream(uint256)": {
        "details": "Throws if the id does not point to a valid stream.\r",
        "params": {
          "streamId": "The id of the stream to query.\r"
        },
        "return": "The stream object.\r"
      },
      "withdrawFromStream(uint256,uint256)": {
        "details": "Throws if the id does not point to a valid stream.\r Throws if the caller is not the sender or the recipient of the stream.\r Throws if the amount exceeds the available balance.\r Throws if there is a token transfer failure.\r",
        "params": {
          "amount": "The amount of tokens to withdraw.\r",
          "streamId": "The id of the stream to withdraw tokens from.\r"
        },
        "return": "bool true=success, otherwise false.\r"
      }
    }
  },
  "userdoc": {
    "methods": {
      "balanceOf(uint256,address)": {
        "notice": "Returns the available funds for the given stream id and address.\r"
      },
      "balanceOfReverseStream(uint256)": {
        "notice": "Returns the available funds for the given stream id and address.\r"
      },
      "cancelStream(uint256)": {
        "notice": "Cancels the stream and transfers the tokens back on a pro rata basis.\r"
      },
      "constructor": "* Contract Logic Starts Here ",
      "createReverseStream(uint256,address,uint256)": {
        "notice": "Creates a new reverse stream stream funded by `msg.sender` and paid towards `msg.sender`.\r"
      },
      "createStream(address,uint256,address,uint256,uint256)": {
        "notice": "Creates a new  stream stream funded by `msg.sender` and paid towards `msg.sender`.\r"
      },
      "deltaOf(uint256)": {
        "notice": "Returns either the delta in seconds between `block.timestamp` and `startTime` or\r between `stopTime` and `startTime, whichever is smaller. If `block.timestamp` is before\r `startTime`, it returns 0.\r"
      },
      "getStream(uint256)": {
        "notice": "Returns the compounding stream with all its properties.\r"
      },
      "withdrawFromStream(uint256,uint256)": {
        "notice": "Withdraws from the contract to the recipient's account.\r"
      }
    }
  }
}