{
  "contractName": "Reports",
  "abi": [
    {
      "constant": true,
      "inputs": [],
      "name": "nextStreamId",
      "outputs": [
        {
          "internalType": "uint256",
          "name": "",
          "type": "uint256"
        }
      ],
      "payable": false,
      "stateMutability": "view",
      "type": "function"
    },
    {
      "constant": true,
      "inputs": [],
      "name": "fee",
      "outputs": [
        {
          "internalType": "uint256",
          "name": "mantissa",
          "type": "uint256"
        }
      ],
      "payable": false,
      "stateMutability": "view",
      "type": "function"
    },
    {
      "inputs": [],
      "payable": false,
      "stateMutability": "nonpayable",
      "type": "constructor"
    },
    {
      "anonymous": false,
      "inputs": [
        {
          "indexed": false,
          "internalType": "address",
          "name": "by",
          "type": "address"
        },
        {
          "indexed": false,
          "internalType": "uint256",
          "name": "id",
          "type": "uint256"
        }
      ],
      "name": "Reported",
      "type": "event"
    },
    {
      "anonymous": false,
      "inputs": [
        {
          "indexed": false,
          "internalType": "uint256",
          "name": "id",
          "type": "uint256"
        },
        {
          "indexed": false,
          "internalType": "bool",
          "name": "valid",
          "type": "bool"
        }
      ],
      "name": "ToggledValidity",
      "type": "event"
    },
    {
      "anonymous": false,
      "inputs": [
        {
          "indexed": true,
          "internalType": "uint256",
          "name": "streamId",
          "type": "uint256"
        },
        {
          "indexed": true,
          "internalType": "address",
          "name": "sender",
          "type": "address"
        },
        {
          "indexed": true,
          "internalType": "address",
          "name": "recipient",
          "type": "address"
        },
        {
          "indexed": false,
          "internalType": "uint256",
          "name": "deposit",
          "type": "uint256"
        },
        {
          "indexed": false,
          "internalType": "address",
          "name": "tokenAddress",
          "type": "address"
        },
        {
          "indexed": false,
          "internalType": "uint256",
          "name": "startTime",
          "type": "uint256"
        },
        {
          "indexed": false,
          "internalType": "uint256",
          "name": "stopTime",
          "type": "uint256"
        }
      ],
      "name": "CreateStream",
      "type": "event"
    },
    {
      "anonymous": false,
      "inputs": [
        {
          "indexed": true,
          "internalType": "uint256",
          "name": "streamId",
          "type": "uint256"
        },
        {
          "indexed": true,
          "internalType": "address",
          "name": "recipient",
          "type": "address"
        },
        {
          "indexed": false,
          "internalType": "uint256",
          "name": "amount",
          "type": "uint256"
        }
      ],
      "name": "WithdrawFromStream",
      "type": "event"
    },
    {
      "anonymous": false,
      "inputs": [
        {
          "indexed": true,
          "internalType": "uint256",
          "name": "streamId",
          "type": "uint256"
        },
        {
          "indexed": true,
          "internalType": "address",
          "name": "sender",
          "type": "address"
        },
        {
          "indexed": true,
          "internalType": "address",
          "name": "recipient",
          "type": "address"
        },
        {
          "indexed": false,
          "internalType": "uint256",
          "name": "senderBalance",
          "type": "uint256"
        },
        {
          "indexed": false,
          "internalType": "uint256",
          "name": "recipientBalance",
          "type": "uint256"
        }
      ],
      "name": "CancelStream",
      "type": "event"
    },
    {
      "constant": true,
      "inputs": [
        {
          "internalType": "uint256",
          "name": "streamId",
          "type": "uint256"
        }
      ],
      "name": "getStream",
      "outputs": [
        {
          "internalType": "address",
          "name": "sender",
          "type": "address"
        },
        {
          "internalType": "address",
          "name": "recipient",
          "type": "address"
        },
        {
          "internalType": "uint256",
          "name": "deposit",
          "type": "uint256"
        },
        {
          "internalType": "address",
          "name": "tokenAddress",
          "type": "address"
        },
        {
          "internalType": "uint256",
          "name": "startTime",
          "type": "uint256"
        },
        {
          "internalType": "uint256",
          "name": "stopTime",
          "type": "uint256"
        },
        {
          "internalType": "uint256",
          "name": "remainingBalance",
          "type": "uint256"
        },
        {
          "internalType": "uint256",
          "name": "ratePerSecond",
          "type": "uint256"
        }
      ],
      "payable": false,
      "stateMutability": "view",
      "type": "function"
    },
    {
      "constant": true,
      "inputs": [
        {
          "internalType": "uint256",
          "name": "streamId",
          "type": "uint256"
        }
      ],
      "name": "deltaOf",
      "outputs": [
        {
          "internalType": "uint256",
          "name": "delta",
          "type": "uint256"
        }
      ],
      "payable": false,
      "stateMutability": "view",
      "type": "function"
    },
    {
      "constant": true,
      "inputs": [
        {
          "internalType": "uint256",
          "name": "streamId",
          "type": "uint256"
        }
      ],
      "name": "deltaOfReverseStream",
      "outputs": [
        {
          "internalType": "uint256",
          "name": "delta",
          "type": "uint256"
        }
      ],
      "payable": false,
      "stateMutability": "view",
      "type": "function"
    },
    {
      "constant": true,
      "inputs": [
        {
          "internalType": "uint256",
          "name": "streamId",
          "type": "uint256"
        }
      ],
      "name": "balanceOfReverseStream",
      "outputs": [
        {
          "internalType": "uint256",
          "name": "balance",
          "type": "uint256"
        }
      ],
      "payable": false,
      "stateMutability": "view",
      "type": "function"
    },
    {
      "constant": true,
      "inputs": [
        {
          "internalType": "uint256",
          "name": "streamId",
          "type": "uint256"
        },
        {
          "internalType": "address",
          "name": "who",
          "type": "address"
        }
      ],
      "name": "balanceOf",
      "outputs": [
        {
          "internalType": "uint256",
          "name": "balance",
          "type": "uint256"
        }
      ],
      "payable": false,
      "stateMutability": "view",
      "type": "function"
    },
    {
      "constant": false,
      "inputs": [
        {
          "internalType": "uint256",
          "name": "deposit",
          "type": "uint256"
        },
        {
          "internalType": "address",
          "name": "tokenAddress",
          "type": "address"
        },
        {
          "internalType": "uint256",
          "name": "stopTime",
          "type": "uint256"
        }
      ],
      "name": "createReverseStream",
      "outputs": [
        {
          "internalType": "uint256",
          "name": "",
          "type": "uint256"
        }
      ],
      "payable": false,
      "stateMutability": "nonpayable",
      "type": "function"
    },
    {
      "constant": false,
      "inputs": [
        {
          "internalType": "address",
          "name": "recipient",
          "type": "address"
        },
        {
          "internalType": "uint256",
          "name": "deposit",
          "type": "uint256"
        },
        {
          "internalType": "address",
          "name": "tokenAddress",
          "type": "address"
        },
        {
          "internalType": "uint256",
          "name": "startTime",
          "type": "uint256"
        },
        {
          "internalType": "uint256",
          "name": "stopTime",
          "type": "uint256"
        }
      ],
      "name": "createStream",
      "outputs": [
        {
          "internalType": "uint256",
          "name": "",
          "type": "uint256"
        }
      ],
      "payable": false,
      "stateMutability": "nonpayable",
      "type": "function"
    },
    {
      "constant": false,
      "inputs": [
        {
          "internalType": "uint256",
          "name": "streamId",
          "type": "uint256"
        },
        {
          "internalType": "uint256",
          "name": "amount",
          "type": "uint256"
        }
      ],
      "name": "withdrawFromStream",
      "outputs": [
        {
          "internalType": "bool",
          "name": "",
          "type": "bool"
        }
      ],
      "payable": false,
      "stateMutability": "nonpayable",
      "type": "function"
    },
    {
      "constant": false,
      "inputs": [
        {
          "internalType": "uint256",
          "name": "streamId",
          "type": "uint256"
        }
      ],
      "name": "cancelStream",
      "outputs": [
        {
          "internalType": "bool",
          "name": "",
          "type": "bool"
        }
      ],
      "payable": false,
      "stateMutability": "nonpayable",
      "type": "function"
    },
    {
      "constant": false,
      "inputs": [
        {
          "internalType": "uint256",
          "name": "streamId",
          "type": "uint256"
        }
      ],
      "name": "Close",
      "outputs": [
        {
          "internalType": "bool",
          "name": "",
          "type": "bool"
        }
      ],
      "payable": false,
      "stateMutability": "nonpayable",
      "type": "function"
    },
    {
      "constant": false,
      "inputs": [
        {
          "internalType": "string",
          "name": "_content",
          "type": "string"
        },
        {
          "internalType": "uint256",
          "name": "deposit",
          "type": "uint256"
        },
        {
          "internalType": "address",
          "name": "tokenAddress",
          "type": "address"
        },
        {
          "internalType": "uint256",
          "name": "stopTime",
          "type": "uint256"
        }
      ],
      "name": "reportEvent",
      "outputs": [
        {
          "internalType": "uint256",
          "name": "",
          "type": "uint256"
        }
      ],
      "payable": false,
      "stateMutability": "nonpayable",
      "type": "function"
    },
    {
      "constant": false,
      "inputs": [
        {
          "internalType": "uint256",
          "name": "_id",
          "type": "uint256"
        }
      ],
      "name": "toggleReportValidity",
      "outputs": [
        {
          "internalType": "bool",
          "name": "",
          "type": "bool"
        }
      ],
      "payable": false,
      "stateMutability": "nonpayable",
      "type": "function"
    },
    {
      "constant": true,
      "inputs": [
        {
          "internalType": "address",
          "name": "user",
          "type": "address"
        }
      ],
      "name": "getUserReports",
      "outputs": [
        {
          "components": [
            {
              "internalType": "uint256",
              "name": "Id",
              "type": "uint256"
            },
            {
              "internalType": "string",
              "name": "content",
              "type": "string"
            },
            {
              "internalType": "uint256",
              "name": "amount",
              "type": "uint256"
            },
            {
              "internalType": "uint256",
              "name": "streamId",
              "type": "uint256"
            },
            {
              "internalType": "bool",
              "name": "valid",
              "type": "bool"
            }
          ],
          "internalType": "struct Reports.Report[]",
          "name": "",
          "type": "tuple[]"
        }
      ],
      "payable": false,
      "stateMutability": "view",
      "type": "function"
    },
    {
      "constant": true,
      "inputs": [],
      "name": "getAllReports",
      "outputs": [
        {
          "components": [
            {
              "internalType": "uint256",
              "name": "Id",
              "type": "uint256"
            },
            {
              "internalType": "string",
              "name": "content",
              "type": "string"
            },
            {
              "internalType": "uint256",
              "name": "amount",
              "type": "uint256"
            },
            {
              "internalType": "uint256",
              "name": "streamId",
              "type": "uint256"
            },
            {
              "internalType": "bool",
              "name": "valid",
              "type": "bool"
            }
          ],
          "internalType": "struct Reports.Report[]",
          "name": "",
          "type": "tuple[]"
        }
      ],
      "payable": false,
      "stateMutability": "view",
      "type": "function"
    }
  ],
  "bytecode": "0x608060405234801561001057600080fd5b5060016000806101000a81548160ff0219169083151502179055506000600181905550600060068190555033600860006101000a81548173ffffffffffffffffffffffffffffffffffffffff021916908373ffffffffffffffffffffffffffffffffffffffff160217905550613dce8061008b6000396000f3fe608060405234801561001057600080fd5b50600436106101005760003560e01c8063894e9a0d11610097578063bf67515a11610066578063bf67515a1461033a578063cc1b4bf61461036a578063ddca3f431461039a578063f3d3ddfa146103b857610100565b8063894e9a0d14610273578063a2233a76146102aa578063a5d24f11146102da578063a82ccd4d1461030a57610100565b80636db9241b116100d35780636db9241b146101b35780636edf70c1146101e357806370a05afc146102135780637a9b2c6c1461024357610100565b8063103aa23c146101055780631e99d56914610135578063227245d3146101535780633656eec214610183575b600080fd5b61011f600480360361011a91908101906132b1565b6103d6565b60405161012c9190613b04565b60405180910390f35b61013d6103ed565b60405161014a9190613b04565b60405180910390f35b61016d6004803603610168919081019061324c565b6103f3565b60405161017a9190613969565b60405180910390f35b61019d60048036036101989190810190613275565b6105c9565b6040516101aa9190613b04565b60405180910390f35b6101cd60048036036101c8919081019061324c565b610a17565b6040516101da9190613969565b60405180910390f35b6101fd60048036036101f8919081019061324c565b611029565b60405161020a9190613b04565b60405180910390f35b61022d60048036036102289190810190613108565b61138c565b60405161023a9190613947565b60405180910390f35b61025d60048036036102589190810190613300565b611505565b60405161026a9190613969565b60405180910390f35b61028d6004803603610288919081019061324c565b611b9e565b6040516102a19897969594939291906138a0565b60405180910390f35b6102c460048036036102bf91908101906131d1565b611d42565b6040516102d19190613b04565b60405180910390f35b6102f460048036036102ef919081019061324c565b611f1b565b6040516103019190613b04565b60405180910390f35b610324600480360361031f919081019061324c565b612129565b6040516103319190613b04565b60405180910390f35b610354600480360361034f919081019061324c565b61234c565b6040516103619190613969565b60405180910390f35b610384600480360361037f9190810190613131565b61270e565b6040516103919190613b04565b60405180910390f35b6103a2612bfa565b6040516103af9190613b04565b60405180910390f35b6103c0612c06565b6040516103cd9190613947565b60405180910390f35b60006103e5338585428661270e565b509392505050565b60065481565b60006103fd612e61565b600360008481526020019081526020016000206040518060a001604052908160008201548152602001600182018054600181600116156101000203166002900480601f0160208091040260200160405190810160405280929190818152602001828054600181600116156101000203166002900480156104be5780601f10610493576101008083540402835291602001916104be565b820191906000526020600020905b8154815290600101906020018083116104a157829003601f168201915b5050505050815260200160028201548152602001600382015481526020016004820160009054906101000a900460ff16151515158152505090508060800151158160800190151590811515815250508060036000858152602001908152602001600020600082015181600001556020820151816001019080519060200190610547929190612e92565b50604082015181600201556060820151816003015560808201518160040160006101000a81548160ff0219169083151502179055509050507f56fbed4a8ef23678d4fbf041aca48023380285b4807fe0be67172315f816e26c8382608001516040516105b4929190613b64565b60405180910390a18060800151915050919050565b6000826007600082815260200190815260200160002060070160149054906101000a900460ff1661062f576040517f08c379a0000000000000000000000000000000000000000000000000000000008152600401610626906139c4565b60405180910390fd5b610637612f12565b600760008681526020019081526020016000206040518061012001604052908160008201548152602001600182015481526020016002820154815260200160038201548152602001600482015481526020016005820160009054906101000a900473ffffffffffffffffffffffffffffffffffffffff1673ffffffffffffffffffffffffffffffffffffffff1673ffffffffffffffffffffffffffffffffffffffff1681526020016006820160009054906101000a900473ffffffffffffffffffffffffffffffffffffffff1673ffffffffffffffffffffffffffffffffffffffff1673ffffffffffffffffffffffffffffffffffffffff1681526020016007820160009054906101000a900473ffffffffffffffffffffffffffffffffffffffff1673ffffffffffffffffffffffffffffffffffffffff1673ffffffffffffffffffffffffffffffffffffffff1681526020016007820160149054906101000a900460ff16151515158152505090506107af612fa2565b60006107ba87612129565b90506107ca818460200151612d7d565b8360000184602001828152508260038111156107e257fe5b60038111156107ed57fe5b8152505050600060038111156107ff57fe5b8260000151600381111561080f57fe5b1461084f576040517f08c379a000000000000000000000000000000000000000000000000000000000815260040161084690613a64565b60405180910390fd5b82604001518360000151111561091c5761087183600001518460400151612dd0565b83600001846040018281525082600381111561088957fe5b600381111561089457fe5b8152505050600060038111156108a657fe5b826000015160038111156108b657fe5b146108bd57fe5b6108cf82602001518360400151612dd0565b8360000184602001828152508260038111156108e757fe5b60038111156108f257fe5b81525050506000600381111561090457fe5b8260000151600381111561091457fe5b1461091b57fe5b5b8260a0015173ffffffffffffffffffffffffffffffffffffffff168673ffffffffffffffffffffffffffffffffffffffff1614156109635781602001519450505050610a10565b8260c0015173ffffffffffffffffffffffffffffffffffffffff168673ffffffffffffffffffffffffffffffffffffffff161415610a08576109ad83604001518360200151612dd0565b8360000184606001828152508260038111156109c557fe5b60038111156109d057fe5b8152505050600060038111156109e257fe5b826000015160038111156109f257fe5b146109f957fe5b81606001519450505050610a10565b600094505050505b5092915050565b60008060009054906101000a900460ff16610a67576040517f08c379a0000000000000000000000000000000000000000000000000000000008152600401610a5e90613ac4565b60405180910390fd5b60008060006101000a81548160ff021916908315150217905550816007600082815260200190815260200160002060070160149054906101000a900460ff16610ae5576040517f08c379a0000000000000000000000000000000000000000000000000000000008152600401610adc906139c4565b60405180910390fd5b3373ffffffffffffffffffffffffffffffffffffffff16600860009054906101000a900473ffffffffffffffffffffffffffffffffffffffff1673ffffffffffffffffffffffffffffffffffffffff1614610b75576040517f08c379a0000000000000000000000000000000000000000000000000000000008152600401610b6c906139c4565b60405180910390fd5b610b7d612f12565b600760008581526020019081526020016000206040518061012001604052908160008201548152602001600182015481526020016002820154815260200160038201548152602001600482015481526020016005820160009054906101000a900473ffffffffffffffffffffffffffffffffffffffff1673ffffffffffffffffffffffffffffffffffffffff1673ffffffffffffffffffffffffffffffffffffffff1681526020016006820160009054906101000a900473ffffffffffffffffffffffffffffffffffffffff1673ffffffffffffffffffffffffffffffffffffffff1673ffffffffffffffffffffffffffffffffffffffff1681526020016007820160009054906101000a900473ffffffffffffffffffffffffffffffffffffffff1673ffffffffffffffffffffffffffffffffffffffff1673ffffffffffffffffffffffffffffffffffffffff1681526020016007820160149054906101000a900460ff16151515158152505090506000610cfd858360c001516105c9565b90506000610d0f868460a001516105c9565b90506007600087815260200190815260200160002060008082016000905560018201600090556002820160009055600382016000905560048201600090556005820160006101000a81549073ffffffffffffffffffffffffffffffffffffffff02191690556006820160006101000a81549073ffffffffffffffffffffffffffffffffffffffff02191690556007820160006101000a81549073ffffffffffffffffffffffffffffffffffffffff02191690556007820160146101000a81549060ff0219169055505060008360e0015190506000821115610ebb578073ffffffffffffffffffffffffffffffffffffffff1663a9059cbb8560a00151846040518363ffffffff1660e01b8152600401610e2992919061391e565b602060405180830381600087803b158015610e4357600080fd5b505af1158015610e57573d6000803e3d6000fd5b505050506040513d601f19601f82011682018060405250610e7b91908101906131a8565b610eba576040517f08c379a0000000000000000000000000000000000000000000000000000000008152600401610eb190613ae4565b60405180910390fd5b5b6000831115610f95578073ffffffffffffffffffffffffffffffffffffffff1663a9059cbb8560c00151856040518363ffffffff1660e01b8152600401610f0392919061391e565b602060405180830381600087803b158015610f1d57600080fd5b505af1158015610f31573d6000803e3d6000fd5b505050506040513d601f19601f82011682018060405250610f5591908101906131a8565b610f94576040517f08c379a0000000000000000000000000000000000000000000000000000000008152600401610f8b906139e4565b60405180910390fd5b5b8360a0015173ffffffffffffffffffffffffffffffffffffffff168460c0015173ffffffffffffffffffffffffffffffffffffffff16887fca3e6079b726e7728802a0537949e2d1c7762304fa641fb06eb56daf2ba8c6b98686604051610ffd929190613b8d565b60405180910390a4505050505060016000806101000a81548160ff021916908315150217905550919050565b6000816007600082815260200190815260200160002060070160149054906101000a900460ff1661108f576040517f08c379a0000000000000000000000000000000000000000000000000000000008152600401611086906139c4565b60405180910390fd5b611097612f12565b600760008581526020019081526020016000206040518061012001604052908160008201548152602001600182015481526020016002820154815260200160038201548152602001600482015481526020016005820160009054906101000a900473ffffffffffffffffffffffffffffffffffffffff1673ffffffffffffffffffffffffffffffffffffffff1673ffffffffffffffffffffffffffffffffffffffff1681526020016006820160009054906101000a900473ffffffffffffffffffffffffffffffffffffffff1673ffffffffffffffffffffffffffffffffffffffff1673ffffffffffffffffffffffffffffffffffffffff1681526020016007820160009054906101000a900473ffffffffffffffffffffffffffffffffffffffff1673ffffffffffffffffffffffffffffffffffffffff1673ffffffffffffffffffffffffffffffffffffffff1681526020016007820160149054906101000a900460ff161515151581525050905061120f612fa2565b600061121a86611f1b565b905061122a818460200151612d7d565b83600001846020018281525082600381111561124257fe5b600381111561124d57fe5b81525050506000600381111561125f57fe5b8260000151600381111561126f57fe5b146112af576040517f08c379a00000000000000000000000000000000000000000000000000000000081526004016112a690613a64565b60405180910390fd5b82604001518360000151111561137c576112d183600001518460400151612dd0565b8360000184604001828152508260038111156112e957fe5b60038111156112f457fe5b81525050506000600381111561130657fe5b8260000151600381111561131657fe5b1461131d57fe5b61132f82602001518360400151612dd0565b83600001846020018281525082600381111561134757fe5b600381111561135257fe5b81525050506000600381111561136457fe5b8260000151600381111561137457fe5b1461137b57fe5b5b8160200151945050505050919050565b6060600260008373ffffffffffffffffffffffffffffffffffffffff1673ffffffffffffffffffffffffffffffffffffffff168152602001908152602001600020805480602002602001604051908101604052809291908181526020016000905b828210156114fa57838290600052602060002090600502016040518060a001604052908160008201548152602001600182018054600181600116156101000203166002900480601f0160208091040260200160405190810160405280929190818152602001828054600181600116156101000203166002900480156114b35780601f10611488576101008083540402835291602001916114b3565b820191906000526020600020905b81548152906001019060200180831161149657829003601f168201915b5050505050815260200160028201548152602001600382015481526020016004820160009054906101000a900460ff161515151581525050815260200190600101906113ed565b505050509050919050565b60008060009054906101000a900460ff16611555576040517f08c379a000000000000000000000000000000000000000000000000000000000815260040161154c90613ac4565b60405180910390fd5b60008060006101000a81548160ff021916908315150217905550826007600082815260200190815260200160002060070160149054906101000a900460ff166115d3576040517f08c379a00000000000000000000000000000000000000000000000000000000081526004016115ca906139c4565b60405180910390fd5b836007600082815260200190815260200160002060060160009054906101000a900473ffffffffffffffffffffffffffffffffffffffff1673ffffffffffffffffffffffffffffffffffffffff163373ffffffffffffffffffffffffffffffffffffffff1614806116a557506007600082815260200190815260200160002060050160009054906101000a900473ffffffffffffffffffffffffffffffffffffffff1673ffffffffffffffffffffffffffffffffffffffff163373ffffffffffffffffffffffffffffffffffffffff16145b6116e4576040517f08c379a00000000000000000000000000000000000000000000000000000000081526004016116db90613a84565b60405180910390fd5b60008411611727576040517f08c379a000000000000000000000000000000000000000000000000000000000815260040161171e90613984565b60405180910390fd5b61172f612f12565b600760008781526020019081526020016000206040518061012001604052908160008201548152602001600182015481526020016002820154815260200160038201548152602001600482015481526020016005820160009054906101000a900473ffffffffffffffffffffffffffffffffffffffff1673ffffffffffffffffffffffffffffffffffffffff1673ffffffffffffffffffffffffffffffffffffffff1681526020016006820160009054906101000a900473ffffffffffffffffffffffffffffffffffffffff1673ffffffffffffffffffffffffffffffffffffffff1673ffffffffffffffffffffffffffffffffffffffff1681526020016007820160009054906101000a900473ffffffffffffffffffffffffffffffffffffffff1673ffffffffffffffffffffffffffffffffffffffff1673ffffffffffffffffffffffffffffffffffffffff1681526020016007820160149054906101000a900460ff16151515158152505090506118a7612fd5565b60006118b7888460a001516105c9565b9050868110156118fc576040517f08c379a00000000000000000000000000000000000000000000000000000000081526004016118f3906139a4565b60405180910390fd5b61190a836040015188612dd0565b83600001600760008c81526020019081526020016000206002016000839190505582600381111561193757fe5b600381111561194257fe5b81525050506000600381111561195457fe5b8260000151600381111561196457fe5b1461196b57fe5b6000600760008a8152602001908152602001600020600201541415611a52576007600089815260200190815260200160002060008082016000905560018201600090556002820160009055600382016000905560048201600090556005820160006101000a81549073ffffffffffffffffffffffffffffffffffffffff02191690556006820160006101000a81549073ffffffffffffffffffffffffffffffffffffffff02191690556007820160006101000a81549073ffffffffffffffffffffffffffffffffffffffff02191690556007820160146101000a81549060ff021916905550505b8260e0015173ffffffffffffffffffffffffffffffffffffffff1663a9059cbb8460a00151896040518363ffffffff1660e01b8152600401611a9592919061391e565b602060405180830381600087803b158015611aaf57600080fd5b505af1158015611ac3573d6000803e3d6000fd5b505050506040513d601f19601f82011682018060405250611ae791908101906131a8565b611b26576040517f08c379a0000000000000000000000000000000000000000000000000000000008152600401611b1d90613a24565b60405180910390fd5b8260a0015173ffffffffffffffffffffffffffffffffffffffff16887f36c3ab437e6a424ed25dc4bfdeb62706aa06558660fab2dab229d2555adaf89c89604051611b719190613b04565b60405180910390a3505050505060016000806101000a81548160ff02191690831515021790555092915050565b600080600080600080600080886007600082815260200190815260200160002060070160149054906101000a900460ff16611c0e576040517f08c379a0000000000000000000000000000000000000000000000000000000008152600401611c05906139c4565b60405180910390fd5b600760008b815260200190815260200160002060060160009054906101000a900473ffffffffffffffffffffffffffffffffffffffff169850600760008b815260200190815260200160002060050160009054906101000a900473ffffffffffffffffffffffffffffffffffffffff169750600760008b8152602001908152602001600020600001549650600760008b815260200190815260200160002060070160009054906101000a900473ffffffffffffffffffffffffffffffffffffffff169550600760008b8152602001908152602001600020600301549450600760008b8152602001908152602001600020600401549350600760008b8152602001908152602001600020600201549250600760008b815260200190815260200160002060010154915050919395975091939597565b6000611d4c612e61565b6040518060a0016040528060015481526020018781526020016006548152602001868152602001600115158152509050600260003373ffffffffffffffffffffffffffffffffffffffff1673ffffffffffffffffffffffffffffffffffffffff1681526020019081526020016000208190806001815401808255809150509060018203906000526020600020906005020160009091929091909150600082015181600001556020820151816001019080519060200190611e0d929190612e92565b50604082015181600201556060820151816003015560808201518160040160006101000a81548160ff02191690831515021790555050505080600360006001548152602001908152602001600020600082015181600001556020820151816001019080519060200190611e81929190612e92565b50604082015181600201556060820151816003015560808201518160040160006101000a81548160ff021916908315150217905550905050611ec48585856103d6565b506001600081548092919060010191905055507f13ae4ea8eb28cf5104b119acecdbc7bfcab76402a5caca38c9a5810629876aac33600154604051611f0a929190613877565b60405180910390a150949350505050565b6000816007600082815260200190815260200160002060070160149054906101000a900460ff16611f81576040517f08c379a0000000000000000000000000000000000000000000000000000000008152600401611f78906139c4565b60405180910390fd5b611f89612f12565b600760008581526020019081526020016000206040518061012001604052908160008201548152602001600182015481526020016002820154815260200160038201548152602001600482015481526020016005820160009054906101000a900473ffffffffffffffffffffffffffffffffffffffff1673ffffffffffffffffffffffffffffffffffffffff1673ffffffffffffffffffffffffffffffffffffffff1681526020016006820160009054906101000a900473ffffffffffffffffffffffffffffffffffffffff1673ffffffffffffffffffffffffffffffffffffffff1673ffffffffffffffffffffffffffffffffffffffff1681526020016007820160009054906101000a900473ffffffffffffffffffffffffffffffffffffffff1673ffffffffffffffffffffffffffffffffffffffff1673ffffffffffffffffffffffffffffffffffffffff1681526020016007820160149054906101000a900460ff161515151581525050905080608001514210156121145780606001514203925050612123565b80606001518160800151039250505b50919050565b6000816007600082815260200190815260200160002060070160149054906101000a900460ff1661218f576040517f08c379a0000000000000000000000000000000000000000000000000000000008152600401612186906139c4565b60405180910390fd5b612197612f12565b600760008581526020019081526020016000206040518061012001604052908160008201548152602001600182015481526020016002820154815260200160038201548152602001600482015481526020016005820160009054906101000a900473ffffffffffffffffffffffffffffffffffffffff1673ffffffffffffffffffffffffffffffffffffffff1673ffffffffffffffffffffffffffffffffffffffff1681526020016006820160009054906101000a900473ffffffffffffffffffffffffffffffffffffffff1673ffffffffffffffffffffffffffffffffffffffff1673ffffffffffffffffffffffffffffffffffffffff1681526020016007820160009054906101000a900473ffffffffffffffffffffffffffffffffffffffff1673ffffffffffffffffffffffffffffffffffffffff1673ffffffffffffffffffffffffffffffffffffffff1681526020016007820160149054906101000a900460ff16151515158152505090508060600151421161231c576000925050612346565b80608001514210156123375780606001514203925050612346565b80606001518160800151039250505b50919050565b60008060009054906101000a900460ff1661239c576040517f08c379a000000000000000000000000000000000000000000000000000000000815260040161239390613ac4565b60405180910390fd5b60008060006101000a81548160ff021916908315150217905550816007600082815260200190815260200160002060070160149054906101000a900460ff1661241a576040517f08c379a0000000000000000000000000000000000000000000000000000000008152600401612411906139c4565b60405180910390fd5b600061242584611029565b905061242f612f12565b600760008681526020019081526020016000206040518061012001604052908160008201548152602001600182015481526020016002820154815260200160038201548152602001600482015481526020016005820160009054906101000a900473ffffffffffffffffffffffffffffffffffffffff1673ffffffffffffffffffffffffffffffffffffffff1673ffffffffffffffffffffffffffffffffffffffff1681526020016006820160009054906101000a900473ffffffffffffffffffffffffffffffffffffffff1673ffffffffffffffffffffffffffffffffffffffff1673ffffffffffffffffffffffffffffffffffffffff1681526020016007820160009054906101000a900473ffffffffffffffffffffffffffffffffffffffff1673ffffffffffffffffffffffffffffffffffffffff1673ffffffffffffffffffffffffffffffffffffffff1681526020016007820160149054906101000a900460ff16151515158152505090506007600086815260200190815260200160002060008082016000905560018201600090556002820160009055600382016000905560048201600090556005820160006101000a81549073ffffffffffffffffffffffffffffffffffffffff02191690556006820160006101000a81549073ffffffffffffffffffffffffffffffffffffffff02191690556007820160006101000a81549073ffffffffffffffffffffffffffffffffffffffff02191690556007820160146101000a81549060ff0219169055505060008160e001519050600061267a876103f3565b90508173ffffffffffffffffffffffffffffffffffffffff166342966c68856040518263ffffffff1660e01b81526004016126b59190613b04565b600060405180830381600087803b1580156126cf57600080fd5b505af11580156126e3573d6000803e3d6000fd5b50505050809550505050505060016000806101000a81548160ff021916908315150217905550919050565b6000808511612752576040517f08c379a000000000000000000000000000000000000000000000000000000000815260040161274990613a04565b60405180910390fd5b61275a612ff3565b6127648385612dd0565b82600001836020018281525082600381111561277c57fe5b600381111561278757fe5b81525050506000600381111561279957fe5b816000015160038111156127a957fe5b146127b057fe5b80602001518610156127f7576040517f08c379a00000000000000000000000000000000000000000000000000000000081526004016127ee90613aa4565b60405180910390fd5b612805868260200151612dfb565b82600001836040018281525082600381111561281d57fe5b600381111561282857fe5b81525050506000600381111561283a57fe5b8160000151600381111561284a57fe5b1461285157fe5b60006006549050604051806101200160405280888152602001836040015181526020018881526020018681526020018581526020018973ffffffffffffffffffffffffffffffffffffffff1681526020013373ffffffffffffffffffffffffffffffffffffffff1681526020018773ffffffffffffffffffffffffffffffffffffffff1681526020016001151581525060076000838152602001908152602001600020600082015181600001556020820151816001015560408201518160020155606082015181600301556080820151816004015560a08201518160050160006101000a81548173ffffffffffffffffffffffffffffffffffffffff021916908373ffffffffffffffffffffffffffffffffffffffff16021790555060c08201518160060160006101000a81548173ffffffffffffffffffffffffffffffffffffffff021916908373ffffffffffffffffffffffffffffffffffffffff16021790555060e08201518160070160006101000a81548173ffffffffffffffffffffffffffffffffffffffff021916908373ffffffffffffffffffffffffffffffffffffffff1602179055506101008201518160070160146101000a81548160ff021916908315150217905550905050612a2c6006546001612e2f565b83600001600660008391905055826003811115612a4557fe5b6003811115612a5057fe5b815250505060006003811115612a6257fe5b82600001516003811115612a7257fe5b14612ab2576040517f08c379a0000000000000000000000000000000000000000000000000000000008152600401612aa990613a44565b60405180910390fd5b8573ffffffffffffffffffffffffffffffffffffffff166323b872dd33308a6040518463ffffffff1660e01b8152600401612aef93929190613840565b602060405180830381600087803b158015612b0957600080fd5b505af1158015612b1d573d6000803e3d6000fd5b505050506040513d601f19601f82011682018060405250612b4191908101906131a8565b612b80576040517f08c379a0000000000000000000000000000000000000000000000000000000008152600401612b7790613a24565b60405180910390fd5b8773ffffffffffffffffffffffffffffffffffffffff163373ffffffffffffffffffffffffffffffffffffffff16827f7b01d409597969366dc268d7f957a990d1ca3d3449baf8fb45db67351aecfe788a8a8a8a604051612be49493929190613b1f565b60405180910390a4809250505095945050505050565b60058060000154905081565b606080600154604051908082528060200260200182016040528015612c4557816020015b612c3261301f565b815260200190600190039081612c2a5790505b50905060008090505b600154811015612d7557600360008281526020019081526020016000206040518060a001604052908160008201548152602001600182018054600181600116156101000203166002900480601f016020809104026020016040519081016040528092919081815260200182805460018160011615610100020316600290048015612d195780601f10612cee57610100808354040283529160200191612d19565b820191906000526020600020905b815481529060010190602001808311612cfc57829003601f168201915b5050505050815260200160028201548152602001600382015481526020016004820160009054906101000a900460ff161515151581525050828281518110612d5d57fe5b60200260200101819052508080600101915050612c4e565b508091505090565b6000806000841415612d985760008080905091509150612dc9565b6000838502905083858281612da957fe5b0414612dc057600260008090509250925050612dc9565b60008192509250505b9250929050565b600080838311612de857600083850391509150612df4565b60036000809050915091505b9250929050565b6000806000831415612e17576001600080905091509150612e28565b6000838581612e2257fe5b04915091505b9250929050565b60008060008385019050848110612e4d576000819250925050612e5a565b6002600080905092509250505b9250929050565b6040518060a00160405280600081526020016060815260200160008152602001600081526020016000151581525090565b828054600181600116156101000203166002900490600052602060002090601f016020900481019282601f10612ed357805160ff1916838001178555612f01565b82800160010185558215612f01579182015b82811115612f00578251825591602001919060010190612ee5565b5b509050612f0e9190613050565b5090565b6040518061012001604052806000815260200160008152602001600081526020016000815260200160008152602001600073ffffffffffffffffffffffffffffffffffffffff168152602001600073ffffffffffffffffffffffffffffffffffffffff168152602001600073ffffffffffffffffffffffffffffffffffffffff1681526020016000151581525090565b604051806080016040528060006003811115612fba57fe5b81526020016000815260200160008152602001600081525090565b604051806020016040528060006003811115612fed57fe5b81525090565b60405180606001604052806000600381111561300b57fe5b815260200160008152602001600081525090565b6040518060a00160405280600081526020016060815260200160008152602001600081526020016000151581525090565b61307291905b8082111561306e576000816000905550600101613056565b5090565b90565b60008135905061308481613d46565b92915050565b60008151905061309981613d5d565b92915050565b600082601f8301126130b057600080fd5b81356130c36130be82613be3565b613bb6565b915080825260208301602083018583830111156130df57600080fd5b6130ea838284613cf3565b50505092915050565b60008135905061310281613d74565b92915050565b60006020828403121561311a57600080fd5b600061312884828501613075565b91505092915050565b600080600080600060a0868803121561314957600080fd5b600061315788828901613075565b9550506020613168888289016130f3565b945050604061317988828901613075565b935050606061318a888289016130f3565b925050608061319b888289016130f3565b9150509295509295909350565b6000602082840312156131ba57600080fd5b60006131c88482850161308a565b91505092915050565b600080600080608085870312156131e757600080fd5b600085013567ffffffffffffffff81111561320157600080fd5b61320d8782880161309f565b945050602061321e878288016130f3565b935050604061322f87828801613075565b9250506060613240878288016130f3565b91505092959194509250565b60006020828403121561325e57600080fd5b600061326c848285016130f3565b91505092915050565b6000806040838503121561328857600080fd5b6000613296858286016130f3565b92505060206132a785828601613075565b9150509250929050565b6000806000606084860312156132c657600080fd5b60006132d4868287016130f3565b93505060206132e586828701613075565b92505060406132f6868287016130f3565b9150509250925092565b6000806040838503121561331357600080fd5b6000613321858286016130f3565b9250506020613332858286016130f3565b9150509250929050565b600061334883836137ac565b905092915050565b61335981613cbd565b82525050565b61336881613c75565b82525050565b600061337982613c1f565b6133838185613c42565b93508360208202850161339585613c0f565b8060005b858110156133d157848403895281516133b2858261333c565b94506133bd83613c35565b925060208a01995050600181019050613399565b50829750879550505050505092915050565b6133ec81613c87565b82525050565b6133fb81613c87565b82525050565b600061340c82613c2a565b6134168185613c53565b9350613426818560208601613d02565b61342f81613d35565b840191505092915050565b6000613447600e83613c64565b91507f616d6f756e74206973207a65726f0000000000000000000000000000000000006000830152602082019050919050565b6000613487602483613c64565b91507f616d6f756e7420657863656564732074686520617661696c61626c652062616c60008301527f616e6365000000000000000000000000000000000000000000000000000000006020830152604082019050919050565b60006134ed601583613c64565b91507f73747265616d20646f6573206e6f7420657869737400000000000000000000006000830152602082019050919050565b600061352d601d83613c64565b91507f73656e64657220746f6b656e207472616e73666572206661696c7572650000006000830152602082019050919050565b600061356d600f83613c64565b91507f6465706f736974206973207a65726f00000000000000000000000000000000006000830152602082019050919050565b60006135ad601683613c64565b91507f746f6b656e207472616e73666572206661696c757265000000000000000000006000830152602082019050919050565b60006135ed602083613c64565b91507f6e6578742073747265616d2069642063616c63756c6174696f6e206572726f726000830152602082019050919050565b600061362d602383613c64565b91507f726563697069656e742062616c616e63652063616c63756c6174696f6e20657260008301527f726f7200000000000000000000000000000000000000000000000000000000006020830152604082019050919050565b6000613693603783613c64565b91507f63616c6c6572206973206e6f74207468652073656e646572206f72207468652060008301527f726563697069656e74206f66207468652073747265616d0000000000000000006020830152604082019050919050565b60006136f9601f83613c64565b91507f6465706f73697420736d616c6c6572207468616e2074696d652064656c7461006000830152602082019050919050565b6000613739601f83613c64565b91507f5265656e7472616e637947756172643a207265656e7472616e742063616c6c006000830152602082019050919050565b6000613779602083613c64565b91507f726563697069656e7420746f6b656e207472616e73666572206661696c7572656000830152602082019050919050565b600060a0830160008301516137c46000860182613822565b50602083015184820360208601526137dc8282613401565b91505060408301516137f16040860182613822565b5060608301516138046060860182613822565b50608083015161381760808601826133e3565b508091505092915050565b61382b81613cb3565b82525050565b61383a81613cb3565b82525050565b60006060820190506138556000830186613350565b613862602083018561335f565b61386f6040830184613831565b949350505050565b600060408201905061388c6000830185613350565b6138996020830184613831565b9392505050565b6000610100820190506138b6600083018b61335f565b6138c3602083018a61335f565b6138d06040830189613831565b6138dd606083018861335f565b6138ea6080830187613831565b6138f760a0830186613831565b61390460c0830185613831565b61391160e0830184613831565b9998505050505050505050565b6000604082019050613933600083018561335f565b6139406020830184613831565b9392505050565b60006020820190508181036000830152613961818461336e565b905092915050565b600060208201905061397e60008301846133f2565b92915050565b6000602082019050818103600083015261399d8161343a565b9050919050565b600060208201905081810360008301526139bd8161347a565b9050919050565b600060208201905081810360008301526139dd816134e0565b9050919050565b600060208201905081810360008301526139fd81613520565b9050919050565b60006020820190508181036000830152613a1d81613560565b9050919050565b60006020820190508181036000830152613a3d816135a0565b9050919050565b60006020820190508181036000830152613a5d816135e0565b9050919050565b60006020820190508181036000830152613a7d81613620565b9050919050565b60006020820190508181036000830152613a9d81613686565b9050919050565b60006020820190508181036000830152613abd816136ec565b9050919050565b60006020820190508181036000830152613add8161372c565b9050919050565b60006020820190508181036000830152613afd8161376c565b9050919050565b6000602082019050613b196000830184613831565b92915050565b6000608082019050613b346000830187613831565b613b41602083018661335f565b613b4e6040830185613831565b613b5b6060830184613831565b95945050505050565b6000604082019050613b796000830185613831565b613b8660208301846133f2565b9392505050565b6000604082019050613ba26000830185613831565b613baf6020830184613831565b9392505050565b6000604051905081810181811067ffffffffffffffff82111715613bd957600080fd5b8060405250919050565b600067ffffffffffffffff821115613bfa57600080fd5b601f19601f8301169050602081019050919050565b6000819050602082019050919050565b600081519050919050565b600081519050919050565b6000602082019050919050565b600082825260208201905092915050565b600082825260208201905092915050565b600082825260208201905092915050565b6000613c8082613c93565b9050919050565b60008115159050919050565b600073ffffffffffffffffffffffffffffffffffffffff82169050919050565b6000819050919050565b6000613cc882613ccf565b9050919050565b6000613cda82613ce1565b9050919050565b6000613cec82613c93565b9050919050565b82818337600083830152505050565b60005b83811015613d20578082015181840152602081019050613d05565b83811115613d2f576000848401525b50505050565b6000601f19601f8301169050919050565b613d4f81613c75565b8114613d5a57600080fd5b50565b613d6681613c87565b8114613d7157600080fd5b50565b613d7d81613cb3565b8114613d8857600080fd5b5056fea365627a7a72315820a8b342885620747a3c06886373e51ed3a6f8ee51201fd72bb4370ca962d761686c6578706572696d656e74616cf564736f6c634300050b0040",
  "source": "pragma solidity 0.5.11;\r\npragma experimental ABIEncoderV2;\r\n\r\nimport \"@openzeppelin/contracts/lifecycle/Pausable.sol\";\r\nimport \"@openzeppelin/contracts/ownership/Ownable.sol\";\r\nimport \"@openzeppelin/contracts/token/ERC20/ERC20Burnable.sol\";\r\nimport \"@openzeppelin/contracts/utils/ReentrancyGuard.sol\";\r\nimport \"./compound/Exponential.sol\";\r\nimport \"./interfaces/IERC1620.sol\";\r\nimport \"./Types.sol\";\r\n\r\ncontract Reports is IERC1620, Exponential, ReentrancyGuard  {\r\n\r\n    uint256 reportCount;\r\n\r\n    struct Report {\r\n        uint256 Id;\r\n        string content;\r\n        uint256 amount;\r\n        uint256 streamId;\r\n        bool valid;\r\n    }\r\n\r\n    /**\r\n     * @notice Reports made per address.\r\n     */\r\n    mapping(address => Report[]) private reports;\r\n\r\n    mapping(uint256 => Report) private allReports;\r\n    \r\n    event Reported(address by, uint256 id);\r\n    event ToggledValidity(uint256 id, bool valid);\r\n\r\n       /**\r\n     * @notice The amount of interest has been accrued per token address.\r\n     */\r\n    mapping(address => uint256) private earnings;\r\n\r\n    /**\r\n     * @notice The percentage fee charged by the contract on the accrued interest.\r\n     */\r\n    Exp public fee;\r\n\r\n    /**\r\n     * @notice Counter for new stream ids.\r\n     */\r\n    uint256 public nextStreamId;\r\n\r\n    /**\r\n     * @notice The stream objects identifiable by their unsigned integer ids.\r\n     */\r\n    mapping(uint256 => Types.Stream) private streams;\r\n\r\n    address owner;\r\n\r\n    /*** Modifiers ***/\r\n    /**\r\n     * @dev Throws if the caller is not the sender of the recipient of the stream.\r\n     */\r\n    modifier onlySenderOrRecipient(uint256 streamId) {\r\n        require(\r\n            msg.sender == streams[streamId].sender ||\r\n                msg.sender == streams[streamId].recipient,\r\n            \"caller is not the sender or the recipient of the stream\"\r\n        );\r\n        _;\r\n    }\r\n\r\n    /**\r\n     * @dev Throws if the provided id does not point to a valid stream.\r\n     */\r\n    modifier streamExists(uint256 streamId) {\r\n        require(streams[streamId].isEntity, \"stream does not exist\");\r\n        _;\r\n    }\r\n\r\n    /**\r\n     * @dev Throws if the provided id does not point to a valid stream.\r\n     */\r\n    modifier onlyOwner() {\r\n        require(owner == msg.sender, \"stream does not exist\");\r\n        _;\r\n    }\r\n\r\n    /*** Contract Logic Starts Here */\r\n\r\n    constructor() public {\r\n        reportCount = 0;\r\n        nextStreamId = 0;\r\n        owner = msg.sender;\r\n    }\r\n\r\n    /*** View Functions ***/\r\n\r\n    /**\r\n     * @notice Returns the compounding stream with all its properties.\r\n     * @dev Throws if the id does not point to a valid stream.\r\n     * @param streamId The id of the stream to query.\r\n     * @return The stream object.\r\n     */\r\n    function getStream(uint256 streamId)\r\n        external\r\n        view\r\n        streamExists(streamId)\r\n        returns (\r\n            address sender,\r\n            address recipient,\r\n            uint256 deposit,\r\n            address tokenAddress,\r\n            uint256 startTime,\r\n            uint256 stopTime,\r\n            uint256 remainingBalance,\r\n            uint256 ratePerSecond\r\n        )\r\n    {\r\n        sender = streams[streamId].sender;\r\n        recipient = streams[streamId].recipient;\r\n        deposit = streams[streamId].deposit;\r\n        tokenAddress = streams[streamId].tokenAddress;\r\n        startTime = streams[streamId].startTime;\r\n        stopTime = streams[streamId].stopTime;\r\n        remainingBalance = streams[streamId].remainingBalance;\r\n        ratePerSecond = streams[streamId].ratePerSecond;\r\n    }\r\n\r\n    /**\r\n     * @notice Returns either the delta in seconds between `block.timestamp` and `startTime` or\r\n     *  between `stopTime` and `startTime, whichever is smaller. If `block.timestamp` is before\r\n     *  `startTime`, it returns 0.\r\n     * @dev Throws if the id does not point to a valid stream.\r\n     * @param streamId The id of the stream for which to query the delta.\r\n     * @return The time delta in seconds.\r\n     */\r\n    function deltaOf(uint256 streamId)\r\n        public\r\n        view\r\n        streamExists(streamId)\r\n        returns (uint256 delta)\r\n    {\r\n        Types.Stream memory stream = streams[streamId];\r\n        if (block.timestamp <= stream.startTime) return 0;\r\n        if (block.timestamp < stream.stopTime)\r\n            return block.timestamp - stream.startTime;\r\n        return stream.stopTime - stream.startTime;\r\n    }\r\n\r\n    function deltaOfReverseStream(uint256 streamId)\r\n        public\r\n        view\r\n        streamExists(streamId)\r\n        returns (uint256 delta)\r\n    {\r\n        Types.Stream memory stream = streams[streamId];\r\n        if (block.timestamp < stream.stopTime)\r\n            return block.timestamp - stream.startTime;\r\n        return stream.stopTime - stream.startTime;\r\n    }\r\n\r\n    struct BalanceOfLocalVars {\r\n        MathError mathErr;\r\n        uint256 recipientBalance;\r\n        uint256 withdrawalAmount;\r\n        uint256 senderBalance;\r\n    }\r\n\r\n    /**\r\n     * @notice Returns the available funds for the given stream id and address.\r\n     * @dev Throws if the id does not point to a valid stream.\r\n     * @param streamId The id of the stream for which to query the balance.\r\n     * @return The total funds allocated to `receiver` as uint256.\r\n     */\r\n    function balanceOfReverseStream(uint256 streamId)\r\n        public\r\n        view\r\n        streamExists(streamId)\r\n        returns (uint256 balance)\r\n    {\r\n        Types.Stream memory stream = streams[streamId];\r\n        BalanceOfLocalVars memory vars;\r\n\r\n        uint256 delta = deltaOfReverseStream(streamId);\r\n        (vars.mathErr, vars.recipientBalance) = mulUInt(\r\n            delta,\r\n            stream.ratePerSecond\r\n        );\r\n        require(\r\n            vars.mathErr == MathError.NO_ERROR,\r\n            \"recipient balance calculation error\"\r\n        );\r\n\r\n        /*\r\n         * If the stream `balance` does not equal `deposit`, it means there have been withdrawals.\r\n         * We have to subtract the total amount withdrawn from the amount of money that has been\r\n         * streamed until now.\r\n         */\r\n        if (stream.deposit > stream.remainingBalance) {\r\n            (vars.mathErr, vars.withdrawalAmount) = subUInt(\r\n                stream.deposit,\r\n                stream.remainingBalance\r\n            );\r\n\r\n            assert(vars.mathErr == MathError.NO_ERROR);\r\n            (vars.mathErr, vars.recipientBalance) = subUInt(\r\n                vars.recipientBalance,\r\n                vars.withdrawalAmount\r\n            );\r\n            /* `withdrawalAmount` cannot and should not be bigger than `recipientBalance`. */\r\n            assert(vars.mathErr == MathError.NO_ERROR);\r\n        }\r\n\r\n        return vars.recipientBalance;\r\n    }\r\n\r\n    /**\r\n     * @notice Returns the available funds for the given stream id and address.\r\n     * @dev Throws if the id does not point to a valid stream.\r\n     * @param streamId The id of the stream for which to query the balance.\r\n     * @param who The address for which to query the balance.\r\n     * @return The total funds allocated to `who` as uint256.\r\n     */\r\n    function balanceOf(uint256 streamId, address who)\r\n        public\r\n        view\r\n        streamExists(streamId)\r\n        returns (uint256 balance)\r\n    {\r\n        Types.Stream memory stream = streams[streamId];\r\n        BalanceOfLocalVars memory vars;\r\n\r\n        uint256 delta = deltaOf(streamId);\r\n        (vars.mathErr, vars.recipientBalance) = mulUInt(\r\n            delta,\r\n            stream.ratePerSecond\r\n        );\r\n        require(\r\n            vars.mathErr == MathError.NO_ERROR,\r\n            \"recipient balance calculation error\"\r\n        );\r\n\r\n        /*\r\n         * If the stream `balance` does not equal `deposit`, it means there have been withdrawals.\r\n         * We have to subtract the total amount withdrawn from the amount of money that has been\r\n         * streamed until now.\r\n         */\r\n        if (stream.deposit > stream.remainingBalance) {\r\n            (vars.mathErr, vars.withdrawalAmount) = subUInt(\r\n                stream.deposit,\r\n                stream.remainingBalance\r\n            );\r\n            assert(vars.mathErr == MathError.NO_ERROR);\r\n            (vars.mathErr, vars.recipientBalance) = subUInt(\r\n                vars.recipientBalance,\r\n                vars.withdrawalAmount\r\n            );\r\n            /* `withdrawalAmount` cannot and should not be bigger than `recipientBalance`. */\r\n            assert(vars.mathErr == MathError.NO_ERROR);\r\n        }\r\n\r\n        if (who == stream.recipient) return vars.recipientBalance;\r\n        if (who == stream.sender) {\r\n            (vars.mathErr, vars.senderBalance) = subUInt(\r\n                stream.remainingBalance,\r\n                vars.recipientBalance\r\n            );\r\n            /* `recipientBalance` cannot and should not be bigger than `remainingBalance`. */\r\n            assert(vars.mathErr == MathError.NO_ERROR);\r\n            return vars.senderBalance;\r\n        }\r\n        return 0;\r\n    }\r\n\r\n    /*** Public Effects & Interactions Functions ***/\r\n\r\n    struct CreateStreamLocalVars {\r\n        MathError mathErr;\r\n        uint256 duration;\r\n        uint256 ratePerSecond;\r\n    }\r\n\r\n    /**\r\n     * @notice Creates a new reverse stream stream funded by `msg.sender` and paid towards `msg.sender`.\r\n     * @dev Throws if paused.\r\n     *  Throws if the deposit is 0.\r\n     *  Throws if the start time is before `block.timestamp`.\r\n     *  Throws if the stop time is before the start time.\r\n     *  Throws if the duration calculation has a math error.\r\n     *  Throws if the deposit is smaller than the duration.\r\n     *  Throws if the deposit is not a multiple of the duration.\r\n     *  Throws if the rate calculation has a math error.\r\n     *  Throws if the next stream id calculation has a math error.\r\n     *  Throws if the contract is not allowed to transfer enough tokens.\r\n     *  Throws if there is a token transfer failure.\r\n     * @param deposit The amount of money to be streamed.\r\n     * @param tokenAddress The ERC20 token to use as streaming currency.\r\n     * @param stopTime The unix timestamp for when the stream stops.\r\n     * @return The uint256 id of the newly created stream.\r\n     */\r\n    function createReverseStream(\r\n        uint256 deposit,\r\n        address tokenAddress,\r\n        uint256 stopTime\r\n    ) public returns (uint256) {\r\n        createStream(\r\n            msg.sender,\r\n            deposit,\r\n            tokenAddress,\r\n            block.timestamp,\r\n            stopTime\r\n        );\r\n    }\r\n\r\n    /**\r\n     * @notice Creates a new  stream stream funded by `msg.sender` and paid towards `msg.sender`.\r\n     * @dev Throws if paused.\r\n     *  Throws if the deposit is 0.\r\n     *  Throws if the start time is before `block.timestamp`.\r\n     *  Throws if the stop time is before the start time.\r\n     *  Throws if the duration calculation has a math error.\r\n     *  Throws if the deposit is smaller than the duration.\r\n     *  Throws if the deposit is not a multiple of the duration.\r\n     *  Throws if the rate calculation has a math error.\r\n     *  Throws if the next stream id calculation has a math error.\r\n     *  Throws if the contract is not allowed to transfer enough tokens.\r\n     *  Throws if there is a token transfer failure.\r\n     * @param recipient The address towards which the money is streamed.\r\n     * @param deposit The amount of money to be streamed.\r\n     * @param tokenAddress The ERC20 token to use as streaming currency.\r\n     * @param startTime The unix timestamp for when the stream starts.\r\n     * @param stopTime The unix timestamp for when the stream stops.\r\n     * @return The uint256 id of the newly created stream.\r\n     */\r\n    function createStream(\r\n        address recipient,\r\n        uint256 deposit,\r\n        address tokenAddress,\r\n        uint256 startTime,\r\n        uint256 stopTime\r\n    ) public returns (uint256) {\r\n        // require(recipient != address(0x00), \"stream to the zero address\");\r\n        // require(recipient != address(this), \"stream to the contract itself\");\r\n        // require(recipient != msg.sender, \"stream to the caller\");\r\n        require(deposit > 0, \"deposit is zero\");\r\n        // require(\r\n        //     startTime >= block.timestamp,\r\n        //     \"start time before block.timestamp\"\r\n        // );\r\n\r\n        // require(stopTime > startTime, \"stop time before the start time\");\r\n\r\n        CreateStreamLocalVars memory vars;\r\n        (vars.mathErr, vars.duration) = subUInt(stopTime, startTime);\r\n        /* `subUInt` can only return MathError.INTEGER_UNDERFLOW but we know `stopTime` is higher than `startTime`. */\r\n        assert(vars.mathErr == MathError.NO_ERROR);\r\n\r\n        /* Without this, the rate per second would be zero. */\r\n        require(deposit >= vars.duration, \"deposit smaller than time delta\");\r\n\r\n        /* This condition avoids dealing with remainders */\r\n        // require(\r\n        //     deposit % vars.duration == 0,\r\n        //     \"deposit not multiple of time delta\"\r\n        // );\r\n\r\n        (vars.mathErr, vars.ratePerSecond) = divUInt(deposit, vars.duration);\r\n        /* `divUInt` can only return MathError.DIVISION_BY_ZERO but we know `duration` is not zero. */\r\n        assert(vars.mathErr == MathError.NO_ERROR);\r\n\r\n        /* Create and store the stream object. */\r\n        uint256 streamId = nextStreamId;\r\n        streams[streamId] = Types.Stream({\r\n            remainingBalance: deposit,\r\n            deposit: deposit,\r\n            isEntity: true,\r\n            ratePerSecond: vars.ratePerSecond,\r\n            recipient: recipient,\r\n            sender: msg.sender,\r\n            startTime: startTime,\r\n            stopTime: stopTime,\r\n            tokenAddress: tokenAddress\r\n        });\r\n\r\n        /* Increment the next stream id. */\r\n        (vars.mathErr, nextStreamId) = addUInt(nextStreamId, uint256(1));\r\n        require(\r\n            vars.mathErr == MathError.NO_ERROR,\r\n            \"next stream id calculation error\"\r\n        );\r\n\r\n        require(\r\n            ERC20Burnable(tokenAddress).transferFrom(\r\n                msg.sender,\r\n                address(this),\r\n                deposit\r\n            ),\r\n            \"token transfer failure\"\r\n        );\r\n        emit CreateStream(\r\n            streamId,\r\n            msg.sender,\r\n            recipient,\r\n            deposit,\r\n            tokenAddress,\r\n            startTime,\r\n            stopTime\r\n        );\r\n        return streamId;\r\n    }\r\n\r\n    struct WithdrawFromStreamLocalVars {\r\n        MathError mathErr;\r\n    }\r\n\r\n    /**\r\n     * @notice Withdraws from the contract to the recipient's account.\r\n     * @dev Throws if the id does not point to a valid stream.\r\n     *  Throws if the caller is not the sender or the recipient of the stream.\r\n     *  Throws if the amount exceeds the available balance.\r\n     *  Throws if there is a token transfer failure.\r\n     * @param streamId The id of the stream to withdraw tokens from.\r\n     * @param amount The amount of tokens to withdraw.\r\n     * @return bool true=success, otherwise false.\r\n     */\r\n    function withdrawFromStream(uint256 streamId, uint256 amount)\r\n        external\r\n        nonReentrant\r\n        streamExists(streamId)\r\n        onlySenderOrRecipient(streamId)\r\n        returns (bool)\r\n    {\r\n        require(amount > 0, \"amount is zero\");\r\n        Types.Stream memory stream = streams[streamId];\r\n        WithdrawFromStreamLocalVars memory vars;\r\n\r\n        uint256 balance = balanceOf(streamId, stream.recipient);\r\n        require(balance >= amount, \"amount exceeds the available balance\");\r\n\r\n        (vars.mathErr, streams[streamId].remainingBalance) = subUInt(\r\n            stream.remainingBalance,\r\n            amount\r\n        );\r\n        /**\r\n         * `subUInt` can only return MathError.INTEGER_UNDERFLOW but we know that `remainingBalance` is at least\r\n         * as big as `amount`.\r\n         */\r\n        assert(vars.mathErr == MathError.NO_ERROR);\r\n\r\n        if (streams[streamId].remainingBalance == 0) delete streams[streamId];\r\n\r\n        require(\r\n            ERC20Burnable(stream.tokenAddress).transfer(\r\n                stream.recipient,\r\n                amount\r\n            ),\r\n            \"token transfer failure\"\r\n        );\r\n        emit WithdrawFromStream(streamId, stream.recipient, amount);\r\n    }\r\n\r\n    /**\r\n     * @notice Cancels the stream and transfers the tokens back on a pro rata basis.\r\n     * @dev Throws if the id does not point to a valid stream.\r\n     *  Throws if the caller is not the sender or the recipient of the stream.\r\n     *  Throws if there is a token transfer failure.\r\n     * @param streamId The id of the stream to cancel.\r\n     * @return bool true=success, otherwise false.\r\n     */\r\n    function cancelStream(uint256 streamId)\r\n        external\r\n        nonReentrant\r\n        streamExists(streamId)\r\n        onlyOwner()\r\n        returns (bool)\r\n    {\r\n        Types.Stream memory stream = streams[streamId];\r\n        uint256 senderBalance = balanceOf(streamId, stream.sender);\r\n        uint256 recipientBalance = balanceOf(streamId, stream.recipient);\r\n\r\n        delete streams[streamId];\r\n\r\n        ERC20Burnable token = ERC20Burnable(stream.tokenAddress);\r\n        if (recipientBalance > 0)\r\n            require(\r\n                token.transfer(stream.recipient, recipientBalance),\r\n                \"recipient token transfer failure\"\r\n            );\r\n        if (senderBalance > 0)\r\n            require(\r\n                token.transfer(stream.sender, senderBalance),\r\n                \"sender token transfer failure\"\r\n            );\r\n\r\n        emit CancelStream(\r\n            streamId,\r\n            stream.sender,\r\n            stream.recipient,\r\n            senderBalance,\r\n            recipientBalance\r\n        );\r\n    }\r\n\r\n    // TODO make it permissioned to only the receiver address\r\n    function Close(uint256 streamId)\r\n        external\r\n        nonReentrant\r\n        streamExists(streamId)\r\n        returns (bool) \r\n    {\r\n        uint256 remainingBalance = balanceOfReverseStream(streamId);\r\n        Types.Stream memory stream = streams[streamId];\r\n        delete streams[streamId];\r\n        ERC20Burnable token = ERC20Burnable(stream.tokenAddress);\r\n\r\n        bool valid = toggleReportValidity(streamId);\r\n        token.burn(remainingBalance);\r\n\r\n        return valid;\r\n    }\r\n    \r\n    function reportEvent(\r\n        string memory _content,\r\n        uint256 deposit,\r\n        address tokenAddress,\r\n        uint256 stopTime\r\n    ) public returns (uint256) {\r\n        Report memory report = Report(reportCount, _content, nextStreamId, deposit, true);\r\n        reports[msg.sender].push(\r\n            report\r\n        );\r\n\r\n        allReports[reportCount] = report;\r\n\r\n        createReverseStream(\r\n            deposit,\r\n            tokenAddress,\r\n            stopTime\r\n        );\r\n\r\n        reportCount++;\r\n        emit Reported(msg.sender, reportCount);\r\n    }\r\n\r\n    function toggleReportValidity(\r\n        uint256 _id\r\n    ) public returns (bool) {\r\n        Report memory _report = allReports[_id];\r\n        _report.valid = !_report.valid;\r\n        allReports[_id] = _report;\r\n\r\n        emit ToggledValidity(_id, _report.valid);\r\n\r\n        return _report.valid;\r\n    }\r\n\r\n    function getUserReports(address user) public view returns (Report[] memory){\r\n        return reports[user];\r\n    }\r\n\r\n    function getAllReports() public view returns (Report[] memory){\r\n        Report[] memory reportArr = new Report[](reportCount);\r\n\r\n        for (uint i=0; i<reportCount; i++){\r\n            reportArr[i] = allReports[i];\r\n        }\r\n\r\n        return reportArr;\r\n    }\r\n}",
  "sourcePath": "D:/Documents/hac/blockchain/contracts/Reports.sol",
  "compiler": {
    "name": "solc",
    "version": "0.5.11+commit.c082d0b4.Emscripten.clang"
  },
  "schemaVersion": "3.2.5",
  "updatedAt": "2020-11-21T12:45:27.995Z",
  "networkType": "ethereum",
  "devdoc": {
    "methods": {
      "balanceOf(uint256,address)": {
        "details": "Throws if the id does not point to a valid stream.\r",
        "params": {
          "streamId": "The id of the stream for which to query the balance.\r",
          "who": "The address for which to query the balance.\r"
        },
        "return": "The total funds allocated to `who` as uint256.\r"
      },
      "balanceOfReverseStream(uint256)": {
        "details": "Throws if the id does not point to a valid stream.\r",
        "params": {
          "streamId": "The id of the stream for which to query the balance.\r"
        },
        "return": "The total funds allocated to `receiver` as uint256.\r"
      },
      "cancelStream(uint256)": {
        "details": "Throws if the id does not point to a valid stream.\r Throws if the caller is not the sender or the recipient of the stream.\r Throws if there is a token transfer failure.\r",
        "params": {
          "streamId": "The id of the stream to cancel.\r"
        },
        "return": "bool true=success, otherwise false.\r"
      },
      "createReverseStream(uint256,address,uint256)": {
        "details": "Throws if paused.\r Throws if the deposit is 0.\r Throws if the start time is before `block.timestamp`.\r Throws if the stop time is before the start time.\r Throws if the duration calculation has a math error.\r Throws if the deposit is smaller than the duration.\r Throws if the deposit is not a multiple of the duration.\r Throws if the rate calculation has a math error.\r Throws if the next stream id calculation has a math error.\r Throws if the contract is not allowed to transfer enough tokens.\r Throws if there is a token transfer failure.\r",
        "params": {
          "deposit": "The amount of money to be streamed.\r",
          "stopTime": "The unix timestamp for when the stream stops.\r",
          "tokenAddress": "The ERC20 token to use as streaming currency.\r"
        },
        "return": "The uint256 id of the newly created stream.\r"
      },
      "createStream(address,uint256,address,uint256,uint256)": {
        "details": "Throws if paused.\r Throws if the deposit is 0.\r Throws if the start time is before `block.timestamp`.\r Throws if the stop time is before the start time.\r Throws if the duration calculation has a math error.\r Throws if the deposit is smaller than the duration.\r Throws if the deposit is not a multiple of the duration.\r Throws if the rate calculation has a math error.\r Throws if the next stream id calculation has a math error.\r Throws if the contract is not allowed to transfer enough tokens.\r Throws if there is a token transfer failure.\r",
        "params": {
          "deposit": "The amount of money to be streamed.\r",
          "recipient": "The address towards which the money is streamed.\r",
          "startTime": "The unix timestamp for when the stream starts.\r",
          "stopTime": "The unix timestamp for when the stream stops.\r",
          "tokenAddress": "The ERC20 token to use as streaming currency.\r"
        },
        "return": "The uint256 id of the newly created stream.\r"
      },
      "deltaOf(uint256)": {
        "details": "Throws if the id does not point to a valid stream.\r",
        "params": {
          "streamId": "The id of the stream for which to query the delta.\r"
        },
        "return": "The time delta in seconds.\r"
      },
      "getStream(uint256)": {
        "details": "Throws if the id does not point to a valid stream.\r",
        "params": {
          "streamId": "The id of the stream to query.\r"
        },
        "return": "The stream object.\r"
      },
      "withdrawFromStream(uint256,uint256)": {
        "details": "Throws if the id does not point to a valid stream.\r Throws if the caller is not the sender or the recipient of the stream.\r Throws if the amount exceeds the available balance.\r Throws if there is a token transfer failure.\r",
        "params": {
          "amount": "The amount of tokens to withdraw.\r",
          "streamId": "The id of the stream to withdraw tokens from.\r"
        },
        "return": "bool true=success, otherwise false.\r"
      }
    }
  },
  "userdoc": {
    "methods": {
      "balanceOf(uint256,address)": {
        "notice": "Returns the available funds for the given stream id and address.\r"
      },
      "balanceOfReverseStream(uint256)": {
        "notice": "Returns the available funds for the given stream id and address.\r"
      },
      "cancelStream(uint256)": {
        "notice": "Cancels the stream and transfers the tokens back on a pro rata basis.\r"
      },
      "constructor": "* Contract Logic Starts Here ",
      "createReverseStream(uint256,address,uint256)": {
        "notice": "Creates a new reverse stream stream funded by `msg.sender` and paid towards `msg.sender`.\r"
      },
      "createStream(address,uint256,address,uint256,uint256)": {
        "notice": "Creates a new  stream stream funded by `msg.sender` and paid towards `msg.sender`.\r"
      },
      "deltaOf(uint256)": {
        "notice": "Returns either the delta in seconds between `block.timestamp` and `startTime` or\r between `stopTime` and `startTime, whichever is smaller. If `block.timestamp` is before\r `startTime`, it returns 0.\r"
      },
      "getStream(uint256)": {
        "notice": "Returns the compounding stream with all its properties.\r"
      },
      "withdrawFromStream(uint256,uint256)": {
        "notice": "Withdraws from the contract to the recipient's account.\r"
      }
    }
  }
}