{
  "contractName": "Reports",
  "abi": [
    {
      "constant": true,
      "inputs": [],
      "name": "nextStreamId",
      "outputs": [
        {
          "internalType": "uint256",
          "name": "",
          "type": "uint256"
        }
      ],
      "payable": false,
      "stateMutability": "view",
      "type": "function"
    },
    {
      "constant": true,
      "inputs": [],
      "name": "fee",
      "outputs": [
        {
          "internalType": "uint256",
          "name": "mantissa",
          "type": "uint256"
        }
      ],
      "payable": false,
      "stateMutability": "view",
      "type": "function"
    },
    {
      "inputs": [],
      "payable": false,
      "stateMutability": "nonpayable",
      "type": "constructor"
    },
    {
      "anonymous": false,
      "inputs": [
        {
          "indexed": false,
          "internalType": "address",
          "name": "by",
          "type": "address"
        },
        {
          "indexed": false,
          "internalType": "uint256",
          "name": "id",
          "type": "uint256"
        }
      ],
      "name": "Reported",
      "type": "event"
    },
    {
      "anonymous": false,
      "inputs": [
        {
          "indexed": true,
          "internalType": "uint256",
          "name": "streamId",
          "type": "uint256"
        },
        {
          "indexed": true,
          "internalType": "address",
          "name": "sender",
          "type": "address"
        },
        {
          "indexed": true,
          "internalType": "address",
          "name": "recipient",
          "type": "address"
        },
        {
          "indexed": false,
          "internalType": "uint256",
          "name": "deposit",
          "type": "uint256"
        },
        {
          "indexed": false,
          "internalType": "address",
          "name": "tokenAddress",
          "type": "address"
        },
        {
          "indexed": false,
          "internalType": "uint256",
          "name": "startTime",
          "type": "uint256"
        },
        {
          "indexed": false,
          "internalType": "uint256",
          "name": "stopTime",
          "type": "uint256"
        }
      ],
      "name": "CreateStream",
      "type": "event"
    },
    {
      "anonymous": false,
      "inputs": [
        {
          "indexed": true,
          "internalType": "uint256",
          "name": "streamId",
          "type": "uint256"
        },
        {
          "indexed": true,
          "internalType": "address",
          "name": "recipient",
          "type": "address"
        },
        {
          "indexed": false,
          "internalType": "uint256",
          "name": "amount",
          "type": "uint256"
        }
      ],
      "name": "WithdrawFromStream",
      "type": "event"
    },
    {
      "anonymous": false,
      "inputs": [
        {
          "indexed": true,
          "internalType": "uint256",
          "name": "streamId",
          "type": "uint256"
        },
        {
          "indexed": true,
          "internalType": "address",
          "name": "sender",
          "type": "address"
        },
        {
          "indexed": true,
          "internalType": "address",
          "name": "recipient",
          "type": "address"
        },
        {
          "indexed": false,
          "internalType": "uint256",
          "name": "senderBalance",
          "type": "uint256"
        },
        {
          "indexed": false,
          "internalType": "uint256",
          "name": "recipientBalance",
          "type": "uint256"
        }
      ],
      "name": "CancelStream",
      "type": "event"
    },
    {
      "constant": true,
      "inputs": [
        {
          "internalType": "uint256",
          "name": "streamId",
          "type": "uint256"
        }
      ],
      "name": "getStream",
      "outputs": [
        {
          "internalType": "address",
          "name": "sender",
          "type": "address"
        },
        {
          "internalType": "address",
          "name": "recipient",
          "type": "address"
        },
        {
          "internalType": "uint256",
          "name": "deposit",
          "type": "uint256"
        },
        {
          "internalType": "address",
          "name": "tokenAddress",
          "type": "address"
        },
        {
          "internalType": "uint256",
          "name": "startTime",
          "type": "uint256"
        },
        {
          "internalType": "uint256",
          "name": "stopTime",
          "type": "uint256"
        },
        {
          "internalType": "uint256",
          "name": "remainingBalance",
          "type": "uint256"
        },
        {
          "internalType": "uint256",
          "name": "ratePerSecond",
          "type": "uint256"
        }
      ],
      "payable": false,
      "stateMutability": "view",
      "type": "function"
    },
    {
      "constant": true,
      "inputs": [
        {
          "internalType": "uint256",
          "name": "streamId",
          "type": "uint256"
        }
      ],
      "name": "deltaOf",
      "outputs": [
        {
          "internalType": "uint256",
          "name": "delta",
          "type": "uint256"
        }
      ],
      "payable": false,
      "stateMutability": "view",
      "type": "function"
    },
    {
      "constant": true,
      "inputs": [
        {
          "internalType": "uint256",
          "name": "streamId",
          "type": "uint256"
        }
      ],
      "name": "deltaOfReverseStream",
      "outputs": [
        {
          "internalType": "uint256",
          "name": "delta",
          "type": "uint256"
        }
      ],
      "payable": false,
      "stateMutability": "view",
      "type": "function"
    },
    {
      "constant": true,
      "inputs": [
        {
          "internalType": "uint256",
          "name": "streamId",
          "type": "uint256"
        }
      ],
      "name": "balanceOfReverseStream",
      "outputs": [
        {
          "internalType": "uint256",
          "name": "balance",
          "type": "uint256"
        }
      ],
      "payable": false,
      "stateMutability": "view",
      "type": "function"
    },
    {
      "constant": true,
      "inputs": [
        {
          "internalType": "uint256",
          "name": "streamId",
          "type": "uint256"
        },
        {
          "internalType": "address",
          "name": "who",
          "type": "address"
        }
      ],
      "name": "balanceOf",
      "outputs": [
        {
          "internalType": "uint256",
          "name": "balance",
          "type": "uint256"
        }
      ],
      "payable": false,
      "stateMutability": "view",
      "type": "function"
    },
    {
      "constant": false,
      "inputs": [
        {
          "internalType": "uint256",
          "name": "deposit",
          "type": "uint256"
        },
        {
          "internalType": "address",
          "name": "tokenAddress",
          "type": "address"
        },
        {
          "internalType": "uint256",
          "name": "stopTime",
          "type": "uint256"
        }
      ],
      "name": "createReverseStream",
      "outputs": [
        {
          "internalType": "uint256",
          "name": "",
          "type": "uint256"
        }
      ],
      "payable": false,
      "stateMutability": "nonpayable",
      "type": "function"
    },
    {
      "constant": false,
      "inputs": [
        {
          "internalType": "address",
          "name": "recipient",
          "type": "address"
        },
        {
          "internalType": "uint256",
          "name": "deposit",
          "type": "uint256"
        },
        {
          "internalType": "address",
          "name": "tokenAddress",
          "type": "address"
        },
        {
          "internalType": "uint256",
          "name": "startTime",
          "type": "uint256"
        },
        {
          "internalType": "uint256",
          "name": "stopTime",
          "type": "uint256"
        }
      ],
      "name": "createStream",
      "outputs": [
        {
          "internalType": "uint256",
          "name": "",
          "type": "uint256"
        }
      ],
      "payable": false,
      "stateMutability": "nonpayable",
      "type": "function"
    },
    {
      "constant": false,
      "inputs": [
        {
          "internalType": "uint256",
          "name": "streamId",
          "type": "uint256"
        },
        {
          "internalType": "uint256",
          "name": "amount",
          "type": "uint256"
        }
      ],
      "name": "withdrawFromStream",
      "outputs": [
        {
          "internalType": "bool",
          "name": "",
          "type": "bool"
        }
      ],
      "payable": false,
      "stateMutability": "nonpayable",
      "type": "function"
    },
    {
      "constant": false,
      "inputs": [
        {
          "internalType": "uint256",
          "name": "streamId",
          "type": "uint256"
        }
      ],
      "name": "cancelStream",
      "outputs": [
        {
          "internalType": "bool",
          "name": "",
          "type": "bool"
        }
      ],
      "payable": false,
      "stateMutability": "nonpayable",
      "type": "function"
    },
    {
      "constant": false,
      "inputs": [
        {
          "internalType": "uint256",
          "name": "streamId",
          "type": "uint256"
        }
      ],
      "name": "Close",
      "outputs": [],
      "payable": false,
      "stateMutability": "nonpayable",
      "type": "function"
    },
    {
      "constant": false,
      "inputs": [
        {
          "internalType": "string",
          "name": "_content",
          "type": "string"
        },
        {
          "internalType": "uint256",
          "name": "deposit",
          "type": "uint256"
        },
        {
          "internalType": "address",
          "name": "tokenAddress",
          "type": "address"
        },
        {
          "internalType": "uint256",
          "name": "stopTime",
          "type": "uint256"
        }
      ],
      "name": "reportEvent",
      "outputs": [
        {
          "internalType": "uint256",
          "name": "",
          "type": "uint256"
        }
      ],
      "payable": false,
      "stateMutability": "nonpayable",
      "type": "function"
    },
    {
      "constant": true,
      "inputs": [
        {
          "internalType": "address",
          "name": "user",
          "type": "address"
        }
      ],
      "name": "getUserReports",
      "outputs": [
        {
          "components": [
            {
              "internalType": "uint256",
              "name": "streamId",
              "type": "uint256"
            },
            {
              "internalType": "uint256",
              "name": "Id",
              "type": "uint256"
            },
            {
              "internalType": "string",
              "name": "content",
              "type": "string"
            }
          ],
          "internalType": "struct Reports.Report[]",
          "name": "",
          "type": "tuple[]"
        }
      ],
      "payable": false,
      "stateMutability": "view",
      "type": "function"
    },
    {
      "constant": true,
      "inputs": [],
      "name": "getAllReports",
      "outputs": [
        {
          "components": [
            {
              "internalType": "uint256",
              "name": "streamId",
              "type": "uint256"
            },
            {
              "internalType": "uint256",
              "name": "Id",
              "type": "uint256"
            },
            {
              "internalType": "string",
              "name": "content",
              "type": "string"
            }
          ],
          "internalType": "struct Reports.Report[]",
          "name": "",
          "type": "tuple[]"
        }
      ],
      "payable": false,
      "stateMutability": "view",
      "type": "function"
    }
  ],
  "bytecode": "0x608060405234801561001057600080fd5b5060016000806101000a81548160ff0219169083151502179055506000600181905550600160068190555033600860006101000a81548173ffffffffffffffffffffffffffffffffffffffff021916908373ffffffffffffffffffffffffffffffffffffffff160217905550613a238061008b6000396000f3fe608060405234801561001057600080fd5b50600436106100f55760003560e01c8063894e9a0d11610097578063bf67515a11610066578063bf67515a146102ff578063cc1b4bf61461031b578063ddca3f431461034b578063f3d3ddfa14610369576100f5565b8063894e9a0d14610238578063a2233a761461026f578063a5d24f111461029f578063a82ccd4d146102cf576100f5565b80636db9241b116100d35780636db9241b146101785780636edf70c1146101a857806370a05afc146101d85780637a9b2c6c14610208576100f5565b8063103aa23c146100fa5780631e99d5691461012a5780633656eec214610148575b600080fd5b610114600480360361010f9190810190612f64565b610387565b6040516101219190613782565b60405180910390f35b61013261039e565b60405161013f9190613782565b60405180910390f35b610162600480360361015d9190810190612f28565b6103a4565b60405161016f9190613782565b60405180910390f35b610192600480360361018d9190810190612eff565b6107f2565b60405161019f91906135e7565b60405180910390f35b6101c260048036036101bd9190810190612eff565b610e04565b6040516101cf9190613782565b60405180910390f35b6101f260048036036101ed9190810190612dbb565b611167565b6040516101ff91906135c5565b60405180910390f35b610222600480360361021d9190810190612fb3565b6112bb565b60405161022f91906135e7565b60405180910390f35b610252600480360361024d9190810190612eff565b611954565b60405161026698979695949392919061351e565b60405180910390f35b61028960048036036102849190810190612e84565b611af8565b6040516102969190613782565b60405180910390f35b6102b960048036036102b49190810190612eff565b611c86565b6040516102c69190613782565b60405180910390f35b6102e960048036036102e49190810190612eff565b611e94565b6040516102f69190613782565b60405180910390f35b61031960048036036103149190810190612eff565b6120b7565b005b61033560048036036103309190810190612de4565b612464565b6040516103429190613782565b60405180910390f35b610353612950565b6040516103609190613782565b60405180910390f35b61037161295c565b60405161037e91906135c5565b60405180910390f35b60006103963385854286612464565b509392505050565b60065481565b6000826007600082815260200190815260200160002060070160149054906101000a900460ff1661040a576040517f08c379a000000000000000000000000000000000000000000000000000000000815260040161040190613642565b60405180910390fd5b610412612b55565b600760008681526020019081526020016000206040518061012001604052908160008201548152602001600182015481526020016002820154815260200160038201548152602001600482015481526020016005820160009054906101000a900473ffffffffffffffffffffffffffffffffffffffff1673ffffffffffffffffffffffffffffffffffffffff1673ffffffffffffffffffffffffffffffffffffffff1681526020016006820160009054906101000a900473ffffffffffffffffffffffffffffffffffffffff1673ffffffffffffffffffffffffffffffffffffffff1673ffffffffffffffffffffffffffffffffffffffff1681526020016007820160009054906101000a900473ffffffffffffffffffffffffffffffffffffffff1673ffffffffffffffffffffffffffffffffffffffff1673ffffffffffffffffffffffffffffffffffffffff1681526020016007820160149054906101000a900460ff161515151581525050905061058a612be5565b600061059587611e94565b90506105a5818460200151612a71565b8360000184602001828152508260038111156105bd57fe5b60038111156105c857fe5b8152505050600060038111156105da57fe5b826000015160038111156105ea57fe5b1461062a576040517f08c379a0000000000000000000000000000000000000000000000000000000008152600401610621906136e2565b60405180910390fd5b8260400151836000015111156106f75761064c83600001518460400151612ac4565b83600001846040018281525082600381111561066457fe5b600381111561066f57fe5b81525050506000600381111561068157fe5b8260000151600381111561069157fe5b1461069857fe5b6106aa82602001518360400151612ac4565b8360000184602001828152508260038111156106c257fe5b60038111156106cd57fe5b8152505050600060038111156106df57fe5b826000015160038111156106ef57fe5b146106f657fe5b5b8260a0015173ffffffffffffffffffffffffffffffffffffffff168673ffffffffffffffffffffffffffffffffffffffff16141561073e57816020015194505050506107eb565b8260c0015173ffffffffffffffffffffffffffffffffffffffff168673ffffffffffffffffffffffffffffffffffffffff1614156107e35761078883604001518360200151612ac4565b8360000184606001828152508260038111156107a057fe5b60038111156107ab57fe5b8152505050600060038111156107bd57fe5b826000015160038111156107cd57fe5b146107d457fe5b816060015194505050506107eb565b600094505050505b5092915050565b60008060009054906101000a900460ff16610842576040517f08c379a000000000000000000000000000000000000000000000000000000000815260040161083990613742565b60405180910390fd5b60008060006101000a81548160ff021916908315150217905550816007600082815260200190815260200160002060070160149054906101000a900460ff166108c0576040517f08c379a00000000000000000000000000000000000000000000000000000000081526004016108b790613642565b60405180910390fd5b3373ffffffffffffffffffffffffffffffffffffffff16600860009054906101000a900473ffffffffffffffffffffffffffffffffffffffff1673ffffffffffffffffffffffffffffffffffffffff1614610950576040517f08c379a000000000000000000000000000000000000000000000000000000000815260040161094790613642565b60405180910390fd5b610958612b55565b600760008581526020019081526020016000206040518061012001604052908160008201548152602001600182015481526020016002820154815260200160038201548152602001600482015481526020016005820160009054906101000a900473ffffffffffffffffffffffffffffffffffffffff1673ffffffffffffffffffffffffffffffffffffffff1673ffffffffffffffffffffffffffffffffffffffff1681526020016006820160009054906101000a900473ffffffffffffffffffffffffffffffffffffffff1673ffffffffffffffffffffffffffffffffffffffff1673ffffffffffffffffffffffffffffffffffffffff1681526020016007820160009054906101000a900473ffffffffffffffffffffffffffffffffffffffff1673ffffffffffffffffffffffffffffffffffffffff1673ffffffffffffffffffffffffffffffffffffffff1681526020016007820160149054906101000a900460ff16151515158152505090506000610ad8858360c001516103a4565b90506000610aea868460a001516103a4565b90506007600087815260200190815260200160002060008082016000905560018201600090556002820160009055600382016000905560048201600090556005820160006101000a81549073ffffffffffffffffffffffffffffffffffffffff02191690556006820160006101000a81549073ffffffffffffffffffffffffffffffffffffffff02191690556007820160006101000a81549073ffffffffffffffffffffffffffffffffffffffff02191690556007820160146101000a81549060ff0219169055505060008360e0015190506000821115610c96578073ffffffffffffffffffffffffffffffffffffffff1663a9059cbb8560a00151846040518363ffffffff1660e01b8152600401610c0492919061359c565b602060405180830381600087803b158015610c1e57600080fd5b505af1158015610c32573d6000803e3d6000fd5b505050506040513d601f19601f82011682018060405250610c569190810190612e5b565b610c95576040517f08c379a0000000000000000000000000000000000000000000000000000000008152600401610c8c90613762565b60405180910390fd5b5b6000831115610d70578073ffffffffffffffffffffffffffffffffffffffff1663a9059cbb8560c00151856040518363ffffffff1660e01b8152600401610cde92919061359c565b602060405180830381600087803b158015610cf857600080fd5b505af1158015610d0c573d6000803e3d6000fd5b505050506040513d601f19601f82011682018060405250610d309190810190612e5b565b610d6f576040517f08c379a0000000000000000000000000000000000000000000000000000000008152600401610d6690613662565b60405180910390fd5b5b8360a0015173ffffffffffffffffffffffffffffffffffffffff168460c0015173ffffffffffffffffffffffffffffffffffffffff16887fca3e6079b726e7728802a0537949e2d1c7762304fa641fb06eb56daf2ba8c6b98686604051610dd89291906137e2565b60405180910390a4505050505060016000806101000a81548160ff021916908315150217905550919050565b6000816007600082815260200190815260200160002060070160149054906101000a900460ff16610e6a576040517f08c379a0000000000000000000000000000000000000000000000000000000008152600401610e6190613642565b60405180910390fd5b610e72612b55565b600760008581526020019081526020016000206040518061012001604052908160008201548152602001600182015481526020016002820154815260200160038201548152602001600482015481526020016005820160009054906101000a900473ffffffffffffffffffffffffffffffffffffffff1673ffffffffffffffffffffffffffffffffffffffff1673ffffffffffffffffffffffffffffffffffffffff1681526020016006820160009054906101000a900473ffffffffffffffffffffffffffffffffffffffff1673ffffffffffffffffffffffffffffffffffffffff1673ffffffffffffffffffffffffffffffffffffffff1681526020016007820160009054906101000a900473ffffffffffffffffffffffffffffffffffffffff1673ffffffffffffffffffffffffffffffffffffffff1673ffffffffffffffffffffffffffffffffffffffff1681526020016007820160149054906101000a900460ff1615151515815250509050610fea612be5565b6000610ff586611c86565b9050611005818460200151612a71565b83600001846020018281525082600381111561101d57fe5b600381111561102857fe5b81525050506000600381111561103a57fe5b8260000151600381111561104a57fe5b1461108a576040517f08c379a0000000000000000000000000000000000000000000000000000000008152600401611081906136e2565b60405180910390fd5b826040015183600001511115611157576110ac83600001518460400151612ac4565b8360000184604001828152508260038111156110c457fe5b60038111156110cf57fe5b8152505050600060038111156110e157fe5b826000015160038111156110f157fe5b146110f857fe5b61110a82602001518360400151612ac4565b83600001846020018281525082600381111561112257fe5b600381111561112d57fe5b81525050506000600381111561113f57fe5b8260000151600381111561114f57fe5b1461115657fe5b5b8160200151945050505050919050565b6060600260008373ffffffffffffffffffffffffffffffffffffffff1673ffffffffffffffffffffffffffffffffffffffff168152602001908152602001600020805480602002602001604051908101604052809291908181526020016000905b828210156112b057838290600052602060002090600302016040518060600160405290816000820154815260200160018201548152602001600282018054600181600116156101000203166002900480601f0160208091040260200160405190810160405280929190818152602001828054600181600116156101000203166002900480156112985780601f1061126d57610100808354040283529160200191611298565b820191906000526020600020905b81548152906001019060200180831161127b57829003601f168201915b505050505081525050815260200190600101906111c8565b505050509050919050565b60008060009054906101000a900460ff1661130b576040517f08c379a000000000000000000000000000000000000000000000000000000000815260040161130290613742565b60405180910390fd5b60008060006101000a81548160ff021916908315150217905550826007600082815260200190815260200160002060070160149054906101000a900460ff16611389576040517f08c379a000000000000000000000000000000000000000000000000000000000815260040161138090613642565b60405180910390fd5b836007600082815260200190815260200160002060060160009054906101000a900473ffffffffffffffffffffffffffffffffffffffff1673ffffffffffffffffffffffffffffffffffffffff163373ffffffffffffffffffffffffffffffffffffffff16148061145b57506007600082815260200190815260200160002060050160009054906101000a900473ffffffffffffffffffffffffffffffffffffffff1673ffffffffffffffffffffffffffffffffffffffff163373ffffffffffffffffffffffffffffffffffffffff16145b61149a576040517f08c379a000000000000000000000000000000000000000000000000000000000815260040161149190613702565b60405180910390fd5b600084116114dd576040517f08c379a00000000000000000000000000000000000000000000000000000000081526004016114d490613602565b60405180910390fd5b6114e5612b55565b600760008781526020019081526020016000206040518061012001604052908160008201548152602001600182015481526020016002820154815260200160038201548152602001600482015481526020016005820160009054906101000a900473ffffffffffffffffffffffffffffffffffffffff1673ffffffffffffffffffffffffffffffffffffffff1673ffffffffffffffffffffffffffffffffffffffff1681526020016006820160009054906101000a900473ffffffffffffffffffffffffffffffffffffffff1673ffffffffffffffffffffffffffffffffffffffff1673ffffffffffffffffffffffffffffffffffffffff1681526020016007820160009054906101000a900473ffffffffffffffffffffffffffffffffffffffff1673ffffffffffffffffffffffffffffffffffffffff1673ffffffffffffffffffffffffffffffffffffffff1681526020016007820160149054906101000a900460ff161515151581525050905061165d612c18565b600061166d888460a001516103a4565b9050868110156116b2576040517f08c379a00000000000000000000000000000000000000000000000000000000081526004016116a990613622565b60405180910390fd5b6116c0836040015188612ac4565b83600001600760008c8152602001908152602001600020600201600083919050558260038111156116ed57fe5b60038111156116f857fe5b81525050506000600381111561170a57fe5b8260000151600381111561171a57fe5b1461172157fe5b6000600760008a8152602001908152602001600020600201541415611808576007600089815260200190815260200160002060008082016000905560018201600090556002820160009055600382016000905560048201600090556005820160006101000a81549073ffffffffffffffffffffffffffffffffffffffff02191690556006820160006101000a81549073ffffffffffffffffffffffffffffffffffffffff02191690556007820160006101000a81549073ffffffffffffffffffffffffffffffffffffffff02191690556007820160146101000a81549060ff021916905550505b8260e0015173ffffffffffffffffffffffffffffffffffffffff1663a9059cbb8460a00151896040518363ffffffff1660e01b815260040161184b92919061359c565b602060405180830381600087803b15801561186557600080fd5b505af1158015611879573d6000803e3d6000fd5b505050506040513d601f19601f8201168201806040525061189d9190810190612e5b565b6118dc576040517f08c379a00000000000000000000000000000000000000000000000000000000081526004016118d3906136a2565b60405180910390fd5b8260a0015173ffffffffffffffffffffffffffffffffffffffff16887f36c3ab437e6a424ed25dc4bfdeb62706aa06558660fab2dab229d2555adaf89c896040516119279190613782565b60405180910390a3505050505060016000806101000a81548160ff02191690831515021790555092915050565b600080600080600080600080886007600082815260200190815260200160002060070160149054906101000a900460ff166119c4576040517f08c379a00000000000000000000000000000000000000000000000000000000081526004016119bb90613642565b60405180910390fd5b600760008b815260200190815260200160002060060160009054906101000a900473ffffffffffffffffffffffffffffffffffffffff169850600760008b815260200190815260200160002060050160009054906101000a900473ffffffffffffffffffffffffffffffffffffffff169750600760008b8152602001908152602001600020600001549650600760008b815260200190815260200160002060070160009054906101000a900473ffffffffffffffffffffffffffffffffffffffff169550600760008b8152602001908152602001600020600301549450600760008b8152602001908152602001600020600401549350600760008b8152602001908152602001600020600201549250600760008b815260200190815260200160002060010154915050919395975091939597565b6000600160008154809291906001019190505550611b14612c36565b604051806060016040528060065481526020016001548152602001878152509050600260003373ffffffffffffffffffffffffffffffffffffffff1673ffffffffffffffffffffffffffffffffffffffff168152602001908152602001600020819080600181540180825580915050906001820390600052602060002090600302016000909192909190915060008201518160000155602082015181600101556040820151816002019080519060200190611bd0929190612c57565b505050506003819080600181540180825580915050906001820390600052602060002090600302016000909192909190915060008201518160000155602082015181600101556040820151816002019080519060200190611c32929190612c57565b50505050611c41858585610387565b507f13ae4ea8eb28cf5104b119acecdbc7bfcab76402a5caca38c9a5810629876aac33600154604051611c759291906134f5565b60405180910390a150949350505050565b6000816007600082815260200190815260200160002060070160149054906101000a900460ff16611cec576040517f08c379a0000000000000000000000000000000000000000000000000000000008152600401611ce390613642565b60405180910390fd5b611cf4612b55565b600760008581526020019081526020016000206040518061012001604052908160008201548152602001600182015481526020016002820154815260200160038201548152602001600482015481526020016005820160009054906101000a900473ffffffffffffffffffffffffffffffffffffffff1673ffffffffffffffffffffffffffffffffffffffff1673ffffffffffffffffffffffffffffffffffffffff1681526020016006820160009054906101000a900473ffffffffffffffffffffffffffffffffffffffff1673ffffffffffffffffffffffffffffffffffffffff1673ffffffffffffffffffffffffffffffffffffffff1681526020016007820160009054906101000a900473ffffffffffffffffffffffffffffffffffffffff1673ffffffffffffffffffffffffffffffffffffffff1673ffffffffffffffffffffffffffffffffffffffff1681526020016007820160149054906101000a900460ff16151515158152505090508060800151421015611e7f5780606001514203925050611e8e565b80606001518160800151039250505b50919050565b6000816007600082815260200190815260200160002060070160149054906101000a900460ff16611efa576040517f08c379a0000000000000000000000000000000000000000000000000000000008152600401611ef190613642565b60405180910390fd5b611f02612b55565b600760008581526020019081526020016000206040518061012001604052908160008201548152602001600182015481526020016002820154815260200160038201548152602001600482015481526020016005820160009054906101000a900473ffffffffffffffffffffffffffffffffffffffff1673ffffffffffffffffffffffffffffffffffffffff1673ffffffffffffffffffffffffffffffffffffffff1681526020016006820160009054906101000a900473ffffffffffffffffffffffffffffffffffffffff1673ffffffffffffffffffffffffffffffffffffffff1673ffffffffffffffffffffffffffffffffffffffff1681526020016007820160009054906101000a900473ffffffffffffffffffffffffffffffffffffffff1673ffffffffffffffffffffffffffffffffffffffff1673ffffffffffffffffffffffffffffffffffffffff1681526020016007820160149054906101000a900460ff1615151515815250509050806060015142116120875760009250506120b1565b80608001514210156120a257806060015142039250506120b1565b80606001518160800151039250505b50919050565b6000809054906101000a900460ff16612105576040517f08c379a00000000000000000000000000000000000000000000000000000000081526004016120fc90613742565b60405180910390fd5b60008060006101000a81548160ff021916908315150217905550806007600082815260200190815260200160002060070160149054906101000a900460ff16612183576040517f08c379a000000000000000000000000000000000000000000000000000000000815260040161217a90613642565b60405180910390fd5b600061218e83610e04565b9050612198612b55565b600760008581526020019081526020016000206040518061012001604052908160008201548152602001600182015481526020016002820154815260200160038201548152602001600482015481526020016005820160009054906101000a900473ffffffffffffffffffffffffffffffffffffffff1673ffffffffffffffffffffffffffffffffffffffff1673ffffffffffffffffffffffffffffffffffffffff1681526020016006820160009054906101000a900473ffffffffffffffffffffffffffffffffffffffff1673ffffffffffffffffffffffffffffffffffffffff1673ffffffffffffffffffffffffffffffffffffffff1681526020016007820160009054906101000a900473ffffffffffffffffffffffffffffffffffffffff1673ffffffffffffffffffffffffffffffffffffffff1673ffffffffffffffffffffffffffffffffffffffff1681526020016007820160149054906101000a900460ff16151515158152505090506007600085815260200190815260200160002060008082016000905560018201600090556002820160009055600382016000905560048201600090556005820160006101000a81549073ffffffffffffffffffffffffffffffffffffffff02191690556006820160006101000a81549073ffffffffffffffffffffffffffffffffffffffff02191690556007820160006101000a81549073ffffffffffffffffffffffffffffffffffffffff02191690556007820160146101000a81549060ff0219169055505060008160e0015190508073ffffffffffffffffffffffffffffffffffffffff166342966c68846040518263ffffffff1660e01b81526004016124119190613782565b600060405180830381600087803b15801561242b57600080fd5b505af115801561243f573d6000803e3d6000fd5b505050505050505060016000806101000a81548160ff02191690831515021790555050565b60008085116124a8576040517f08c379a000000000000000000000000000000000000000000000000000000000815260040161249f90613682565b60405180910390fd5b6124b0612cd7565b6124ba8385612ac4565b8260000183602001828152508260038111156124d257fe5b60038111156124dd57fe5b8152505050600060038111156124ef57fe5b816000015160038111156124ff57fe5b1461250657fe5b806020015186101561254d576040517f08c379a000000000000000000000000000000000000000000000000000000000815260040161254490613722565b60405180910390fd5b61255b868260200151612aef565b82600001836040018281525082600381111561257357fe5b600381111561257e57fe5b81525050506000600381111561259057fe5b816000015160038111156125a057fe5b146125a757fe5b60006006549050604051806101200160405280888152602001836040015181526020018881526020018681526020018581526020018973ffffffffffffffffffffffffffffffffffffffff1681526020013373ffffffffffffffffffffffffffffffffffffffff1681526020018773ffffffffffffffffffffffffffffffffffffffff1681526020016001151581525060076000838152602001908152602001600020600082015181600001556020820151816001015560408201518160020155606082015181600301556080820151816004015560a08201518160050160006101000a81548173ffffffffffffffffffffffffffffffffffffffff021916908373ffffffffffffffffffffffffffffffffffffffff16021790555060c08201518160060160006101000a81548173ffffffffffffffffffffffffffffffffffffffff021916908373ffffffffffffffffffffffffffffffffffffffff16021790555060e08201518160070160006101000a81548173ffffffffffffffffffffffffffffffffffffffff021916908373ffffffffffffffffffffffffffffffffffffffff1602179055506101008201518160070160146101000a81548160ff0219169083151502179055509050506127826006546001612b23565b8360000160066000839190505582600381111561279b57fe5b60038111156127a657fe5b8152505050600060038111156127b857fe5b826000015160038111156127c857fe5b14612808576040517f08c379a00000000000000000000000000000000000000000000000000000000081526004016127ff906136c2565b60405180910390fd5b8573ffffffffffffffffffffffffffffffffffffffff166323b872dd33308a6040518463ffffffff1660e01b8152600401612845939291906134be565b602060405180830381600087803b15801561285f57600080fd5b505af1158015612873573d6000803e3d6000fd5b505050506040513d601f19601f820116820180604052506128979190810190612e5b565b6128d6576040517f08c379a00000000000000000000000000000000000000000000000000000000081526004016128cd906136a2565b60405180910390fd5b8773ffffffffffffffffffffffffffffffffffffffff163373ffffffffffffffffffffffffffffffffffffffff16827f7b01d409597969366dc268d7f957a990d1ca3d3449baf8fb45db67351aecfe788a8a8a8a60405161293a949392919061379d565b60405180910390a4809250505095945050505050565b60058060000154905081565b60606003805480602002602001604051908101604052809291908181526020016000905b82821015612a6857838290600052602060002090600302016040518060600160405290816000820154815260200160018201548152602001600282018054600181600116156101000203166002900480601f016020809104026020016040519081016040528092919081815260200182805460018160011615610100020316600290048015612a505780601f10612a2557610100808354040283529160200191612a50565b820191906000526020600020905b815481529060010190602001808311612a3357829003601f168201915b50505050508152505081526020019060010190612980565b50505050905090565b6000806000841415612a8c5760008080905091509150612abd565b6000838502905083858281612a9d57fe5b0414612ab457600260008090509250925050612abd565b60008192509250505b9250929050565b600080838311612adc57600083850391509150612ae8565b60036000809050915091505b9250929050565b6000806000831415612b0b576001600080905091509150612b1c565b6000838581612b1657fe5b04915091505b9250929050565b60008060008385019050848110612b41576000819250925050612b4e565b6002600080905092509250505b9250929050565b6040518061012001604052806000815260200160008152602001600081526020016000815260200160008152602001600073ffffffffffffffffffffffffffffffffffffffff168152602001600073ffffffffffffffffffffffffffffffffffffffff168152602001600073ffffffffffffffffffffffffffffffffffffffff1681526020016000151581525090565b604051806080016040528060006003811115612bfd57fe5b81526020016000815260200160008152602001600081525090565b604051806020016040528060006003811115612c3057fe5b81525090565b60405180606001604052806000815260200160008152602001606081525090565b828054600181600116156101000203166002900490600052602060002090601f016020900481019282601f10612c9857805160ff1916838001178555612cc6565b82800160010185558215612cc6579182015b82811115612cc5578251825591602001919060010190612caa565b5b509050612cd39190612d03565b5090565b604051806060016040528060006003811115612cef57fe5b815260200160008152602001600081525090565b612d2591905b80821115612d21576000816000905550600101612d09565b5090565b90565b600081359050612d378161399b565b92915050565b600081519050612d4c816139b2565b92915050565b600082601f830112612d6357600080fd5b8135612d76612d7182613838565b61380b565b91508082526020830160208301858383011115612d9257600080fd5b612d9d838284613948565b50505092915050565b600081359050612db5816139c9565b92915050565b600060208284031215612dcd57600080fd5b6000612ddb84828501612d28565b91505092915050565b600080600080600060a08688031215612dfc57600080fd5b6000612e0a88828901612d28565b9550506020612e1b88828901612da6565b9450506040612e2c88828901612d28565b9350506060612e3d88828901612da6565b9250506080612e4e88828901612da6565b9150509295509295909350565b600060208284031215612e6d57600080fd5b6000612e7b84828501612d3d565b91505092915050565b60008060008060808587031215612e9a57600080fd5b600085013567ffffffffffffffff811115612eb457600080fd5b612ec087828801612d52565b9450506020612ed187828801612da6565b9350506040612ee287828801612d28565b9250506060612ef387828801612da6565b91505092959194509250565b600060208284031215612f1157600080fd5b6000612f1f84828501612da6565b91505092915050565b60008060408385031215612f3b57600080fd5b6000612f4985828601612da6565b9250506020612f5a85828601612d28565b9150509250929050565b600080600060608486031215612f7957600080fd5b6000612f8786828701612da6565b9350506020612f9886828701612d28565b9250506040612fa986828701612da6565b9150509250925092565b60008060408385031215612fc657600080fd5b6000612fd485828601612da6565b9250506020612fe585828601612da6565b9150509250929050565b6000612ffb8383613450565b905092915050565b61300c81613912565b82525050565b61301b816138ca565b82525050565b600061302c82613874565b6130368185613897565b93508360208202850161304885613864565b8060005b8581101561308457848403895281516130658582612fef565b94506130708361388a565b925060208a0199505060018101905061304c565b50829750879550505050505092915050565b61309f816138dc565b82525050565b60006130b08261387f565b6130ba81856138a8565b93506130ca818560208601613957565b6130d38161398a565b840191505092915050565b60006130eb600e836138b9565b91507f616d6f756e74206973207a65726f0000000000000000000000000000000000006000830152602082019050919050565b600061312b6024836138b9565b91507f616d6f756e7420657863656564732074686520617661696c61626c652062616c60008301527f616e6365000000000000000000000000000000000000000000000000000000006020830152604082019050919050565b60006131916015836138b9565b91507f73747265616d20646f6573206e6f7420657869737400000000000000000000006000830152602082019050919050565b60006131d1601d836138b9565b91507f73656e64657220746f6b656e207472616e73666572206661696c7572650000006000830152602082019050919050565b6000613211600f836138b9565b91507f6465706f736974206973207a65726f00000000000000000000000000000000006000830152602082019050919050565b60006132516016836138b9565b91507f746f6b656e207472616e73666572206661696c757265000000000000000000006000830152602082019050919050565b60006132916020836138b9565b91507f6e6578742073747265616d2069642063616c63756c6174696f6e206572726f726000830152602082019050919050565b60006132d16023836138b9565b91507f726563697069656e742062616c616e63652063616c63756c6174696f6e20657260008301527f726f7200000000000000000000000000000000000000000000000000000000006020830152604082019050919050565b60006133376037836138b9565b91507f63616c6c6572206973206e6f74207468652073656e646572206f72207468652060008301527f726563697069656e74206f66207468652073747265616d0000000000000000006020830152604082019050919050565b600061339d601f836138b9565b91507f6465706f73697420736d616c6c6572207468616e2074696d652064656c7461006000830152602082019050919050565b60006133dd601f836138b9565b91507f5265656e7472616e637947756172643a207265656e7472616e742063616c6c006000830152602082019050919050565b600061341d6020836138b9565b91507f726563697069656e7420746f6b656e207472616e73666572206661696c7572656000830152602082019050919050565b600060608301600083015161346860008601826134a0565b50602083015161347b60208601826134a0565b506040830151848203604086015261349382826130a5565b9150508091505092915050565b6134a981613908565b82525050565b6134b881613908565b82525050565b60006060820190506134d36000830186613003565b6134e06020830185613012565b6134ed60408301846134af565b949350505050565b600060408201905061350a6000830185613003565b61351760208301846134af565b9392505050565b600061010082019050613534600083018b613012565b613541602083018a613012565b61354e60408301896134af565b61355b6060830188613012565b61356860808301876134af565b61357560a08301866134af565b61358260c08301856134af565b61358f60e08301846134af565b9998505050505050505050565b60006040820190506135b16000830185613012565b6135be60208301846134af565b9392505050565b600060208201905081810360008301526135df8184613021565b905092915050565b60006020820190506135fc6000830184613096565b92915050565b6000602082019050818103600083015261361b816130de565b9050919050565b6000602082019050818103600083015261363b8161311e565b9050919050565b6000602082019050818103600083015261365b81613184565b9050919050565b6000602082019050818103600083015261367b816131c4565b9050919050565b6000602082019050818103600083015261369b81613204565b9050919050565b600060208201905081810360008301526136bb81613244565b9050919050565b600060208201905081810360008301526136db81613284565b9050919050565b600060208201905081810360008301526136fb816132c4565b9050919050565b6000602082019050818103600083015261371b8161332a565b9050919050565b6000602082019050818103600083015261373b81613390565b9050919050565b6000602082019050818103600083015261375b816133d0565b9050919050565b6000602082019050818103600083015261377b81613410565b9050919050565b600060208201905061379760008301846134af565b92915050565b60006080820190506137b260008301876134af565b6137bf6020830186613012565b6137cc60408301856134af565b6137d960608301846134af565b95945050505050565b60006040820190506137f760008301856134af565b61380460208301846134af565b9392505050565b6000604051905081810181811067ffffffffffffffff8211171561382e57600080fd5b8060405250919050565b600067ffffffffffffffff82111561384f57600080fd5b601f19601f8301169050602081019050919050565b6000819050602082019050919050565b600081519050919050565b600081519050919050565b6000602082019050919050565b600082825260208201905092915050565b600082825260208201905092915050565b600082825260208201905092915050565b60006138d5826138e8565b9050919050565b60008115159050919050565b600073ffffffffffffffffffffffffffffffffffffffff82169050919050565b6000819050919050565b600061391d82613924565b9050919050565b600061392f82613936565b9050919050565b6000613941826138e8565b9050919050565b82818337600083830152505050565b60005b8381101561397557808201518184015260208101905061395a565b83811115613984576000848401525b50505050565b6000601f19601f8301169050919050565b6139a4816138ca565b81146139af57600080fd5b50565b6139bb816138dc565b81146139c657600080fd5b50565b6139d281613908565b81146139dd57600080fd5b5056fea365627a7a72315820a0823c0faa6a049d1cce0dafe87b40ac6eec3711bf39b912ea474733e5b2b2da6c6578706572696d656e74616cf564736f6c634300050b0040",
  "source": "pragma solidity 0.5.11;\r\npragma experimental ABIEncoderV2;\r\n\r\nimport \"@openzeppelin/contracts/lifecycle/Pausable.sol\";\r\nimport \"@openzeppelin/contracts/ownership/Ownable.sol\";\r\nimport \"@openzeppelin/contracts/token/ERC20/ERC20Burnable.sol\";\r\nimport \"@openzeppelin/contracts/utils/ReentrancyGuard.sol\";\r\nimport \"./compound/Exponential.sol\";\r\nimport \"./interfaces/IERC1620.sol\";\r\nimport \"./Types.sol\";\r\n\r\ncontract Reports is IERC1620, Exponential, ReentrancyGuard  {\r\n\r\n    uint256 reportCount;\r\n\r\n    struct Report {\r\n        uint256 streamId;\r\n        uint256 Id;\r\n        string content;\r\n    }\r\n\r\n    /**\r\n     * @notice Reports made per address.\r\n     */\r\n    mapping(address => Report[]) private reports;\r\n\r\n    Report[] private allReports;\r\n    \r\n    event Reported(address by, uint256 id);\r\n\r\n       /**\r\n     * @notice The amount of interest has been accrued per token address.\r\n     */\r\n    mapping(address => uint256) private earnings;\r\n\r\n    /**\r\n     * @notice The percentage fee charged by the contract on the accrued interest.\r\n     */\r\n    Exp public fee;\r\n\r\n    /**\r\n     * @notice Counter for new stream ids.\r\n     */\r\n    uint256 public nextStreamId;\r\n\r\n    /**\r\n     * @notice The stream objects identifiable by their unsigned integer ids.\r\n     */\r\n    mapping(uint256 => Types.Stream) private streams;\r\n\r\n    address owner;\r\n\r\n    /*** Modifiers ***/\r\n    /**\r\n     * @dev Throws if the caller is not the sender of the recipient of the stream.\r\n     */\r\n    modifier onlySenderOrRecipient(uint256 streamId) {\r\n        require(\r\n            msg.sender == streams[streamId].sender ||\r\n                msg.sender == streams[streamId].recipient,\r\n            \"caller is not the sender or the recipient of the stream\"\r\n        );\r\n        _;\r\n    }\r\n\r\n    /**\r\n     * @dev Throws if the provided id does not point to a valid stream.\r\n     */\r\n    modifier streamExists(uint256 streamId) {\r\n        require(streams[streamId].isEntity, \"stream does not exist\");\r\n        _;\r\n    }\r\n\r\n    /**\r\n     * @dev Throws if the provided id does not point to a valid stream.\r\n     */\r\n    modifier onlyOwner() {\r\n        require(owner == msg.sender, \"stream does not exist\");\r\n        _;\r\n    }\r\n\r\n    /*** Contract Logic Starts Here */\r\n\r\n    constructor() public {\r\n        reportCount = 0;\r\n        nextStreamId = 1;\r\n        owner = msg.sender;\r\n    }\r\n\r\n    /*** View Functions ***/\r\n\r\n    /**\r\n     * @notice Returns the compounding stream with all its properties.\r\n     * @dev Throws if the id does not point to a valid stream.\r\n     * @param streamId The id of the stream to query.\r\n     * @return The stream object.\r\n     */\r\n    function getStream(uint256 streamId)\r\n        external\r\n        view\r\n        streamExists(streamId)\r\n        returns (\r\n            address sender,\r\n            address recipient,\r\n            uint256 deposit,\r\n            address tokenAddress,\r\n            uint256 startTime,\r\n            uint256 stopTime,\r\n            uint256 remainingBalance,\r\n            uint256 ratePerSecond\r\n        )\r\n    {\r\n        sender = streams[streamId].sender;\r\n        recipient = streams[streamId].recipient;\r\n        deposit = streams[streamId].deposit;\r\n        tokenAddress = streams[streamId].tokenAddress;\r\n        startTime = streams[streamId].startTime;\r\n        stopTime = streams[streamId].stopTime;\r\n        remainingBalance = streams[streamId].remainingBalance;\r\n        ratePerSecond = streams[streamId].ratePerSecond;\r\n    }\r\n\r\n    /**\r\n     * @notice Returns either the delta in seconds between `block.timestamp` and `startTime` or\r\n     *  between `stopTime` and `startTime, whichever is smaller. If `block.timestamp` is before\r\n     *  `startTime`, it returns 0.\r\n     * @dev Throws if the id does not point to a valid stream.\r\n     * @param streamId The id of the stream for which to query the delta.\r\n     * @return The time delta in seconds.\r\n     */\r\n    function deltaOf(uint256 streamId)\r\n        public\r\n        view\r\n        streamExists(streamId)\r\n        returns (uint256 delta)\r\n    {\r\n        Types.Stream memory stream = streams[streamId];\r\n        if (block.timestamp <= stream.startTime) return 0;\r\n        if (block.timestamp < stream.stopTime)\r\n            return block.timestamp - stream.startTime;\r\n        return stream.stopTime - stream.startTime;\r\n    }\r\n\r\n    function deltaOfReverseStream(uint256 streamId)\r\n        public\r\n        view\r\n        streamExists(streamId)\r\n        returns (uint256 delta)\r\n    {\r\n        Types.Stream memory stream = streams[streamId];\r\n        if (block.timestamp < stream.stopTime)\r\n            return block.timestamp - stream.startTime;\r\n        return stream.stopTime - stream.startTime;\r\n    }\r\n\r\n    struct BalanceOfLocalVars {\r\n        MathError mathErr;\r\n        uint256 recipientBalance;\r\n        uint256 withdrawalAmount;\r\n        uint256 senderBalance;\r\n    }\r\n\r\n    /**\r\n     * @notice Returns the available funds for the given stream id and address.\r\n     * @dev Throws if the id does not point to a valid stream.\r\n     * @param streamId The id of the stream for which to query the balance.\r\n     * @return The total funds allocated to `receiver` as uint256.\r\n     */\r\n    function balanceOfReverseStream(uint256 streamId)\r\n        public\r\n        view\r\n        streamExists(streamId)\r\n        returns (uint256 balance)\r\n    {\r\n        Types.Stream memory stream = streams[streamId];\r\n        BalanceOfLocalVars memory vars;\r\n\r\n        uint256 delta = deltaOfReverseStream(streamId);\r\n        (vars.mathErr, vars.recipientBalance) = mulUInt(\r\n            delta,\r\n            stream.ratePerSecond\r\n        );\r\n        require(\r\n            vars.mathErr == MathError.NO_ERROR,\r\n            \"recipient balance calculation error\"\r\n        );\r\n\r\n        /*\r\n         * If the stream `balance` does not equal `deposit`, it means there have been withdrawals.\r\n         * We have to subtract the total amount withdrawn from the amount of money that has been\r\n         * streamed until now.\r\n         */\r\n        if (stream.deposit > stream.remainingBalance) {\r\n            (vars.mathErr, vars.withdrawalAmount) = subUInt(\r\n                stream.deposit,\r\n                stream.remainingBalance\r\n            );\r\n\r\n            assert(vars.mathErr == MathError.NO_ERROR);\r\n            (vars.mathErr, vars.recipientBalance) = subUInt(\r\n                vars.recipientBalance,\r\n                vars.withdrawalAmount\r\n            );\r\n            /* `withdrawalAmount` cannot and should not be bigger than `recipientBalance`. */\r\n            assert(vars.mathErr == MathError.NO_ERROR);\r\n        }\r\n\r\n        return vars.recipientBalance;\r\n    }\r\n\r\n    /**\r\n     * @notice Returns the available funds for the given stream id and address.\r\n     * @dev Throws if the id does not point to a valid stream.\r\n     * @param streamId The id of the stream for which to query the balance.\r\n     * @param who The address for which to query the balance.\r\n     * @return The total funds allocated to `who` as uint256.\r\n     */\r\n    function balanceOf(uint256 streamId, address who)\r\n        public\r\n        view\r\n        streamExists(streamId)\r\n        returns (uint256 balance)\r\n    {\r\n        Types.Stream memory stream = streams[streamId];\r\n        BalanceOfLocalVars memory vars;\r\n\r\n        uint256 delta = deltaOf(streamId);\r\n        (vars.mathErr, vars.recipientBalance) = mulUInt(\r\n            delta,\r\n            stream.ratePerSecond\r\n        );\r\n        require(\r\n            vars.mathErr == MathError.NO_ERROR,\r\n            \"recipient balance calculation error\"\r\n        );\r\n\r\n        /*\r\n         * If the stream `balance` does not equal `deposit`, it means there have been withdrawals.\r\n         * We have to subtract the total amount withdrawn from the amount of money that has been\r\n         * streamed until now.\r\n         */\r\n        if (stream.deposit > stream.remainingBalance) {\r\n            (vars.mathErr, vars.withdrawalAmount) = subUInt(\r\n                stream.deposit,\r\n                stream.remainingBalance\r\n            );\r\n            assert(vars.mathErr == MathError.NO_ERROR);\r\n            (vars.mathErr, vars.recipientBalance) = subUInt(\r\n                vars.recipientBalance,\r\n                vars.withdrawalAmount\r\n            );\r\n            /* `withdrawalAmount` cannot and should not be bigger than `recipientBalance`. */\r\n            assert(vars.mathErr == MathError.NO_ERROR);\r\n        }\r\n\r\n        if (who == stream.recipient) return vars.recipientBalance;\r\n        if (who == stream.sender) {\r\n            (vars.mathErr, vars.senderBalance) = subUInt(\r\n                stream.remainingBalance,\r\n                vars.recipientBalance\r\n            );\r\n            /* `recipientBalance` cannot and should not be bigger than `remainingBalance`. */\r\n            assert(vars.mathErr == MathError.NO_ERROR);\r\n            return vars.senderBalance;\r\n        }\r\n        return 0;\r\n    }\r\n\r\n    /*** Public Effects & Interactions Functions ***/\r\n\r\n    struct CreateStreamLocalVars {\r\n        MathError mathErr;\r\n        uint256 duration;\r\n        uint256 ratePerSecond;\r\n    }\r\n\r\n    /**\r\n     * @notice Creates a new reverse stream stream funded by `msg.sender` and paid towards `msg.sender`.\r\n     * @dev Throws if paused.\r\n     *  Throws if the deposit is 0.\r\n     *  Throws if the start time is before `block.timestamp`.\r\n     *  Throws if the stop time is before the start time.\r\n     *  Throws if the duration calculation has a math error.\r\n     *  Throws if the deposit is smaller than the duration.\r\n     *  Throws if the deposit is not a multiple of the duration.\r\n     *  Throws if the rate calculation has a math error.\r\n     *  Throws if the next stream id calculation has a math error.\r\n     *  Throws if the contract is not allowed to transfer enough tokens.\r\n     *  Throws if there is a token transfer failure.\r\n     * @param deposit The amount of money to be streamed.\r\n     * @param tokenAddress The ERC20 token to use as streaming currency.\r\n     * @param stopTime The unix timestamp for when the stream stops.\r\n     * @return The uint256 id of the newly created stream.\r\n     */\r\n    function createReverseStream(\r\n        uint256 deposit,\r\n        address tokenAddress,\r\n        uint256 stopTime\r\n    ) public returns (uint256) {\r\n        createStream(\r\n            msg.sender,\r\n            deposit,\r\n            tokenAddress,\r\n            block.timestamp,\r\n            stopTime\r\n        );\r\n    }\r\n\r\n    /**\r\n     * @notice Creates a new  stream stream funded by `msg.sender` and paid towards `msg.sender`.\r\n     * @dev Throws if paused.\r\n     *  Throws if the deposit is 0.\r\n     *  Throws if the start time is before `block.timestamp`.\r\n     *  Throws if the stop time is before the start time.\r\n     *  Throws if the duration calculation has a math error.\r\n     *  Throws if the deposit is smaller than the duration.\r\n     *  Throws if the deposit is not a multiple of the duration.\r\n     *  Throws if the rate calculation has a math error.\r\n     *  Throws if the next stream id calculation has a math error.\r\n     *  Throws if the contract is not allowed to transfer enough tokens.\r\n     *  Throws if there is a token transfer failure.\r\n     * @param recipient The address towards which the money is streamed.\r\n     * @param deposit The amount of money to be streamed.\r\n     * @param tokenAddress The ERC20 token to use as streaming currency.\r\n     * @param startTime The unix timestamp for when the stream starts.\r\n     * @param stopTime The unix timestamp for when the stream stops.\r\n     * @return The uint256 id of the newly created stream.\r\n     */\r\n    function createStream(\r\n        address recipient,\r\n        uint256 deposit,\r\n        address tokenAddress,\r\n        uint256 startTime,\r\n        uint256 stopTime\r\n    ) public returns (uint256) {\r\n        // require(recipient != address(0x00), \"stream to the zero address\");\r\n        // require(recipient != address(this), \"stream to the contract itself\");\r\n        // require(recipient != msg.sender, \"stream to the caller\");\r\n        require(deposit > 0, \"deposit is zero\");\r\n        // require(\r\n        //     startTime >= block.timestamp,\r\n        //     \"start time before block.timestamp\"\r\n        // );\r\n\r\n        // require(stopTime > startTime, \"stop time before the start time\");\r\n\r\n        CreateStreamLocalVars memory vars;\r\n        (vars.mathErr, vars.duration) = subUInt(stopTime, startTime);\r\n        /* `subUInt` can only return MathError.INTEGER_UNDERFLOW but we know `stopTime` is higher than `startTime`. */\r\n        assert(vars.mathErr == MathError.NO_ERROR);\r\n\r\n        /* Without this, the rate per second would be zero. */\r\n        require(deposit >= vars.duration, \"deposit smaller than time delta\");\r\n\r\n        /* This condition avoids dealing with remainders */\r\n        // require(\r\n        //     deposit % vars.duration == 0,\r\n        //     \"deposit not multiple of time delta\"\r\n        // );\r\n\r\n        (vars.mathErr, vars.ratePerSecond) = divUInt(deposit, vars.duration);\r\n        /* `divUInt` can only return MathError.DIVISION_BY_ZERO but we know `duration` is not zero. */\r\n        assert(vars.mathErr == MathError.NO_ERROR);\r\n\r\n        /* Create and store the stream object. */\r\n        uint256 streamId = nextStreamId;\r\n        streams[streamId] = Types.Stream({\r\n            remainingBalance: deposit,\r\n            deposit: deposit,\r\n            isEntity: true,\r\n            ratePerSecond: vars.ratePerSecond,\r\n            recipient: recipient,\r\n            sender: msg.sender,\r\n            startTime: startTime,\r\n            stopTime: stopTime,\r\n            tokenAddress: tokenAddress\r\n        });\r\n\r\n        /* Increment the next stream id. */\r\n        (vars.mathErr, nextStreamId) = addUInt(nextStreamId, uint256(1));\r\n        require(\r\n            vars.mathErr == MathError.NO_ERROR,\r\n            \"next stream id calculation error\"\r\n        );\r\n\r\n        require(\r\n            ERC20Burnable(tokenAddress).transferFrom(\r\n                msg.sender,\r\n                address(this),\r\n                deposit\r\n            ),\r\n            \"token transfer failure\"\r\n        );\r\n        emit CreateStream(\r\n            streamId,\r\n            msg.sender,\r\n            recipient,\r\n            deposit,\r\n            tokenAddress,\r\n            startTime,\r\n            stopTime\r\n        );\r\n        return streamId;\r\n    }\r\n\r\n    struct WithdrawFromStreamLocalVars {\r\n        MathError mathErr;\r\n    }\r\n\r\n    /**\r\n     * @notice Withdraws from the contract to the recipient's account.\r\n     * @dev Throws if the id does not point to a valid stream.\r\n     *  Throws if the caller is not the sender or the recipient of the stream.\r\n     *  Throws if the amount exceeds the available balance.\r\n     *  Throws if there is a token transfer failure.\r\n     * @param streamId The id of the stream to withdraw tokens from.\r\n     * @param amount The amount of tokens to withdraw.\r\n     * @return bool true=success, otherwise false.\r\n     */\r\n    function withdrawFromStream(uint256 streamId, uint256 amount)\r\n        external\r\n        nonReentrant\r\n        streamExists(streamId)\r\n        onlySenderOrRecipient(streamId)\r\n        returns (bool)\r\n    {\r\n        require(amount > 0, \"amount is zero\");\r\n        Types.Stream memory stream = streams[streamId];\r\n        WithdrawFromStreamLocalVars memory vars;\r\n\r\n        uint256 balance = balanceOf(streamId, stream.recipient);\r\n        require(balance >= amount, \"amount exceeds the available balance\");\r\n\r\n        (vars.mathErr, streams[streamId].remainingBalance) = subUInt(\r\n            stream.remainingBalance,\r\n            amount\r\n        );\r\n        /**\r\n         * `subUInt` can only return MathError.INTEGER_UNDERFLOW but we know that `remainingBalance` is at least\r\n         * as big as `amount`.\r\n         */\r\n        assert(vars.mathErr == MathError.NO_ERROR);\r\n\r\n        if (streams[streamId].remainingBalance == 0) delete streams[streamId];\r\n\r\n        require(\r\n            ERC20Burnable(stream.tokenAddress).transfer(\r\n                stream.recipient,\r\n                amount\r\n            ),\r\n            \"token transfer failure\"\r\n        );\r\n        emit WithdrawFromStream(streamId, stream.recipient, amount);\r\n    }\r\n\r\n    /**\r\n     * @notice Cancels the stream and transfers the tokens back on a pro rata basis.\r\n     * @dev Throws if the id does not point to a valid stream.\r\n     *  Throws if the caller is not the sender or the recipient of the stream.\r\n     *  Throws if there is a token transfer failure.\r\n     * @param streamId The id of the stream to cancel.\r\n     * @return bool true=success, otherwise false.\r\n     */\r\n    function cancelStream(uint256 streamId)\r\n        external\r\n        nonReentrant\r\n        streamExists(streamId)\r\n        onlyOwner()\r\n        returns (bool)\r\n    {\r\n        Types.Stream memory stream = streams[streamId];\r\n        uint256 senderBalance = balanceOf(streamId, stream.sender);\r\n        uint256 recipientBalance = balanceOf(streamId, stream.recipient);\r\n\r\n        delete streams[streamId];\r\n\r\n        ERC20Burnable token = ERC20Burnable(stream.tokenAddress);\r\n        if (recipientBalance > 0)\r\n            require(\r\n                token.transfer(stream.recipient, recipientBalance),\r\n                \"recipient token transfer failure\"\r\n            );\r\n        if (senderBalance > 0)\r\n            require(\r\n                token.transfer(stream.sender, senderBalance),\r\n                \"sender token transfer failure\"\r\n            );\r\n\r\n        emit CancelStream(\r\n            streamId,\r\n            stream.sender,\r\n            stream.recipient,\r\n            senderBalance,\r\n            recipientBalance\r\n        );\r\n    }\r\n\r\n    // TODO make it permissioned to only the receiver address\r\n    function Close(uint256 streamId)\r\n        external\r\n        nonReentrant\r\n        streamExists(streamId)\r\n    {\r\n        uint256 remainingBalance = balanceOfReverseStream(streamId);\r\n        Types.Stream memory stream = streams[streamId];\r\n        delete streams[streamId];\r\n        ERC20Burnable token = ERC20Burnable(stream.tokenAddress);\r\n\r\n        token.burn(remainingBalance);\r\n    }\r\n    \r\n    function reportEvent(\r\n        string memory _content,\r\n        uint256 deposit,\r\n        address tokenAddress,\r\n        uint256 stopTime\r\n    ) public returns (uint256) {\r\n        reportCount++;\r\n        Report memory report = Report(nextStreamId, reportCount, _content);\r\n        reports[msg.sender].push(\r\n            report\r\n        );\r\n\r\n        allReports.push(\r\n            report\r\n        );\r\n\r\n        createReverseStream(\r\n            deposit,\r\n            tokenAddress,\r\n            stopTime\r\n        );\r\n\r\n        emit Reported(msg.sender, reportCount);\r\n    }\r\n\r\n    function getUserReports(address user) public view returns (Report[] memory){\r\n        return reports[user];\r\n    }\r\n\r\n    function getAllReports() public view returns (Report[] memory){\r\n        return allReports;\r\n    }\r\n}",
  "sourcePath": "D:/Documents/hac/blockchain/contracts/Reports.sol",
  "compiler": {
    "name": "solc",
    "version": "0.5.11+commit.c082d0b4.Emscripten.clang"
  },
  "schemaVersion": "3.2.5",
  "updatedAt": "2020-11-20T06:29:59.099Z",
  "networkType": "ethereum",
  "devdoc": {
    "methods": {
      "balanceOf(uint256,address)": {
        "details": "Throws if the id does not point to a valid stream.\r",
        "params": {
          "streamId": "The id of the stream for which to query the balance.\r",
          "who": "The address for which to query the balance.\r"
        },
        "return": "The total funds allocated to `who` as uint256.\r"
      },
      "balanceOfReverseStream(uint256)": {
        "details": "Throws if the id does not point to a valid stream.\r",
        "params": {
          "streamId": "The id of the stream for which to query the balance.\r"
        },
        "return": "The total funds allocated to `receiver` as uint256.\r"
      },
      "cancelStream(uint256)": {
        "details": "Throws if the id does not point to a valid stream.\r Throws if the caller is not the sender or the recipient of the stream.\r Throws if there is a token transfer failure.\r",
        "params": {
          "streamId": "The id of the stream to cancel.\r"
        },
        "return": "bool true=success, otherwise false.\r"
      },
      "createReverseStream(uint256,address,uint256)": {
        "details": "Throws if paused.\r Throws if the deposit is 0.\r Throws if the start time is before `block.timestamp`.\r Throws if the stop time is before the start time.\r Throws if the duration calculation has a math error.\r Throws if the deposit is smaller than the duration.\r Throws if the deposit is not a multiple of the duration.\r Throws if the rate calculation has a math error.\r Throws if the next stream id calculation has a math error.\r Throws if the contract is not allowed to transfer enough tokens.\r Throws if there is a token transfer failure.\r",
        "params": {
          "deposit": "The amount of money to be streamed.\r",
          "stopTime": "The unix timestamp for when the stream stops.\r",
          "tokenAddress": "The ERC20 token to use as streaming currency.\r"
        },
        "return": "The uint256 id of the newly created stream.\r"
      },
      "createStream(address,uint256,address,uint256,uint256)": {
        "details": "Throws if paused.\r Throws if the deposit is 0.\r Throws if the start time is before `block.timestamp`.\r Throws if the stop time is before the start time.\r Throws if the duration calculation has a math error.\r Throws if the deposit is smaller than the duration.\r Throws if the deposit is not a multiple of the duration.\r Throws if the rate calculation has a math error.\r Throws if the next stream id calculation has a math error.\r Throws if the contract is not allowed to transfer enough tokens.\r Throws if there is a token transfer failure.\r",
        "params": {
          "deposit": "The amount of money to be streamed.\r",
          "recipient": "The address towards which the money is streamed.\r",
          "startTime": "The unix timestamp for when the stream starts.\r",
          "stopTime": "The unix timestamp for when the stream stops.\r",
          "tokenAddress": "The ERC20 token to use as streaming currency.\r"
        },
        "return": "The uint256 id of the newly created stream.\r"
      },
      "deltaOf(uint256)": {
        "details": "Throws if the id does not point to a valid stream.\r",
        "params": {
          "streamId": "The id of the stream for which to query the delta.\r"
        },
        "return": "The time delta in seconds.\r"
      },
      "getStream(uint256)": {
        "details": "Throws if the id does not point to a valid stream.\r",
        "params": {
          "streamId": "The id of the stream to query.\r"
        },
        "return": "The stream object.\r"
      },
      "withdrawFromStream(uint256,uint256)": {
        "details": "Throws if the id does not point to a valid stream.\r Throws if the caller is not the sender or the recipient of the stream.\r Throws if the amount exceeds the available balance.\r Throws if there is a token transfer failure.\r",
        "params": {
          "amount": "The amount of tokens to withdraw.\r",
          "streamId": "The id of the stream to withdraw tokens from.\r"
        },
        "return": "bool true=success, otherwise false.\r"
      }
    }
  },
  "userdoc": {
    "methods": {
      "balanceOf(uint256,address)": {
        "notice": "Returns the available funds for the given stream id and address.\r"
      },
      "balanceOfReverseStream(uint256)": {
        "notice": "Returns the available funds for the given stream id and address.\r"
      },
      "cancelStream(uint256)": {
        "notice": "Cancels the stream and transfers the tokens back on a pro rata basis.\r"
      },
      "constructor": "* Contract Logic Starts Here ",
      "createReverseStream(uint256,address,uint256)": {
        "notice": "Creates a new reverse stream stream funded by `msg.sender` and paid towards `msg.sender`.\r"
      },
      "createStream(address,uint256,address,uint256,uint256)": {
        "notice": "Creates a new  stream stream funded by `msg.sender` and paid towards `msg.sender`.\r"
      },
      "deltaOf(uint256)": {
        "notice": "Returns either the delta in seconds between `block.timestamp` and `startTime` or\r between `stopTime` and `startTime, whichever is smaller. If `block.timestamp` is before\r `startTime`, it returns 0.\r"
      },
      "getStream(uint256)": {
        "notice": "Returns the compounding stream with all its properties.\r"
      },
      "withdrawFromStream(uint256,uint256)": {
        "notice": "Withdraws from the contract to the recipient's account.\r"
      }
    }
  }
}