{
  "contractName": "Reports",
  "abi": [
    {
      "constant": true,
      "inputs": [],
      "name": "nextStreamId",
      "outputs": [
        {
          "internalType": "uint256",
          "name": "",
          "type": "uint256"
        }
      ],
      "payable": false,
      "stateMutability": "view",
      "type": "function"
    },
    {
      "constant": true,
      "inputs": [],
      "name": "fee",
      "outputs": [
        {
          "internalType": "uint256",
          "name": "mantissa",
          "type": "uint256"
        }
      ],
      "payable": false,
      "stateMutability": "view",
      "type": "function"
    },
    {
      "inputs": [],
      "payable": false,
      "stateMutability": "nonpayable",
      "type": "constructor"
    },
    {
      "anonymous": false,
      "inputs": [
        {
          "indexed": false,
          "internalType": "address",
          "name": "by",
          "type": "address"
        },
        {
          "indexed": false,
          "internalType": "uint256",
          "name": "id",
          "type": "uint256"
        }
      ],
      "name": "Reported",
      "type": "event"
    },
    {
      "anonymous": false,
      "inputs": [
        {
          "indexed": true,
          "internalType": "uint256",
          "name": "streamId",
          "type": "uint256"
        },
        {
          "indexed": true,
          "internalType": "address",
          "name": "sender",
          "type": "address"
        },
        {
          "indexed": true,
          "internalType": "address",
          "name": "recipient",
          "type": "address"
        },
        {
          "indexed": false,
          "internalType": "uint256",
          "name": "deposit",
          "type": "uint256"
        },
        {
          "indexed": false,
          "internalType": "address",
          "name": "tokenAddress",
          "type": "address"
        },
        {
          "indexed": false,
          "internalType": "uint256",
          "name": "startTime",
          "type": "uint256"
        },
        {
          "indexed": false,
          "internalType": "uint256",
          "name": "stopTime",
          "type": "uint256"
        }
      ],
      "name": "CreateStream",
      "type": "event"
    },
    {
      "anonymous": false,
      "inputs": [
        {
          "indexed": true,
          "internalType": "uint256",
          "name": "streamId",
          "type": "uint256"
        },
        {
          "indexed": true,
          "internalType": "address",
          "name": "recipient",
          "type": "address"
        },
        {
          "indexed": false,
          "internalType": "uint256",
          "name": "amount",
          "type": "uint256"
        }
      ],
      "name": "WithdrawFromStream",
      "type": "event"
    },
    {
      "anonymous": false,
      "inputs": [
        {
          "indexed": true,
          "internalType": "uint256",
          "name": "streamId",
          "type": "uint256"
        },
        {
          "indexed": true,
          "internalType": "address",
          "name": "sender",
          "type": "address"
        },
        {
          "indexed": true,
          "internalType": "address",
          "name": "recipient",
          "type": "address"
        },
        {
          "indexed": false,
          "internalType": "uint256",
          "name": "senderBalance",
          "type": "uint256"
        },
        {
          "indexed": false,
          "internalType": "uint256",
          "name": "recipientBalance",
          "type": "uint256"
        }
      ],
      "name": "CancelStream",
      "type": "event"
    },
    {
      "constant": true,
      "inputs": [
        {
          "internalType": "uint256",
          "name": "streamId",
          "type": "uint256"
        }
      ],
      "name": "getStream",
      "outputs": [
        {
          "internalType": "address",
          "name": "sender",
          "type": "address"
        },
        {
          "internalType": "address",
          "name": "recipient",
          "type": "address"
        },
        {
          "internalType": "uint256",
          "name": "deposit",
          "type": "uint256"
        },
        {
          "internalType": "address",
          "name": "tokenAddress",
          "type": "address"
        },
        {
          "internalType": "uint256",
          "name": "startTime",
          "type": "uint256"
        },
        {
          "internalType": "uint256",
          "name": "stopTime",
          "type": "uint256"
        },
        {
          "internalType": "uint256",
          "name": "remainingBalance",
          "type": "uint256"
        },
        {
          "internalType": "uint256",
          "name": "ratePerSecond",
          "type": "uint256"
        }
      ],
      "payable": false,
      "stateMutability": "view",
      "type": "function"
    },
    {
      "constant": true,
      "inputs": [
        {
          "internalType": "uint256",
          "name": "streamId",
          "type": "uint256"
        }
      ],
      "name": "deltaOf",
      "outputs": [
        {
          "internalType": "uint256",
          "name": "delta",
          "type": "uint256"
        }
      ],
      "payable": false,
      "stateMutability": "view",
      "type": "function"
    },
    {
      "constant": true,
      "inputs": [
        {
          "internalType": "uint256",
          "name": "streamId",
          "type": "uint256"
        }
      ],
      "name": "deltaOfReverseStream",
      "outputs": [
        {
          "internalType": "uint256",
          "name": "delta",
          "type": "uint256"
        }
      ],
      "payable": false,
      "stateMutability": "view",
      "type": "function"
    },
    {
      "constant": true,
      "inputs": [
        {
          "internalType": "uint256",
          "name": "streamId",
          "type": "uint256"
        }
      ],
      "name": "balanceOfReverseStream",
      "outputs": [
        {
          "internalType": "uint256",
          "name": "balance",
          "type": "uint256"
        }
      ],
      "payable": false,
      "stateMutability": "view",
      "type": "function"
    },
    {
      "constant": true,
      "inputs": [
        {
          "internalType": "uint256",
          "name": "streamId",
          "type": "uint256"
        },
        {
          "internalType": "address",
          "name": "who",
          "type": "address"
        }
      ],
      "name": "balanceOf",
      "outputs": [
        {
          "internalType": "uint256",
          "name": "balance",
          "type": "uint256"
        }
      ],
      "payable": false,
      "stateMutability": "view",
      "type": "function"
    },
    {
      "constant": false,
      "inputs": [
        {
          "internalType": "uint256",
          "name": "deposit",
          "type": "uint256"
        },
        {
          "internalType": "address",
          "name": "tokenAddress",
          "type": "address"
        },
        {
          "internalType": "uint256",
          "name": "stopTime",
          "type": "uint256"
        }
      ],
      "name": "createReverseStream",
      "outputs": [
        {
          "internalType": "uint256",
          "name": "",
          "type": "uint256"
        }
      ],
      "payable": false,
      "stateMutability": "nonpayable",
      "type": "function"
    },
    {
      "constant": false,
      "inputs": [
        {
          "internalType": "address",
          "name": "recipient",
          "type": "address"
        },
        {
          "internalType": "uint256",
          "name": "deposit",
          "type": "uint256"
        },
        {
          "internalType": "address",
          "name": "tokenAddress",
          "type": "address"
        },
        {
          "internalType": "uint256",
          "name": "startTime",
          "type": "uint256"
        },
        {
          "internalType": "uint256",
          "name": "stopTime",
          "type": "uint256"
        }
      ],
      "name": "createStream",
      "outputs": [
        {
          "internalType": "uint256",
          "name": "",
          "type": "uint256"
        }
      ],
      "payable": false,
      "stateMutability": "nonpayable",
      "type": "function"
    },
    {
      "constant": false,
      "inputs": [
        {
          "internalType": "uint256",
          "name": "streamId",
          "type": "uint256"
        },
        {
          "internalType": "uint256",
          "name": "amount",
          "type": "uint256"
        }
      ],
      "name": "withdrawFromStream",
      "outputs": [
        {
          "internalType": "bool",
          "name": "",
          "type": "bool"
        }
      ],
      "payable": false,
      "stateMutability": "nonpayable",
      "type": "function"
    },
    {
      "constant": false,
      "inputs": [
        {
          "internalType": "uint256",
          "name": "streamId",
          "type": "uint256"
        }
      ],
      "name": "cancelStream",
      "outputs": [
        {
          "internalType": "bool",
          "name": "",
          "type": "bool"
        }
      ],
      "payable": false,
      "stateMutability": "nonpayable",
      "type": "function"
    },
    {
      "constant": false,
      "inputs": [
        {
          "internalType": "uint256",
          "name": "streamId",
          "type": "uint256"
        }
      ],
      "name": "Close",
      "outputs": [],
      "payable": false,
      "stateMutability": "nonpayable",
      "type": "function"
    },
    {
      "constant": false,
      "inputs": [
        {
          "internalType": "string",
          "name": "_content",
          "type": "string"
        },
        {
          "internalType": "uint256",
          "name": "deposit",
          "type": "uint256"
        },
        {
          "internalType": "address",
          "name": "tokenAddress",
          "type": "address"
        },
        {
          "internalType": "uint256",
          "name": "stopTime",
          "type": "uint256"
        }
      ],
      "name": "reportEvent",
      "outputs": [
        {
          "internalType": "uint256",
          "name": "",
          "type": "uint256"
        }
      ],
      "payable": false,
      "stateMutability": "nonpayable",
      "type": "function"
    },
    {
      "constant": true,
      "inputs": [
        {
          "internalType": "address",
          "name": "user",
          "type": "address"
        }
      ],
      "name": "getUserReports",
      "outputs": [
        {
          "components": [
            {
              "internalType": "uint256",
              "name": "Id",
              "type": "uint256"
            },
            {
              "internalType": "string",
              "name": "content",
              "type": "string"
            },
            {
              "internalType": "uint256",
              "name": "amount",
              "type": "uint256"
            },
            {
              "internalType": "uint256",
              "name": "streamId",
              "type": "uint256"
            }
          ],
          "internalType": "struct Reports.Report[]",
          "name": "",
          "type": "tuple[]"
        }
      ],
      "payable": false,
      "stateMutability": "view",
      "type": "function"
    },
    {
      "constant": true,
      "inputs": [],
      "name": "getAllReports",
      "outputs": [
        {
          "components": [
            {
              "internalType": "uint256",
              "name": "Id",
              "type": "uint256"
            },
            {
              "internalType": "string",
              "name": "content",
              "type": "string"
            },
            {
              "internalType": "uint256",
              "name": "amount",
              "type": "uint256"
            },
            {
              "internalType": "uint256",
              "name": "streamId",
              "type": "uint256"
            }
          ],
          "internalType": "struct Reports.Report[]",
          "name": "",
          "type": "tuple[]"
        }
      ],
      "payable": false,
      "stateMutability": "view",
      "type": "function"
    }
  ],
  "bytecode": "0x608060405234801561001057600080fd5b5060016000806101000a81548160ff0219169083151502179055506000600181905550600160068190555033600860006101000a81548173ffffffffffffffffffffffffffffffffffffffff021916908373ffffffffffffffffffffffffffffffffffffffff160217905550613a6b8061008b6000396000f3fe608060405234801561001057600080fd5b50600436106100f55760003560e01c8063894e9a0d11610097578063bf67515a11610066578063bf67515a146102ff578063cc1b4bf61461031b578063ddca3f431461034b578063f3d3ddfa14610369576100f5565b8063894e9a0d14610238578063a2233a761461026f578063a5d24f111461029f578063a82ccd4d146102cf576100f5565b80636db9241b116100d35780636db9241b146101785780636edf70c1146101a857806370a05afc146101d85780637a9b2c6c14610208576100f5565b8063103aa23c146100fa5780631e99d5691461012a5780633656eec214610148575b600080fd5b610114600480360361010f9190810190612f99565b610387565b60405161012191906137ca565b60405180910390f35b61013261039e565b60405161013f91906137ca565b60405180910390f35b610162600480360361015d9190810190612f5d565b6103a4565b60405161016f91906137ca565b60405180910390f35b610192600480360361018d9190810190612f34565b6107f2565b60405161019f919061362f565b60405180910390f35b6101c260048036036101bd9190810190612f34565b610e04565b6040516101cf91906137ca565b60405180910390f35b6101f260048036036101ed9190810190612df0565b611167565b6040516101ff919061360d565b60405180910390f35b610222600480360361021d9190810190612fe8565b6112c5565b60405161022f919061362f565b60405180910390f35b610252600480360361024d9190810190612f34565b61195e565b604051610266989796959493929190613566565b60405180910390f35b61028960048036036102849190810190612eb9565b611b02565b60405161029691906137ca565b60405180910390f35b6102b960048036036102b49190810190612f34565b611caa565b6040516102c691906137ca565b60405180910390f35b6102e960048036036102e49190810190612f34565b611eb8565b6040516102f691906137ca565b60405180910390f35b61031960048036036103149190810190612f34565b6120db565b005b61033560048036036103309190810190612e19565b612488565b60405161034291906137ca565b60405180910390f35b610353612974565b60405161036091906137ca565b60405180910390f35b610371612980565b60405161037e919061360d565b60405180910390f35b60006103963385854286612488565b509392505050565b60065481565b6000826007600082815260200190815260200160002060070160149054906101000a900460ff1661040a576040517f08c379a00000000000000000000000000000000000000000000000000000000081526004016104019061368a565b60405180910390fd5b610412612b83565b600760008681526020019081526020016000206040518061012001604052908160008201548152602001600182015481526020016002820154815260200160038201548152602001600482015481526020016005820160009054906101000a900473ffffffffffffffffffffffffffffffffffffffff1673ffffffffffffffffffffffffffffffffffffffff1673ffffffffffffffffffffffffffffffffffffffff1681526020016006820160009054906101000a900473ffffffffffffffffffffffffffffffffffffffff1673ffffffffffffffffffffffffffffffffffffffff1673ffffffffffffffffffffffffffffffffffffffff1681526020016007820160009054906101000a900473ffffffffffffffffffffffffffffffffffffffff1673ffffffffffffffffffffffffffffffffffffffff1673ffffffffffffffffffffffffffffffffffffffff1681526020016007820160149054906101000a900460ff161515151581525050905061058a612c13565b600061059587611eb8565b90506105a5818460200151612a9f565b8360000184602001828152508260038111156105bd57fe5b60038111156105c857fe5b8152505050600060038111156105da57fe5b826000015160038111156105ea57fe5b1461062a576040517f08c379a00000000000000000000000000000000000000000000000000000000081526004016106219061372a565b60405180910390fd5b8260400151836000015111156106f75761064c83600001518460400151612af2565b83600001846040018281525082600381111561066457fe5b600381111561066f57fe5b81525050506000600381111561068157fe5b8260000151600381111561069157fe5b1461069857fe5b6106aa82602001518360400151612af2565b8360000184602001828152508260038111156106c257fe5b60038111156106cd57fe5b8152505050600060038111156106df57fe5b826000015160038111156106ef57fe5b146106f657fe5b5b8260a0015173ffffffffffffffffffffffffffffffffffffffff168673ffffffffffffffffffffffffffffffffffffffff16141561073e57816020015194505050506107eb565b8260c0015173ffffffffffffffffffffffffffffffffffffffff168673ffffffffffffffffffffffffffffffffffffffff1614156107e35761078883604001518360200151612af2565b8360000184606001828152508260038111156107a057fe5b60038111156107ab57fe5b8152505050600060038111156107bd57fe5b826000015160038111156107cd57fe5b146107d457fe5b816060015194505050506107eb565b600094505050505b5092915050565b60008060009054906101000a900460ff16610842576040517f08c379a00000000000000000000000000000000000000000000000000000000081526004016108399061378a565b60405180910390fd5b60008060006101000a81548160ff021916908315150217905550816007600082815260200190815260200160002060070160149054906101000a900460ff166108c0576040517f08c379a00000000000000000000000000000000000000000000000000000000081526004016108b79061368a565b60405180910390fd5b3373ffffffffffffffffffffffffffffffffffffffff16600860009054906101000a900473ffffffffffffffffffffffffffffffffffffffff1673ffffffffffffffffffffffffffffffffffffffff1614610950576040517f08c379a00000000000000000000000000000000000000000000000000000000081526004016109479061368a565b60405180910390fd5b610958612b83565b600760008581526020019081526020016000206040518061012001604052908160008201548152602001600182015481526020016002820154815260200160038201548152602001600482015481526020016005820160009054906101000a900473ffffffffffffffffffffffffffffffffffffffff1673ffffffffffffffffffffffffffffffffffffffff1673ffffffffffffffffffffffffffffffffffffffff1681526020016006820160009054906101000a900473ffffffffffffffffffffffffffffffffffffffff1673ffffffffffffffffffffffffffffffffffffffff1673ffffffffffffffffffffffffffffffffffffffff1681526020016007820160009054906101000a900473ffffffffffffffffffffffffffffffffffffffff1673ffffffffffffffffffffffffffffffffffffffff1673ffffffffffffffffffffffffffffffffffffffff1681526020016007820160149054906101000a900460ff16151515158152505090506000610ad8858360c001516103a4565b90506000610aea868460a001516103a4565b90506007600087815260200190815260200160002060008082016000905560018201600090556002820160009055600382016000905560048201600090556005820160006101000a81549073ffffffffffffffffffffffffffffffffffffffff02191690556006820160006101000a81549073ffffffffffffffffffffffffffffffffffffffff02191690556007820160006101000a81549073ffffffffffffffffffffffffffffffffffffffff02191690556007820160146101000a81549060ff0219169055505060008360e0015190506000821115610c96578073ffffffffffffffffffffffffffffffffffffffff1663a9059cbb8560a00151846040518363ffffffff1660e01b8152600401610c049291906135e4565b602060405180830381600087803b158015610c1e57600080fd5b505af1158015610c32573d6000803e3d6000fd5b505050506040513d601f19601f82011682018060405250610c569190810190612e90565b610c95576040517f08c379a0000000000000000000000000000000000000000000000000000000008152600401610c8c906137aa565b60405180910390fd5b5b6000831115610d70578073ffffffffffffffffffffffffffffffffffffffff1663a9059cbb8560c00151856040518363ffffffff1660e01b8152600401610cde9291906135e4565b602060405180830381600087803b158015610cf857600080fd5b505af1158015610d0c573d6000803e3d6000fd5b505050506040513d601f19601f82011682018060405250610d309190810190612e90565b610d6f576040517f08c379a0000000000000000000000000000000000000000000000000000000008152600401610d66906136aa565b60405180910390fd5b5b8360a0015173ffffffffffffffffffffffffffffffffffffffff168460c0015173ffffffffffffffffffffffffffffffffffffffff16887fca3e6079b726e7728802a0537949e2d1c7762304fa641fb06eb56daf2ba8c6b98686604051610dd892919061382a565b60405180910390a4505050505060016000806101000a81548160ff021916908315150217905550919050565b6000816007600082815260200190815260200160002060070160149054906101000a900460ff16610e6a576040517f08c379a0000000000000000000000000000000000000000000000000000000008152600401610e619061368a565b60405180910390fd5b610e72612b83565b600760008581526020019081526020016000206040518061012001604052908160008201548152602001600182015481526020016002820154815260200160038201548152602001600482015481526020016005820160009054906101000a900473ffffffffffffffffffffffffffffffffffffffff1673ffffffffffffffffffffffffffffffffffffffff1673ffffffffffffffffffffffffffffffffffffffff1681526020016006820160009054906101000a900473ffffffffffffffffffffffffffffffffffffffff1673ffffffffffffffffffffffffffffffffffffffff1673ffffffffffffffffffffffffffffffffffffffff1681526020016007820160009054906101000a900473ffffffffffffffffffffffffffffffffffffffff1673ffffffffffffffffffffffffffffffffffffffff1673ffffffffffffffffffffffffffffffffffffffff1681526020016007820160149054906101000a900460ff1615151515815250509050610fea612c13565b6000610ff586611caa565b9050611005818460200151612a9f565b83600001846020018281525082600381111561101d57fe5b600381111561102857fe5b81525050506000600381111561103a57fe5b8260000151600381111561104a57fe5b1461108a576040517f08c379a00000000000000000000000000000000000000000000000000000000081526004016110819061372a565b60405180910390fd5b826040015183600001511115611157576110ac83600001518460400151612af2565b8360000184604001828152508260038111156110c457fe5b60038111156110cf57fe5b8152505050600060038111156110e157fe5b826000015160038111156110f157fe5b146110f857fe5b61110a82602001518360400151612af2565b83600001846020018281525082600381111561112257fe5b600381111561112d57fe5b81525050506000600381111561113f57fe5b8260000151600381111561114f57fe5b1461115657fe5b5b8160200151945050505050919050565b6060600260008373ffffffffffffffffffffffffffffffffffffffff1673ffffffffffffffffffffffffffffffffffffffff168152602001908152602001600020805480602002602001604051908101604052809291908181526020016000905b828210156112ba578382906000526020600020906004020160405180608001604052908160008201548152602001600182018054600181600116156101000203166002900480601f01602080910402602001604051908101604052809291908181526020018280546001816001161561010002031660029004801561128e5780601f106112635761010080835404028352916020019161128e565b820191906000526020600020905b81548152906001019060200180831161127157829003601f168201915b5050505050815260200160028201548152602001600382015481525050815260200190600101906111c8565b505050509050919050565b60008060009054906101000a900460ff16611315576040517f08c379a000000000000000000000000000000000000000000000000000000000815260040161130c9061378a565b60405180910390fd5b60008060006101000a81548160ff021916908315150217905550826007600082815260200190815260200160002060070160149054906101000a900460ff16611393576040517f08c379a000000000000000000000000000000000000000000000000000000000815260040161138a9061368a565b60405180910390fd5b836007600082815260200190815260200160002060060160009054906101000a900473ffffffffffffffffffffffffffffffffffffffff1673ffffffffffffffffffffffffffffffffffffffff163373ffffffffffffffffffffffffffffffffffffffff16148061146557506007600082815260200190815260200160002060050160009054906101000a900473ffffffffffffffffffffffffffffffffffffffff1673ffffffffffffffffffffffffffffffffffffffff163373ffffffffffffffffffffffffffffffffffffffff16145b6114a4576040517f08c379a000000000000000000000000000000000000000000000000000000000815260040161149b9061374a565b60405180910390fd5b600084116114e7576040517f08c379a00000000000000000000000000000000000000000000000000000000081526004016114de9061364a565b60405180910390fd5b6114ef612b83565b600760008781526020019081526020016000206040518061012001604052908160008201548152602001600182015481526020016002820154815260200160038201548152602001600482015481526020016005820160009054906101000a900473ffffffffffffffffffffffffffffffffffffffff1673ffffffffffffffffffffffffffffffffffffffff1673ffffffffffffffffffffffffffffffffffffffff1681526020016006820160009054906101000a900473ffffffffffffffffffffffffffffffffffffffff1673ffffffffffffffffffffffffffffffffffffffff1673ffffffffffffffffffffffffffffffffffffffff1681526020016007820160009054906101000a900473ffffffffffffffffffffffffffffffffffffffff1673ffffffffffffffffffffffffffffffffffffffff1673ffffffffffffffffffffffffffffffffffffffff1681526020016007820160149054906101000a900460ff1615151515815250509050611667612c46565b6000611677888460a001516103a4565b9050868110156116bc576040517f08c379a00000000000000000000000000000000000000000000000000000000081526004016116b39061366a565b60405180910390fd5b6116ca836040015188612af2565b83600001600760008c8152602001908152602001600020600201600083919050558260038111156116f757fe5b600381111561170257fe5b81525050506000600381111561171457fe5b8260000151600381111561172457fe5b1461172b57fe5b6000600760008a8152602001908152602001600020600201541415611812576007600089815260200190815260200160002060008082016000905560018201600090556002820160009055600382016000905560048201600090556005820160006101000a81549073ffffffffffffffffffffffffffffffffffffffff02191690556006820160006101000a81549073ffffffffffffffffffffffffffffffffffffffff02191690556007820160006101000a81549073ffffffffffffffffffffffffffffffffffffffff02191690556007820160146101000a81549060ff021916905550505b8260e0015173ffffffffffffffffffffffffffffffffffffffff1663a9059cbb8460a00151896040518363ffffffff1660e01b81526004016118559291906135e4565b602060405180830381600087803b15801561186f57600080fd5b505af1158015611883573d6000803e3d6000fd5b505050506040513d601f19601f820116820180604052506118a79190810190612e90565b6118e6576040517f08c379a00000000000000000000000000000000000000000000000000000000081526004016118dd906136ea565b60405180910390fd5b8260a0015173ffffffffffffffffffffffffffffffffffffffff16887f36c3ab437e6a424ed25dc4bfdeb62706aa06558660fab2dab229d2555adaf89c8960405161193191906137ca565b60405180910390a3505050505060016000806101000a81548160ff02191690831515021790555092915050565b600080600080600080600080886007600082815260200190815260200160002060070160149054906101000a900460ff166119ce576040517f08c379a00000000000000000000000000000000000000000000000000000000081526004016119c59061368a565b60405180910390fd5b600760008b815260200190815260200160002060060160009054906101000a900473ffffffffffffffffffffffffffffffffffffffff169850600760008b815260200190815260200160002060050160009054906101000a900473ffffffffffffffffffffffffffffffffffffffff169750600760008b8152602001908152602001600020600001549650600760008b815260200190815260200160002060070160009054906101000a900473ffffffffffffffffffffffffffffffffffffffff169550600760008b8152602001908152602001600020600301549450600760008b8152602001908152602001600020600401549350600760008b8152602001908152602001600020600201549250600760008b815260200190815260200160002060010154915050919395975091939597565b6000600160008154809291906001019190505550611b1e612c64565b604051806080016040528060015481526020018781526020016006548152602001868152509050600260003373ffffffffffffffffffffffffffffffffffffffff1673ffffffffffffffffffffffffffffffffffffffff1681526020019081526020016000208190806001815401808255809150509060018203906000526020600020906004020160009091929091909150600082015181600001556020820151816001019080519060200190611bd6929190612c8c565b50604082015181600201556060820151816003015550505060038190806001815401808255809150509060018203906000526020600020906004020160009091929091909150600082015181600001556020820151816001019080519060200190611c42929190612c8c565b506040820151816002015560608201518160030155505050611c65858585610387565b507f13ae4ea8eb28cf5104b119acecdbc7bfcab76402a5caca38c9a5810629876aac33600154604051611c9992919061353d565b60405180910390a150949350505050565b6000816007600082815260200190815260200160002060070160149054906101000a900460ff16611d10576040517f08c379a0000000000000000000000000000000000000000000000000000000008152600401611d079061368a565b60405180910390fd5b611d18612b83565b600760008581526020019081526020016000206040518061012001604052908160008201548152602001600182015481526020016002820154815260200160038201548152602001600482015481526020016005820160009054906101000a900473ffffffffffffffffffffffffffffffffffffffff1673ffffffffffffffffffffffffffffffffffffffff1673ffffffffffffffffffffffffffffffffffffffff1681526020016006820160009054906101000a900473ffffffffffffffffffffffffffffffffffffffff1673ffffffffffffffffffffffffffffffffffffffff1673ffffffffffffffffffffffffffffffffffffffff1681526020016007820160009054906101000a900473ffffffffffffffffffffffffffffffffffffffff1673ffffffffffffffffffffffffffffffffffffffff1673ffffffffffffffffffffffffffffffffffffffff1681526020016007820160149054906101000a900460ff16151515158152505090508060800151421015611ea35780606001514203925050611eb2565b80606001518160800151039250505b50919050565b6000816007600082815260200190815260200160002060070160149054906101000a900460ff16611f1e576040517f08c379a0000000000000000000000000000000000000000000000000000000008152600401611f159061368a565b60405180910390fd5b611f26612b83565b600760008581526020019081526020016000206040518061012001604052908160008201548152602001600182015481526020016002820154815260200160038201548152602001600482015481526020016005820160009054906101000a900473ffffffffffffffffffffffffffffffffffffffff1673ffffffffffffffffffffffffffffffffffffffff1673ffffffffffffffffffffffffffffffffffffffff1681526020016006820160009054906101000a900473ffffffffffffffffffffffffffffffffffffffff1673ffffffffffffffffffffffffffffffffffffffff1673ffffffffffffffffffffffffffffffffffffffff1681526020016007820160009054906101000a900473ffffffffffffffffffffffffffffffffffffffff1673ffffffffffffffffffffffffffffffffffffffff1673ffffffffffffffffffffffffffffffffffffffff1681526020016007820160149054906101000a900460ff1615151515815250509050806060015142116120ab5760009250506120d5565b80608001514210156120c657806060015142039250506120d5565b80606001518160800151039250505b50919050565b6000809054906101000a900460ff16612129576040517f08c379a00000000000000000000000000000000000000000000000000000000081526004016121209061378a565b60405180910390fd5b60008060006101000a81548160ff021916908315150217905550806007600082815260200190815260200160002060070160149054906101000a900460ff166121a7576040517f08c379a000000000000000000000000000000000000000000000000000000000815260040161219e9061368a565b60405180910390fd5b60006121b283610e04565b90506121bc612b83565b600760008581526020019081526020016000206040518061012001604052908160008201548152602001600182015481526020016002820154815260200160038201548152602001600482015481526020016005820160009054906101000a900473ffffffffffffffffffffffffffffffffffffffff1673ffffffffffffffffffffffffffffffffffffffff1673ffffffffffffffffffffffffffffffffffffffff1681526020016006820160009054906101000a900473ffffffffffffffffffffffffffffffffffffffff1673ffffffffffffffffffffffffffffffffffffffff1673ffffffffffffffffffffffffffffffffffffffff1681526020016007820160009054906101000a900473ffffffffffffffffffffffffffffffffffffffff1673ffffffffffffffffffffffffffffffffffffffff1673ffffffffffffffffffffffffffffffffffffffff1681526020016007820160149054906101000a900460ff16151515158152505090506007600085815260200190815260200160002060008082016000905560018201600090556002820160009055600382016000905560048201600090556005820160006101000a81549073ffffffffffffffffffffffffffffffffffffffff02191690556006820160006101000a81549073ffffffffffffffffffffffffffffffffffffffff02191690556007820160006101000a81549073ffffffffffffffffffffffffffffffffffffffff02191690556007820160146101000a81549060ff0219169055505060008160e0015190508073ffffffffffffffffffffffffffffffffffffffff166342966c68846040518263ffffffff1660e01b815260040161243591906137ca565b600060405180830381600087803b15801561244f57600080fd5b505af1158015612463573d6000803e3d6000fd5b505050505050505060016000806101000a81548160ff02191690831515021790555050565b60008085116124cc576040517f08c379a00000000000000000000000000000000000000000000000000000000081526004016124c3906136ca565b60405180910390fd5b6124d4612d0c565b6124de8385612af2565b8260000183602001828152508260038111156124f657fe5b600381111561250157fe5b81525050506000600381111561251357fe5b8160000151600381111561252357fe5b1461252a57fe5b8060200151861015612571576040517f08c379a00000000000000000000000000000000000000000000000000000000081526004016125689061376a565b60405180910390fd5b61257f868260200151612b1d565b82600001836040018281525082600381111561259757fe5b60038111156125a257fe5b8152505050600060038111156125b457fe5b816000015160038111156125c457fe5b146125cb57fe5b60006006549050604051806101200160405280888152602001836040015181526020018881526020018681526020018581526020018973ffffffffffffffffffffffffffffffffffffffff1681526020013373ffffffffffffffffffffffffffffffffffffffff1681526020018773ffffffffffffffffffffffffffffffffffffffff1681526020016001151581525060076000838152602001908152602001600020600082015181600001556020820151816001015560408201518160020155606082015181600301556080820151816004015560a08201518160050160006101000a81548173ffffffffffffffffffffffffffffffffffffffff021916908373ffffffffffffffffffffffffffffffffffffffff16021790555060c08201518160060160006101000a81548173ffffffffffffffffffffffffffffffffffffffff021916908373ffffffffffffffffffffffffffffffffffffffff16021790555060e08201518160070160006101000a81548173ffffffffffffffffffffffffffffffffffffffff021916908373ffffffffffffffffffffffffffffffffffffffff1602179055506101008201518160070160146101000a81548160ff0219169083151502179055509050506127a66006546001612b51565b836000016006600083919050558260038111156127bf57fe5b60038111156127ca57fe5b8152505050600060038111156127dc57fe5b826000015160038111156127ec57fe5b1461282c576040517f08c379a00000000000000000000000000000000000000000000000000000000081526004016128239061370a565b60405180910390fd5b8573ffffffffffffffffffffffffffffffffffffffff166323b872dd33308a6040518463ffffffff1660e01b815260040161286993929190613506565b602060405180830381600087803b15801561288357600080fd5b505af1158015612897573d6000803e3d6000fd5b505050506040513d601f19601f820116820180604052506128bb9190810190612e90565b6128fa576040517f08c379a00000000000000000000000000000000000000000000000000000000081526004016128f1906136ea565b60405180910390fd5b8773ffffffffffffffffffffffffffffffffffffffff163373ffffffffffffffffffffffffffffffffffffffff16827f7b01d409597969366dc268d7f957a990d1ca3d3449baf8fb45db67351aecfe788a8a8a8a60405161295e94939291906137e5565b60405180910390a4809250505095945050505050565b60058060000154905081565b60606003805480602002602001604051908101604052809291908181526020016000905b82821015612a96578382906000526020600020906004020160405180608001604052908160008201548152602001600182018054600181600116156101000203166002900480601f016020809104026020016040519081016040528092919081815260200182805460018160011615610100020316600290048015612a6a5780601f10612a3f57610100808354040283529160200191612a6a565b820191906000526020600020905b815481529060010190602001808311612a4d57829003601f168201915b5050505050815260200160028201548152602001600382015481525050815260200190600101906129a4565b50505050905090565b6000806000841415612aba5760008080905091509150612aeb565b6000838502905083858281612acb57fe5b0414612ae257600260008090509250925050612aeb565b60008192509250505b9250929050565b600080838311612b0a57600083850391509150612b16565b60036000809050915091505b9250929050565b6000806000831415612b39576001600080905091509150612b4a565b6000838581612b4457fe5b04915091505b9250929050565b60008060008385019050848110612b6f576000819250925050612b7c565b6002600080905092509250505b9250929050565b6040518061012001604052806000815260200160008152602001600081526020016000815260200160008152602001600073ffffffffffffffffffffffffffffffffffffffff168152602001600073ffffffffffffffffffffffffffffffffffffffff168152602001600073ffffffffffffffffffffffffffffffffffffffff1681526020016000151581525090565b604051806080016040528060006003811115612c2b57fe5b81526020016000815260200160008152602001600081525090565b604051806020016040528060006003811115612c5e57fe5b81525090565b6040518060800160405280600081526020016060815260200160008152602001600081525090565b828054600181600116156101000203166002900490600052602060002090601f016020900481019282601f10612ccd57805160ff1916838001178555612cfb565b82800160010185558215612cfb579182015b82811115612cfa578251825591602001919060010190612cdf565b5b509050612d089190612d38565b5090565b604051806060016040528060006003811115612d2457fe5b815260200160008152602001600081525090565b612d5a91905b80821115612d56576000816000905550600101612d3e565b5090565b90565b600081359050612d6c816139e3565b92915050565b600081519050612d81816139fa565b92915050565b600082601f830112612d9857600080fd5b8135612dab612da682613880565b613853565b91508082526020830160208301858383011115612dc757600080fd5b612dd2838284613990565b50505092915050565b600081359050612dea81613a11565b92915050565b600060208284031215612e0257600080fd5b6000612e1084828501612d5d565b91505092915050565b600080600080600060a08688031215612e3157600080fd5b6000612e3f88828901612d5d565b9550506020612e5088828901612ddb565b9450506040612e6188828901612d5d565b9350506060612e7288828901612ddb565b9250506080612e8388828901612ddb565b9150509295509295909350565b600060208284031215612ea257600080fd5b6000612eb084828501612d72565b91505092915050565b60008060008060808587031215612ecf57600080fd5b600085013567ffffffffffffffff811115612ee957600080fd5b612ef587828801612d87565b9450506020612f0687828801612ddb565b9350506040612f1787828801612d5d565b9250506060612f2887828801612ddb565b91505092959194509250565b600060208284031215612f4657600080fd5b6000612f5484828501612ddb565b91505092915050565b60008060408385031215612f7057600080fd5b6000612f7e85828601612ddb565b9250506020612f8f85828601612d5d565b9150509250929050565b600080600060608486031215612fae57600080fd5b6000612fbc86828701612ddb565b9350506020612fcd86828701612d5d565b9250506040612fde86828701612ddb565b9150509250925092565b60008060408385031215612ffb57600080fd5b600061300985828601612ddb565b925050602061301a85828601612ddb565b9150509250929050565b60006130308383613485565b905092915050565b6130418161395a565b82525050565b61305081613912565b82525050565b6000613061826138bc565b61306b81856138df565b93508360208202850161307d856138ac565b8060005b858110156130b9578484038952815161309a8582613024565b94506130a5836138d2565b925060208a01995050600181019050613081565b50829750879550505050505092915050565b6130d481613924565b82525050565b60006130e5826138c7565b6130ef81856138f0565b93506130ff81856020860161399f565b613108816139d2565b840191505092915050565b6000613120600e83613901565b91507f616d6f756e74206973207a65726f0000000000000000000000000000000000006000830152602082019050919050565b6000613160602483613901565b91507f616d6f756e7420657863656564732074686520617661696c61626c652062616c60008301527f616e6365000000000000000000000000000000000000000000000000000000006020830152604082019050919050565b60006131c6601583613901565b91507f73747265616d20646f6573206e6f7420657869737400000000000000000000006000830152602082019050919050565b6000613206601d83613901565b91507f73656e64657220746f6b656e207472616e73666572206661696c7572650000006000830152602082019050919050565b6000613246600f83613901565b91507f6465706f736974206973207a65726f00000000000000000000000000000000006000830152602082019050919050565b6000613286601683613901565b91507f746f6b656e207472616e73666572206661696c757265000000000000000000006000830152602082019050919050565b60006132c6602083613901565b91507f6e6578742073747265616d2069642063616c63756c6174696f6e206572726f726000830152602082019050919050565b6000613306602383613901565b91507f726563697069656e742062616c616e63652063616c63756c6174696f6e20657260008301527f726f7200000000000000000000000000000000000000000000000000000000006020830152604082019050919050565b600061336c603783613901565b91507f63616c6c6572206973206e6f74207468652073656e646572206f72207468652060008301527f726563697069656e74206f66207468652073747265616d0000000000000000006020830152604082019050919050565b60006133d2601f83613901565b91507f6465706f73697420736d616c6c6572207468616e2074696d652064656c7461006000830152602082019050919050565b6000613412601f83613901565b91507f5265656e7472616e637947756172643a207265656e7472616e742063616c6c006000830152602082019050919050565b6000613452602083613901565b91507f726563697069656e7420746f6b656e207472616e73666572206661696c7572656000830152602082019050919050565b600060808301600083015161349d60008601826134e8565b50602083015184820360208601526134b582826130da565b91505060408301516134ca60408601826134e8565b5060608301516134dd60608601826134e8565b508091505092915050565b6134f181613950565b82525050565b61350081613950565b82525050565b600060608201905061351b6000830186613038565b6135286020830185613047565b61353560408301846134f7565b949350505050565b60006040820190506135526000830185613038565b61355f60208301846134f7565b9392505050565b60006101008201905061357c600083018b613047565b613589602083018a613047565b61359660408301896134f7565b6135a36060830188613047565b6135b060808301876134f7565b6135bd60a08301866134f7565b6135ca60c08301856134f7565b6135d760e08301846134f7565b9998505050505050505050565b60006040820190506135f96000830185613047565b61360660208301846134f7565b9392505050565b600060208201905081810360008301526136278184613056565b905092915050565b600060208201905061364460008301846130cb565b92915050565b6000602082019050818103600083015261366381613113565b9050919050565b6000602082019050818103600083015261368381613153565b9050919050565b600060208201905081810360008301526136a3816131b9565b9050919050565b600060208201905081810360008301526136c3816131f9565b9050919050565b600060208201905081810360008301526136e381613239565b9050919050565b6000602082019050818103600083015261370381613279565b9050919050565b60006020820190508181036000830152613723816132b9565b9050919050565b60006020820190508181036000830152613743816132f9565b9050919050565b600060208201905081810360008301526137638161335f565b9050919050565b60006020820190508181036000830152613783816133c5565b9050919050565b600060208201905081810360008301526137a381613405565b9050919050565b600060208201905081810360008301526137c381613445565b9050919050565b60006020820190506137df60008301846134f7565b92915050565b60006080820190506137fa60008301876134f7565b6138076020830186613047565b61381460408301856134f7565b61382160608301846134f7565b95945050505050565b600060408201905061383f60008301856134f7565b61384c60208301846134f7565b9392505050565b6000604051905081810181811067ffffffffffffffff8211171561387657600080fd5b8060405250919050565b600067ffffffffffffffff82111561389757600080fd5b601f19601f8301169050602081019050919050565b6000819050602082019050919050565b600081519050919050565b600081519050919050565b6000602082019050919050565b600082825260208201905092915050565b600082825260208201905092915050565b600082825260208201905092915050565b600061391d82613930565b9050919050565b60008115159050919050565b600073ffffffffffffffffffffffffffffffffffffffff82169050919050565b6000819050919050565b60006139658261396c565b9050919050565b60006139778261397e565b9050919050565b600061398982613930565b9050919050565b82818337600083830152505050565b60005b838110156139bd5780820151818401526020810190506139a2565b838111156139cc576000848401525b50505050565b6000601f19601f8301169050919050565b6139ec81613912565b81146139f757600080fd5b50565b613a0381613924565b8114613a0e57600080fd5b50565b613a1a81613950565b8114613a2557600080fd5b5056fea365627a7a7231582052bce8cdf464a1b624891dc6a0d91b5983149144f8774ed7b8ba54665566c0076c6578706572696d656e74616cf564736f6c634300050b0040",
  "source": "pragma solidity 0.5.11;\r\npragma experimental ABIEncoderV2;\r\n\r\nimport \"@openzeppelin/contracts/lifecycle/Pausable.sol\";\r\nimport \"@openzeppelin/contracts/ownership/Ownable.sol\";\r\nimport \"@openzeppelin/contracts/token/ERC20/ERC20Burnable.sol\";\r\nimport \"@openzeppelin/contracts/utils/ReentrancyGuard.sol\";\r\nimport \"./compound/Exponential.sol\";\r\nimport \"./interfaces/IERC1620.sol\";\r\nimport \"./Types.sol\";\r\n\r\ncontract Reports is IERC1620, Exponential, ReentrancyGuard  {\r\n\r\n    uint256 reportCount;\r\n\r\n    struct Report {\r\n        uint256 Id;\r\n        string content;\r\n        uint256 amount;\r\n        uint256 streamId;\r\n    }\r\n\r\n    /**\r\n     * @notice Reports made per address.\r\n     */\r\n    mapping(address => Report[]) private reports;\r\n\r\n    Report[] private allReports;\r\n    \r\n    event Reported(address by, uint256 id);\r\n\r\n       /**\r\n     * @notice The amount of interest has been accrued per token address.\r\n     */\r\n    mapping(address => uint256) private earnings;\r\n\r\n    /**\r\n     * @notice The percentage fee charged by the contract on the accrued interest.\r\n     */\r\n    Exp public fee;\r\n\r\n    /**\r\n     * @notice Counter for new stream ids.\r\n     */\r\n    uint256 public nextStreamId;\r\n\r\n    /**\r\n     * @notice The stream objects identifiable by their unsigned integer ids.\r\n     */\r\n    mapping(uint256 => Types.Stream) private streams;\r\n\r\n    address owner;\r\n\r\n    /*** Modifiers ***/\r\n    /**\r\n     * @dev Throws if the caller is not the sender of the recipient of the stream.\r\n     */\r\n    modifier onlySenderOrRecipient(uint256 streamId) {\r\n        require(\r\n            msg.sender == streams[streamId].sender ||\r\n                msg.sender == streams[streamId].recipient,\r\n            \"caller is not the sender or the recipient of the stream\"\r\n        );\r\n        _;\r\n    }\r\n\r\n    /**\r\n     * @dev Throws if the provided id does not point to a valid stream.\r\n     */\r\n    modifier streamExists(uint256 streamId) {\r\n        require(streams[streamId].isEntity, \"stream does not exist\");\r\n        _;\r\n    }\r\n\r\n    /**\r\n     * @dev Throws if the provided id does not point to a valid stream.\r\n     */\r\n    modifier onlyOwner() {\r\n        require(owner == msg.sender, \"stream does not exist\");\r\n        _;\r\n    }\r\n\r\n    /*** Contract Logic Starts Here */\r\n\r\n    constructor() public {\r\n        reportCount = 0;\r\n        nextStreamId = 1;\r\n        owner = msg.sender;\r\n    }\r\n\r\n    /*** View Functions ***/\r\n\r\n    /**\r\n     * @notice Returns the compounding stream with all its properties.\r\n     * @dev Throws if the id does not point to a valid stream.\r\n     * @param streamId The id of the stream to query.\r\n     * @return The stream object.\r\n     */\r\n    function getStream(uint256 streamId)\r\n        external\r\n        view\r\n        streamExists(streamId)\r\n        returns (\r\n            address sender,\r\n            address recipient,\r\n            uint256 deposit,\r\n            address tokenAddress,\r\n            uint256 startTime,\r\n            uint256 stopTime,\r\n            uint256 remainingBalance,\r\n            uint256 ratePerSecond\r\n        )\r\n    {\r\n        sender = streams[streamId].sender;\r\n        recipient = streams[streamId].recipient;\r\n        deposit = streams[streamId].deposit;\r\n        tokenAddress = streams[streamId].tokenAddress;\r\n        startTime = streams[streamId].startTime;\r\n        stopTime = streams[streamId].stopTime;\r\n        remainingBalance = streams[streamId].remainingBalance;\r\n        ratePerSecond = streams[streamId].ratePerSecond;\r\n    }\r\n\r\n    /**\r\n     * @notice Returns either the delta in seconds between `block.timestamp` and `startTime` or\r\n     *  between `stopTime` and `startTime, whichever is smaller. If `block.timestamp` is before\r\n     *  `startTime`, it returns 0.\r\n     * @dev Throws if the id does not point to a valid stream.\r\n     * @param streamId The id of the stream for which to query the delta.\r\n     * @return The time delta in seconds.\r\n     */\r\n    function deltaOf(uint256 streamId)\r\n        public\r\n        view\r\n        streamExists(streamId)\r\n        returns (uint256 delta)\r\n    {\r\n        Types.Stream memory stream = streams[streamId];\r\n        if (block.timestamp <= stream.startTime) return 0;\r\n        if (block.timestamp < stream.stopTime)\r\n            return block.timestamp - stream.startTime;\r\n        return stream.stopTime - stream.startTime;\r\n    }\r\n\r\n    function deltaOfReverseStream(uint256 streamId)\r\n        public\r\n        view\r\n        streamExists(streamId)\r\n        returns (uint256 delta)\r\n    {\r\n        Types.Stream memory stream = streams[streamId];\r\n        if (block.timestamp < stream.stopTime)\r\n            return block.timestamp - stream.startTime;\r\n        return stream.stopTime - stream.startTime;\r\n    }\r\n\r\n    struct BalanceOfLocalVars {\r\n        MathError mathErr;\r\n        uint256 recipientBalance;\r\n        uint256 withdrawalAmount;\r\n        uint256 senderBalance;\r\n    }\r\n\r\n    /**\r\n     * @notice Returns the available funds for the given stream id and address.\r\n     * @dev Throws if the id does not point to a valid stream.\r\n     * @param streamId The id of the stream for which to query the balance.\r\n     * @return The total funds allocated to `receiver` as uint256.\r\n     */\r\n    function balanceOfReverseStream(uint256 streamId)\r\n        public\r\n        view\r\n        streamExists(streamId)\r\n        returns (uint256 balance)\r\n    {\r\n        Types.Stream memory stream = streams[streamId];\r\n        BalanceOfLocalVars memory vars;\r\n\r\n        uint256 delta = deltaOfReverseStream(streamId);\r\n        (vars.mathErr, vars.recipientBalance) = mulUInt(\r\n            delta,\r\n            stream.ratePerSecond\r\n        );\r\n        require(\r\n            vars.mathErr == MathError.NO_ERROR,\r\n            \"recipient balance calculation error\"\r\n        );\r\n\r\n        /*\r\n         * If the stream `balance` does not equal `deposit`, it means there have been withdrawals.\r\n         * We have to subtract the total amount withdrawn from the amount of money that has been\r\n         * streamed until now.\r\n         */\r\n        if (stream.deposit > stream.remainingBalance) {\r\n            (vars.mathErr, vars.withdrawalAmount) = subUInt(\r\n                stream.deposit,\r\n                stream.remainingBalance\r\n            );\r\n\r\n            assert(vars.mathErr == MathError.NO_ERROR);\r\n            (vars.mathErr, vars.recipientBalance) = subUInt(\r\n                vars.recipientBalance,\r\n                vars.withdrawalAmount\r\n            );\r\n            /* `withdrawalAmount` cannot and should not be bigger than `recipientBalance`. */\r\n            assert(vars.mathErr == MathError.NO_ERROR);\r\n        }\r\n\r\n        return vars.recipientBalance;\r\n    }\r\n\r\n    /**\r\n     * @notice Returns the available funds for the given stream id and address.\r\n     * @dev Throws if the id does not point to a valid stream.\r\n     * @param streamId The id of the stream for which to query the balance.\r\n     * @param who The address for which to query the balance.\r\n     * @return The total funds allocated to `who` as uint256.\r\n     */\r\n    function balanceOf(uint256 streamId, address who)\r\n        public\r\n        view\r\n        streamExists(streamId)\r\n        returns (uint256 balance)\r\n    {\r\n        Types.Stream memory stream = streams[streamId];\r\n        BalanceOfLocalVars memory vars;\r\n\r\n        uint256 delta = deltaOf(streamId);\r\n        (vars.mathErr, vars.recipientBalance) = mulUInt(\r\n            delta,\r\n            stream.ratePerSecond\r\n        );\r\n        require(\r\n            vars.mathErr == MathError.NO_ERROR,\r\n            \"recipient balance calculation error\"\r\n        );\r\n\r\n        /*\r\n         * If the stream `balance` does not equal `deposit`, it means there have been withdrawals.\r\n         * We have to subtract the total amount withdrawn from the amount of money that has been\r\n         * streamed until now.\r\n         */\r\n        if (stream.deposit > stream.remainingBalance) {\r\n            (vars.mathErr, vars.withdrawalAmount) = subUInt(\r\n                stream.deposit,\r\n                stream.remainingBalance\r\n            );\r\n            assert(vars.mathErr == MathError.NO_ERROR);\r\n            (vars.mathErr, vars.recipientBalance) = subUInt(\r\n                vars.recipientBalance,\r\n                vars.withdrawalAmount\r\n            );\r\n            /* `withdrawalAmount` cannot and should not be bigger than `recipientBalance`. */\r\n            assert(vars.mathErr == MathError.NO_ERROR);\r\n        }\r\n\r\n        if (who == stream.recipient) return vars.recipientBalance;\r\n        if (who == stream.sender) {\r\n            (vars.mathErr, vars.senderBalance) = subUInt(\r\n                stream.remainingBalance,\r\n                vars.recipientBalance\r\n            );\r\n            /* `recipientBalance` cannot and should not be bigger than `remainingBalance`. */\r\n            assert(vars.mathErr == MathError.NO_ERROR);\r\n            return vars.senderBalance;\r\n        }\r\n        return 0;\r\n    }\r\n\r\n    /*** Public Effects & Interactions Functions ***/\r\n\r\n    struct CreateStreamLocalVars {\r\n        MathError mathErr;\r\n        uint256 duration;\r\n        uint256 ratePerSecond;\r\n    }\r\n\r\n    /**\r\n     * @notice Creates a new reverse stream stream funded by `msg.sender` and paid towards `msg.sender`.\r\n     * @dev Throws if paused.\r\n     *  Throws if the deposit is 0.\r\n     *  Throws if the start time is before `block.timestamp`.\r\n     *  Throws if the stop time is before the start time.\r\n     *  Throws if the duration calculation has a math error.\r\n     *  Throws if the deposit is smaller than the duration.\r\n     *  Throws if the deposit is not a multiple of the duration.\r\n     *  Throws if the rate calculation has a math error.\r\n     *  Throws if the next stream id calculation has a math error.\r\n     *  Throws if the contract is not allowed to transfer enough tokens.\r\n     *  Throws if there is a token transfer failure.\r\n     * @param deposit The amount of money to be streamed.\r\n     * @param tokenAddress The ERC20 token to use as streaming currency.\r\n     * @param stopTime The unix timestamp for when the stream stops.\r\n     * @return The uint256 id of the newly created stream.\r\n     */\r\n    function createReverseStream(\r\n        uint256 deposit,\r\n        address tokenAddress,\r\n        uint256 stopTime\r\n    ) public returns (uint256) {\r\n        createStream(\r\n            msg.sender,\r\n            deposit,\r\n            tokenAddress,\r\n            block.timestamp,\r\n            stopTime\r\n        );\r\n    }\r\n\r\n    /**\r\n     * @notice Creates a new  stream stream funded by `msg.sender` and paid towards `msg.sender`.\r\n     * @dev Throws if paused.\r\n     *  Throws if the deposit is 0.\r\n     *  Throws if the start time is before `block.timestamp`.\r\n     *  Throws if the stop time is before the start time.\r\n     *  Throws if the duration calculation has a math error.\r\n     *  Throws if the deposit is smaller than the duration.\r\n     *  Throws if the deposit is not a multiple of the duration.\r\n     *  Throws if the rate calculation has a math error.\r\n     *  Throws if the next stream id calculation has a math error.\r\n     *  Throws if the contract is not allowed to transfer enough tokens.\r\n     *  Throws if there is a token transfer failure.\r\n     * @param recipient The address towards which the money is streamed.\r\n     * @param deposit The amount of money to be streamed.\r\n     * @param tokenAddress The ERC20 token to use as streaming currency.\r\n     * @param startTime The unix timestamp for when the stream starts.\r\n     * @param stopTime The unix timestamp for when the stream stops.\r\n     * @return The uint256 id of the newly created stream.\r\n     */\r\n    function createStream(\r\n        address recipient,\r\n        uint256 deposit,\r\n        address tokenAddress,\r\n        uint256 startTime,\r\n        uint256 stopTime\r\n    ) public returns (uint256) {\r\n        // require(recipient != address(0x00), \"stream to the zero address\");\r\n        // require(recipient != address(this), \"stream to the contract itself\");\r\n        // require(recipient != msg.sender, \"stream to the caller\");\r\n        require(deposit > 0, \"deposit is zero\");\r\n        // require(\r\n        //     startTime >= block.timestamp,\r\n        //     \"start time before block.timestamp\"\r\n        // );\r\n\r\n        // require(stopTime > startTime, \"stop time before the start time\");\r\n\r\n        CreateStreamLocalVars memory vars;\r\n        (vars.mathErr, vars.duration) = subUInt(stopTime, startTime);\r\n        /* `subUInt` can only return MathError.INTEGER_UNDERFLOW but we know `stopTime` is higher than `startTime`. */\r\n        assert(vars.mathErr == MathError.NO_ERROR);\r\n\r\n        /* Without this, the rate per second would be zero. */\r\n        require(deposit >= vars.duration, \"deposit smaller than time delta\");\r\n\r\n        /* This condition avoids dealing with remainders */\r\n        // require(\r\n        //     deposit % vars.duration == 0,\r\n        //     \"deposit not multiple of time delta\"\r\n        // );\r\n\r\n        (vars.mathErr, vars.ratePerSecond) = divUInt(deposit, vars.duration);\r\n        /* `divUInt` can only return MathError.DIVISION_BY_ZERO but we know `duration` is not zero. */\r\n        assert(vars.mathErr == MathError.NO_ERROR);\r\n\r\n        /* Create and store the stream object. */\r\n        uint256 streamId = nextStreamId;\r\n        streams[streamId] = Types.Stream({\r\n            remainingBalance: deposit,\r\n            deposit: deposit,\r\n            isEntity: true,\r\n            ratePerSecond: vars.ratePerSecond,\r\n            recipient: recipient,\r\n            sender: msg.sender,\r\n            startTime: startTime,\r\n            stopTime: stopTime,\r\n            tokenAddress: tokenAddress\r\n        });\r\n\r\n        /* Increment the next stream id. */\r\n        (vars.mathErr, nextStreamId) = addUInt(nextStreamId, uint256(1));\r\n        require(\r\n            vars.mathErr == MathError.NO_ERROR,\r\n            \"next stream id calculation error\"\r\n        );\r\n\r\n        require(\r\n            ERC20Burnable(tokenAddress).transferFrom(\r\n                msg.sender,\r\n                address(this),\r\n                deposit\r\n            ),\r\n            \"token transfer failure\"\r\n        );\r\n        emit CreateStream(\r\n            streamId,\r\n            msg.sender,\r\n            recipient,\r\n            deposit,\r\n            tokenAddress,\r\n            startTime,\r\n            stopTime\r\n        );\r\n        return streamId;\r\n    }\r\n\r\n    struct WithdrawFromStreamLocalVars {\r\n        MathError mathErr;\r\n    }\r\n\r\n    /**\r\n     * @notice Withdraws from the contract to the recipient's account.\r\n     * @dev Throws if the id does not point to a valid stream.\r\n     *  Throws if the caller is not the sender or the recipient of the stream.\r\n     *  Throws if the amount exceeds the available balance.\r\n     *  Throws if there is a token transfer failure.\r\n     * @param streamId The id of the stream to withdraw tokens from.\r\n     * @param amount The amount of tokens to withdraw.\r\n     * @return bool true=success, otherwise false.\r\n     */\r\n    function withdrawFromStream(uint256 streamId, uint256 amount)\r\n        external\r\n        nonReentrant\r\n        streamExists(streamId)\r\n        onlySenderOrRecipient(streamId)\r\n        returns (bool)\r\n    {\r\n        require(amount > 0, \"amount is zero\");\r\n        Types.Stream memory stream = streams[streamId];\r\n        WithdrawFromStreamLocalVars memory vars;\r\n\r\n        uint256 balance = balanceOf(streamId, stream.recipient);\r\n        require(balance >= amount, \"amount exceeds the available balance\");\r\n\r\n        (vars.mathErr, streams[streamId].remainingBalance) = subUInt(\r\n            stream.remainingBalance,\r\n            amount\r\n        );\r\n        /**\r\n         * `subUInt` can only return MathError.INTEGER_UNDERFLOW but we know that `remainingBalance` is at least\r\n         * as big as `amount`.\r\n         */\r\n        assert(vars.mathErr == MathError.NO_ERROR);\r\n\r\n        if (streams[streamId].remainingBalance == 0) delete streams[streamId];\r\n\r\n        require(\r\n            ERC20Burnable(stream.tokenAddress).transfer(\r\n                stream.recipient,\r\n                amount\r\n            ),\r\n            \"token transfer failure\"\r\n        );\r\n        emit WithdrawFromStream(streamId, stream.recipient, amount);\r\n    }\r\n\r\n    /**\r\n     * @notice Cancels the stream and transfers the tokens back on a pro rata basis.\r\n     * @dev Throws if the id does not point to a valid stream.\r\n     *  Throws if the caller is not the sender or the recipient of the stream.\r\n     *  Throws if there is a token transfer failure.\r\n     * @param streamId The id of the stream to cancel.\r\n     * @return bool true=success, otherwise false.\r\n     */\r\n    function cancelStream(uint256 streamId)\r\n        external\r\n        nonReentrant\r\n        streamExists(streamId)\r\n        onlyOwner()\r\n        returns (bool)\r\n    {\r\n        Types.Stream memory stream = streams[streamId];\r\n        uint256 senderBalance = balanceOf(streamId, stream.sender);\r\n        uint256 recipientBalance = balanceOf(streamId, stream.recipient);\r\n\r\n        delete streams[streamId];\r\n\r\n        ERC20Burnable token = ERC20Burnable(stream.tokenAddress);\r\n        if (recipientBalance > 0)\r\n            require(\r\n                token.transfer(stream.recipient, recipientBalance),\r\n                \"recipient token transfer failure\"\r\n            );\r\n        if (senderBalance > 0)\r\n            require(\r\n                token.transfer(stream.sender, senderBalance),\r\n                \"sender token transfer failure\"\r\n            );\r\n\r\n        emit CancelStream(\r\n            streamId,\r\n            stream.sender,\r\n            stream.recipient,\r\n            senderBalance,\r\n            recipientBalance\r\n        );\r\n    }\r\n\r\n    // TODO make it permissioned to only the receiver address\r\n    function Close(uint256 streamId)\r\n        external\r\n        nonReentrant\r\n        streamExists(streamId)\r\n    {\r\n        uint256 remainingBalance = balanceOfReverseStream(streamId);\r\n        Types.Stream memory stream = streams[streamId];\r\n        delete streams[streamId];\r\n        ERC20Burnable token = ERC20Burnable(stream.tokenAddress);\r\n\r\n        token.burn(remainingBalance);\r\n    }\r\n    \r\n    function reportEvent(\r\n        string memory _content,\r\n        uint256 deposit,\r\n        address tokenAddress,\r\n        uint256 stopTime\r\n    ) public returns (uint256) {\r\n        reportCount++;\r\n        Report memory report = Report(reportCount, _content, nextStreamId, deposit);\r\n        reports[msg.sender].push(\r\n            report\r\n        );\r\n\r\n        allReports.push(\r\n            report\r\n        );\r\n\r\n        createReverseStream(\r\n            deposit,\r\n            tokenAddress,\r\n            stopTime\r\n        );\r\n\r\n        emit Reported(msg.sender, reportCount);\r\n    }\r\n\r\n    function getUserReports(address user) public view returns (Report[] memory){\r\n        return reports[user];\r\n    }\r\n\r\n    function getAllReports() public view returns (Report[] memory){\r\n        return allReports;\r\n    }\r\n}",
  "sourcePath": "D:/Documents/hac/blockchain/contracts/Reports.sol",
  "compiler": {
    "name": "solc",
    "version": "0.5.11+commit.c082d0b4.Emscripten.clang"
  },
  "schemaVersion": "3.2.5",
  "updatedAt": "2020-11-20T13:17:17.541Z",
  "networkType": "ethereum",
  "devdoc": {
    "methods": {
      "balanceOf(uint256,address)": {
        "details": "Throws if the id does not point to a valid stream.\r",
        "params": {
          "streamId": "The id of the stream for which to query the balance.\r",
          "who": "The address for which to query the balance.\r"
        },
        "return": "The total funds allocated to `who` as uint256.\r"
      },
      "balanceOfReverseStream(uint256)": {
        "details": "Throws if the id does not point to a valid stream.\r",
        "params": {
          "streamId": "The id of the stream for which to query the balance.\r"
        },
        "return": "The total funds allocated to `receiver` as uint256.\r"
      },
      "cancelStream(uint256)": {
        "details": "Throws if the id does not point to a valid stream.\r Throws if the caller is not the sender or the recipient of the stream.\r Throws if there is a token transfer failure.\r",
        "params": {
          "streamId": "The id of the stream to cancel.\r"
        },
        "return": "bool true=success, otherwise false.\r"
      },
      "createReverseStream(uint256,address,uint256)": {
        "details": "Throws if paused.\r Throws if the deposit is 0.\r Throws if the start time is before `block.timestamp`.\r Throws if the stop time is before the start time.\r Throws if the duration calculation has a math error.\r Throws if the deposit is smaller than the duration.\r Throws if the deposit is not a multiple of the duration.\r Throws if the rate calculation has a math error.\r Throws if the next stream id calculation has a math error.\r Throws if the contract is not allowed to transfer enough tokens.\r Throws if there is a token transfer failure.\r",
        "params": {
          "deposit": "The amount of money to be streamed.\r",
          "stopTime": "The unix timestamp for when the stream stops.\r",
          "tokenAddress": "The ERC20 token to use as streaming currency.\r"
        },
        "return": "The uint256 id of the newly created stream.\r"
      },
      "createStream(address,uint256,address,uint256,uint256)": {
        "details": "Throws if paused.\r Throws if the deposit is 0.\r Throws if the start time is before `block.timestamp`.\r Throws if the stop time is before the start time.\r Throws if the duration calculation has a math error.\r Throws if the deposit is smaller than the duration.\r Throws if the deposit is not a multiple of the duration.\r Throws if the rate calculation has a math error.\r Throws if the next stream id calculation has a math error.\r Throws if the contract is not allowed to transfer enough tokens.\r Throws if there is a token transfer failure.\r",
        "params": {
          "deposit": "The amount of money to be streamed.\r",
          "recipient": "The address towards which the money is streamed.\r",
          "startTime": "The unix timestamp for when the stream starts.\r",
          "stopTime": "The unix timestamp for when the stream stops.\r",
          "tokenAddress": "The ERC20 token to use as streaming currency.\r"
        },
        "return": "The uint256 id of the newly created stream.\r"
      },
      "deltaOf(uint256)": {
        "details": "Throws if the id does not point to a valid stream.\r",
        "params": {
          "streamId": "The id of the stream for which to query the delta.\r"
        },
        "return": "The time delta in seconds.\r"
      },
      "getStream(uint256)": {
        "details": "Throws if the id does not point to a valid stream.\r",
        "params": {
          "streamId": "The id of the stream to query.\r"
        },
        "return": "The stream object.\r"
      },
      "withdrawFromStream(uint256,uint256)": {
        "details": "Throws if the id does not point to a valid stream.\r Throws if the caller is not the sender or the recipient of the stream.\r Throws if the amount exceeds the available balance.\r Throws if there is a token transfer failure.\r",
        "params": {
          "amount": "The amount of tokens to withdraw.\r",
          "streamId": "The id of the stream to withdraw tokens from.\r"
        },
        "return": "bool true=success, otherwise false.\r"
      }
    }
  },
  "userdoc": {
    "methods": {
      "balanceOf(uint256,address)": {
        "notice": "Returns the available funds for the given stream id and address.\r"
      },
      "balanceOfReverseStream(uint256)": {
        "notice": "Returns the available funds for the given stream id and address.\r"
      },
      "cancelStream(uint256)": {
        "notice": "Cancels the stream and transfers the tokens back on a pro rata basis.\r"
      },
      "constructor": "* Contract Logic Starts Here ",
      "createReverseStream(uint256,address,uint256)": {
        "notice": "Creates a new reverse stream stream funded by `msg.sender` and paid towards `msg.sender`.\r"
      },
      "createStream(address,uint256,address,uint256,uint256)": {
        "notice": "Creates a new  stream stream funded by `msg.sender` and paid towards `msg.sender`.\r"
      },
      "deltaOf(uint256)": {
        "notice": "Returns either the delta in seconds between `block.timestamp` and `startTime` or\r between `stopTime` and `startTime, whichever is smaller. If `block.timestamp` is before\r `startTime`, it returns 0.\r"
      },
      "getStream(uint256)": {
        "notice": "Returns the compounding stream with all its properties.\r"
      },
      "withdrawFromStream(uint256,uint256)": {
        "notice": "Withdraws from the contract to the recipient's account.\r"
      }
    }
  }
}